:100000000C942A000C9447000C9447000C94470071
:100010000C9447000C9447000C9447000C94470044
:100020000C9447000C9447000C9447000C94470034
:100030000C9447000C9447000C9447000C94470024
:100040000C9447000C9447000C9447000C94470014
:100050000C94470011241FBECFE5D8E0DEBFCDBF12
:1000600010E0A0E6B0E0E0EBF4E002C005900D92F5
:10007000AA3EB107D9F711E0AAEEB0E001C01D9287
:10008000AC30B107E1F70E94A2010C9456020C9427
:100090000000DF93CF930F92CDB7DEB7698329813C
:1000A00030E002C0359527954A95E2F790E020FDB3
:1000B0002AC0AC01440F551FDA01A650BF4F2D9145
:1000C0003C9111972F5F3F4F11963C932E93FA016D
:1000D000E050FF4F11821082FA01E251FF4F808100
:1000E000918182179307ACF5FA01EA5FFE4F808198
:1000F0009181892B71F581E090E0918380831D923D
:100100001C9281E027C0AC01440F551FDA01A050BA
:10011000BF4F2D913C9111972F5F3F4F11963C930C
:100120002E93FA01E650FF4F11821082FA01E2513C
:10013000FF4F80819181821793075CF4FA01EA5F97
:10014000FE4F80819181892B21F0118210821D92B6
:100150001C9280E00F90CF91DF910895E82FF0E09E
:10016000EE0FFF1FE251FF4F718360830895959A50
:100170000000000082B3807C82BB08950F931F9320
:10018000082F162F14BA979A82B3807882BB02C0C8
:100190000E94B700AF99FCCF8FEF84BB15BB002343
:1001A00021F482B38F7382BB02C09798969A0E9403
:1001B000B70015BA1F910F9108950F931F9381B344
:1001C000806E81BB86E990E024EF31E0F901319740
:1001D000F1F70197D9F780E061E00E94BE0080E16D
:1001E00097E20197F1F780E068E30E94BE000AEF12
:1001F00010E0C8010197F1F780E06EE00E94BE00B8
:10020000C8010197F1F71F910F910895CF93DF93E4
:10021000EC0104C0219681E00E94BE0068811616A0
:10022000CCF3DF91CF910895962F682F6058929567
:10023000990F990F907C690F80E00E94BE0008958D
:10024000CF93DF93EA010E94140104C0219681E05C
:100250000E94BE0068811616CCF3DF91CF910895FD
:1002600008958091ED00882309F041C080E090E07E
:1002700060E070E040E650E00E9420018091EA00DA
:1002800087FF03C083E08093EA008091EA0064E086
:100290000E94F8019093EA009330A4F4892F9927E3
:1002A00087FD90950196AC0134E0440F551F3A95B7
:1002B000E1F7481B590B4E585F4F81E090E061E039
:1002C00070E006C081E090E061E070E042E750E05D
:1002D0000E9420014091EA008FE04802A001112411
:1002E0004E585F4F81E090E060E070E028C04091A0
:1002F000EA008FE04802A001112442555F4F80E0E0
:1003000090E060E070E00E9420018091EA00882384
:1003100081F482B790E064EF70E04AE050E00E9420
:1003200011028BE090E060E070E044EF50E00E944A
:10033000200180E090E061E070E042E650E00E9441
:10034000200108950E94DD0017BA87E088BB83B7BB
:10035000856883BF84E690E09093EF008093EE0081
:100360009093F1008093F0009093F3008093F2005B
:100370000E94310166B380E040E00E94490088237A
:1003800071F08091ED00882321F48091EA008F5F65
:1003900014C08091EB009091EC00019616C066B3FA
:1003A00081E041E00E9449008823A1F08091ED00A6
:1003B000882331F48091EA0081508093EA00D8CFFD
:1003C0008091EB009091EC0001979093EC0080936A
:1003D000EB00CECF66B382E042E00E944900882362
:1003E00049F281E09091ED00891B8093ED00C0CF30
:1003F00087FB082E062687FD819567FD619505D050
:100400000EF4919507FC81950895991B79E004C03D
:10041000991F961708F0961B881F7A95C9F7809543
:100420000895FB019F01E8944230C4F04532B4F4D2
:100430004A3029F497FB1EF4909581959F4F642FC5
:1004400077270E944202805D8A330CF0895D819398
:10045000CB010097A1F716F45DE251931082C90118
:100460000C943202DC01FC01672F71917723E1F7D4
:10047000329704C07C916D9370836291AE17BF0771
:10048000C8F30895AA1BBB1B51E107C0AA1FBB1FDD
:10049000A617B70710F0A61BB70B881F991F5A9510
:1004A000A9F780959095BC01CD010895F894FFCFF0
:1004B0003E0020202020202020202020202020203E
:1004C0002000316572206D656E752020202020206F
:1004D00000326E64206D656E752020202020200083
:1004E00033656D65206D656E7520202020200034F9
:1004F000656D65206D656E75202020202000467298
:10050000657175656E6379203D20202000636F75ED
:100510006E74203D202020202020200053656C6533
:1005200063742057463A202020200056616C756580
:0A053000203D202020202020200084
:00000001FF
