:100000000C9434000C9446000C9446000C9446006A
:100010000C9446000C9446000C9446000C94460048
:100020000C9446000C9446000C9446000C94460038
:100030000C9446000C9446000C9446000C94460028
:100040000C9446000C9446000C9446000C94460018
:100050000C9446000C9446000C9446000C94460008
:100060000C9446000C94460011241FBECFEFD8E03C
:10007000DEBFCDBF11E0A0E0B1E001C01D92A8300D
:10008000B107E1F70E94B8000C942F010C94000016
:100090005D9A000000008BB1807C8BB908950F93AE
:1000A0001F93082F162F14B85F9A8BB1887F8BB9D6
:1000B00002C00E9448002F99FCCF8FEF84B915B978
:1000C000002321F48BB18B778BB902C05F985A9AC9
:1000D0000E94480015B81F910F9108951F938AB18F
:1000E000846A8AB986EA9EE00197F1F780E061E0D0
:1000F0000E944F0084EF91E00197F1F780E068E300
:100100000E944F0010E1812F8A95F1F780E06EE0A8
:100110000E944F001A95F1F71F910895CF93DF9336
:10012000EC0104C0219681E00E944F006881161600
:10013000CCF3DF91CF910895962F682F6058929558
:10014000990F990F907C690F80E00E944F000895ED
:10015000CF93DF93EA010E949C0004C0219681E0C6
:100160000E944F0068811616CCF3DF91CF9108955D
:10017000CF93DF930E946E0056985E9AC1E0D0E064
:100180004E9923C08091000190910101892BE9F4DF
:100190008091020190910301019690930301809355
:1001A0000201019764E071E04AE050E00E94EA0039
:1001B00080E090E060E070E044E051E00E94A80040
:1001C000D0930101C0930001DBCF10920101109286
:1001D0000001D6CFFB019F01E8944230C4F04532C4
:1001E000B4F44A3029F497FB1EF4909581959F4F03
:1001F000642F77270E941B01805D8A330CF0895D94
:100200008193CB010097A1F716F45DE25193108220
:10021000C9010C940B01DC01FC01672F719177235C
:10022000E1F7329704C07C916D9370836291AE17B1
:10023000BF07C8F30895AA1BBB1B51E107C0AA1F43
:10024000BB1FA617B70710F0A61BB70B881F991F77
:100250005A95A9F780959095BC01CD010895F89421
:02026000FFCFCE
:00000001FF
