:100000000C9434000C9451000C9451000C94510049
:100010000C9451000C9451000C9451000C9451001C
:100020000C9451000C9451000C9451000C9451000C
:100030000C9451000C9451000C9492010C945100BA
:100040000C9451000C9451000C947B010C945100C1
:100050000C9451000C9451000C9451000C945100DC
:100060000C9451000C94510011241FBECFEFD8E026
:10007000DEBFCDBF12E0A0E0B1E0E6E6FBE102C0EA
:1000800005900D92A035B107D9F712E0A0E5B2E0D6
:1000900001C01D92A939B107E1F70E9419020C9421
:1000A000B10D0C9400001092C5008FEC8093C40039
:1000B000E1ECF0E0808188698083E2ECF0E080810F
:1000C000866080830895982F8091C00085FFFCCFC3
:1000D0009093C6000895FC0107C08091C00085FF81
:1000E000FCCF31969093C60090811916B4F3089511
:1000F0008091C0008091C60008958CE284B981E5AA
:100100008CBD2A9A08958EBD0DB407FEFDCF8EB525
:1001100008952A988CE08EBD0DB407FEFDCF8EB5F4
:1001200080E88EBD0DB407FEFDCF2EB51EBC0DB40C
:1001300007FEFDCF8EB530E02F703070322F2227B2
:100140002A9A90E0282B392BC90108952A9889E032
:100150008EBD0DB407FEFDCF8EB580E88EBD0DB40B
:1001600007FEFDCF4EB51EBC0DB407FEFDCF2EB56C
:10017000842F90E08F709070982F882730E0822B2A
:10018000932B2A9A44FF05C022273327281B390BBB
:1001900001C09C01C9010895AF92BF92CF92DF9236
:1001A000EF92FF920F931F93CF93DF93282FC82FC7
:1001B000D0E0FE0194E0EE0FFF1F9A95E1F7EA5AB6
:1001C000FD4FDE0184E0AA0FBB1F8A95E1F7AC5A10
:1001D000BD4F8D919C9191838083222319F0213012
:1001E00059F403C00E94890002C00E94A6009093A7
:1001F00055028093540205C0809153028160809320
:100200005302FE0104E0EE0FFF1F0A95E1F7E45AE6
:10021000FD4F14E0CC0FDD1F1A95E1F7B8E5AB2ECA
:10022000B2E0BB2EAC0EBD1ED5016D917D918D91BE
:100230009C9160837183828393832FEF30E040E051
:1002400050E00E943E0AE72EF82E092F112707FDE5
:100250001A95E4E5CE2EE2E0DE2ECC0EDD1ECA5A63
:10026000DD4FF6016081718128813981621B730B3A
:10027000882777FD8095982F2FEF30E040E050E001
:100280000E943E0AE60EF71E081F191FD501ED92C7
:10029000FD920D931C931397F601248535854685B1
:1002A000578566E055954795379527956A95D1F717
:1002B000CA01B9010E943E0A209181023091820256
:1002C0004091830250918402260F371F481F591F07
:1002D00020938102309382024093830250938402E0
:1002E000DF91CF911F910F91FF90EF90DF90CF9012
:1002F000BF90AF9008951F920F920FB60F921124E6
:100300008F938091C0008091C6008093800280917D
:1003100053028460809353028F910F900FBE0F9011
:100320001F9018951F920F920FB60F9211242F93C2
:100330003F934F935F936F937F938F939F93AF936D
:10034000BF93EF93FF935E9A80E00E94CC0081E020
:100350000E94CC00609170027091710280917202D3
:1003600090917302F6E09595879577956795FA9544
:10037000D1F7209160023091610240916202509168
:100380006302E6E05595479537952795EA95D1F7AD
:100390000E943E0A2091890230918A0240918B028C
:1003A00050918C02260F371F481F591F2093890236
:1003B00030938A0240938B0250938C0280915002BA
:1003C0008F5F8093500280915002893638F01092EE
:1003D00050028091530281608093530280915102B8
:1003E0009091520201969093520280935102809113
:1003F0005102909152028050944048F080915302F3
:1004000082608093530210925202109251025E98C1
:10041000FF91EF91BF91AF919F918F917F916F91DC
:100420005F914F913F912F910F900FBE0F901F90B2
:1004300018952F923F924F925F926F927F928F9278
:100440009F92AF92BF92CF92DF92EF92FF920F9363
:100450001F93DF93CF93CDB7DEB7E2970FB6F89433
:10046000DEBF0FBECDBF8AB180668AB9209A289AB6
:100470000E94530080E091E00E946B008CE284B9FE
:1004800081E58CBD2A9A85E191E00E946B0084B5DC
:10049000826084BD80916E00826080936E0086E0F1
:1004A00087BD789485B5856085BD80E090E0A0E843
:1004B000BFE380937C0290937D02A0937E02B09371
:1004C0007F0280E090E0A0E0B0E48093740290931B
:1004D0007502A0937602B093770280E090E0A0E4EA
:1004E000B0E48093780290937902A0937A02B0935B
:1004F0007B02CE0101969AAB89AB2091420130E09C
:100500008091450190E0E0907802F09079020091AE
:100510007A0210917B02A0917402A9A7B091750292
:10052000BAA7E0917602EBA7F0917702FCA7F091D1
:100530007C02E0917D0270917E0260917F02590100
:10054000CC24B7FCC094DC2CADA6BEA6CFA6D8AAFE
:100550001C01442437FC4094542C8091530280FFAA
:10056000A3C0809153028E7F80935302ADE8B2E026
:10057000E1E8F2E08CE001900D928150E1F71092F9
:1005800081021092820210928302109284021092D1
:1005900085021092860210928702109288021092B1
:1005A000890210928A0210928B0210928C02609142
:1005B0008D0270918E0280918F02909190020E9424
:1005C0001E0729ED39E84DE15CE30E94C4050E9455
:1005D000EE0380E090E00E94D0070E94BC0A7B01FD
:1005E0008C016DA57EA58FA598A90E941E073B01D1
:1005F0004C01C801B701A40193010E94C40569A779
:100600007AA78BA79CA7609191027091920280912A
:100610009302909194020E941E0729ED39E84DE162
:100620005CE30E94C4050E94EE0380E090E00E941B
:10063000D0070E94BC0A7B018C01C201B1010E945B
:100640001E075B016C01C801B701A60195010E945C
:10065000C4057B018C012FE632E143E85AE30E9496
:10066000EE0688232CF4F0E0E0E070E060E01CC0CF
:1006700060919502709196028091970290919802F4
:100680000E941E0729ED39E84DE15CE30E94C40594
:10069000A40193010E94C405A60195010E94C4050E
:1006A000F62FE72F782F692F8091530282FF18C011
:1006B000809153028B7F80935302909180028091AE
:1006C000C00085FFFCCF9093C600809180028136E8
:1006D00029F48BB190E4B92E8B258BB9109280024E
:1006E0008091530281FF39CFE0927802F092790233
:1006F00000937A0210937B0229A53AA54BA55CA52D
:10070000C901DA018093740290937502A093760276
:10071000B09377022F2F3E2F472F562FC901DA01B2
:1007200080937C0290937D02A0937E02B0937F021F
:10073000809153028D7F809353025D9AA9A9BAA933
:10074000E8E21D92EA95E9F78DB79EB740970FB69C
:10075000F8949EBF0FBE8DBFEDB7FEB73196B1E0E6
:10076000AB2EB12CAC0EBD1EADB7BEB71296BC926F
:10077000AE921197A8E2CA2EA1E0DA2ED382C282ED
:1007800080E090E0A0E8BFE384839583A683B783ED
:100790000F2EF0E0AF2EF0E0BF2EF0E0CF2EF0E411
:1007A000DF2EF02DA086B186C286D38680E090E051
:1007B000A0E4B0E484879587A687B7870E94940A4F
:1007C000ADB7BEB750960FB6F894BEBF0FBEADBF63
:1007D000CE0101960E946B005D988FCEEF92FF9242
:1007E0000F931F937B018C0120E030E040E05FE439
:1007F0000E94BE0688238CF0C801B70120E030E0DB
:1008000040E05FE40E9466050E947C079B01AC010A
:10081000205030404040504806C0C801B7010E94F7
:100820007C079B01AC01B901CA011F910F91FF9098
:10083000EF900895A0E0B0E0E0E2F4E00C945D0AEF
:10084000DC012B01FA019C91923008F439C1EB01D3
:100850008881823008F433C1943069F4843009F01F
:100860002FC111969C9111978981981709F428C17D
:10087000A7E4B1E025C1843009F421C18230A9F494
:10088000923009F01DC19A01AD0188E0EA0109909A
:10089000AE01E90109929E018150C1F7E20189810F
:1008A00011969C918923818308C1923009F407C174
:1008B00012962D903C901397EB018A819B811496A0
:1008C000AD90BD90CD90DC901797EC80FD800E81AF
:1008D0001F819101281B390BB90137FF04C066271E
:1008E0007727621B730B603271050CF061C0121622
:1008F00013066CF537014801062E04C096948794C0
:10090000779467940A94D2F721E030E040E050E019
:1009100004C0220F331F441F551F6A95D2F7215080
:100920003040404050402E213F214023512321158B
:1009300031054105510521F021E030E040E050E073
:1009400079018A01E628F728082919293CC0232BB8
:10095000D1F1260E371E35014601062E04C09694AD
:100960008794779467940A94D2F721E030E040E0CE
:1009700050E004C0220F331F441F551F6A95D2F761
:1009800021503040404050402A213B214C215D21E4
:10099000211531054105510521F021E030E040E00D
:1009A00050E059016A01A628B728C828D9280BC0E9
:1009B000821593052CF01C01AA24BB24650103C0F9
:1009C000EE24FF24870111969C91D20111968C91FF
:1009D000981709F445C0992339F0A80197012A19FD
:1009E0003B094C095D0906C0A60195012E193F0976
:1009F000400B510B57FD08C01182338222822483A1
:100A00003583468357831DC081E0818333822282F0
:100A100088279927DC01821B930BA40BB50B8483D9
:100A20009583A683B7830DC0220F331F441F551F24
:100A300024833583468357838281938101979383EF
:100A400082832481358146815781DA01C90101976A
:100A5000A109B1098F5F9F4FAF4FBF4328F30BC070
:100A6000918333822282EA0CFB1C0C1D1D1DE48243
:100A7000F5820683178383E0808324813581468154
:100A8000578157FF1AC0C901AA2797FDA095BA2F11
:100A900081709070A070B0705695479537952795E6
:100AA000822B932BA42BB52B84839583A683B783AA
:100AB00082819381019693838283DF0101C0D201F9
:100AC000CD01CDB7DEB7E2E10C94790AA0E2B0E047
:100AD000ECE6F5E00C94690A69837A838B839C8346
:100AE0002D833E834F835887E9E0EE2EF12CEC0EE8
:100AF000FD1ECE010196B7010E946D098E010F5EA9
:100B00001F4FCE010596B8010E946D098A8991E0B8
:100B100089278A8BC701B801AE01475E5F4F0E94EB
:100B20001A040E949808A096E6E00C94850AA0E2B8
:100B3000B0E0EDE9F5E00C94690A69837A838B8370
:100B40009C832D833E834F835887F9E0EF2EF12C51
:100B5000EC0EFD1ECE010196B7010E946D098E01BB
:100B60000F5E1F4FCE010596B8010E946D09C701A7
:100B7000B801AE01475E5F4F0E941A040E949808B8
:100B8000A096E6E00C94850AA0E2B0E0EAECF5E07D
:100B90000C945D0A69837A838B839C832D833E83C7
:100BA0004F835887CE010196BE01675F7F4F0E9439
:100BB0006D09CE010596BE016F5E7F4F0E946D09E3
:100BC0009985923088F089898230C8F0943019F480
:100BD000823051F404C0843029F4923081F487E4E7
:100BE00091E0C6C0923049F420E09A858A89981332
:100BF00021E02A87CE010996BBC0823049F420E06B
:100C00009A858A89981321E02A8BCE014196B0C03B
:100C10002D843E844F8458886D887E888F88988C78
:100C2000EE24FF248701AA24BB24650140E050E0A4
:100C300060E070E0E0E0F0E0C10181709070892B2D
:100C4000E9F0E60CF71C081D191D9A01AB012A0DED
:100C50003B1D4C1D5D1D80E090E0A0E0B0E0E6147F
:100C6000F7040805190520F481E090E0A0E0B0E069
:100C7000BA01A901480F591F6A1F7B1FAA0CBB1C90
:100C8000CC1CDD1C97FE08C081E090E0A0E0B0E045
:100C9000A82AB92ACA2ADB2A3196E032F10549F09E
:100CA000660C771C881C991C56944794379427949B
:100CB000C3CFFA85EA892B893C898B859C85280FCF
:100CC000391F2E5F3F4F17C0CA0181709070892B6A
:100CD00061F016950795F794E79480E090E0A0E026
:100CE000B0E8E82AF92A0A2B1B2B769567955795C9
:100CF00047952F5F3F4F77FDE7CF0CC0440F551F3F
:100D0000661F771F17FD4160EE0CFF1C001F111FAF
:100D100021503040403090E0590790E0690790E45E
:100D2000790760F32B8F3C8FDB01CA018F779070BE
:100D3000A070B07080349105A105B10561F447FD44
:100D40000AC0E114F1040105110529F0405C5F4F70
:100D50006F4F7F4F40781A8EFE1711F081E08A8F17
:100D60004D8F5E8F6F8F78A383E0898FCE01499678
:100D70000E949808A096E2E10C94790AA8E1B0E0FC
:100D8000E4ECF6E00C94690A69837A838B839C8394
:100D90002D833E834F83588789E0E82EF12CEC0E9B
:100DA000FD1ECE010196B7010E946D098E010F5EF6
:100DB0001F4FCE010596B8010E946D0989858230CA
:100DC00040F08989823028F0C701B8010E94E50906
:100DD00001C08FEF6896E6E00C94850AA8E1B0E0C8
:100DE000E4EFF6E00C94690A69837A838B839C8331
:100DF0002D833E834F83588789E0E82EF12CEC0E3B
:100E0000FD1ECE010196B7010E946D098E010F5E95
:100E10001F4FCE010596B8010E946D098985823069
:100E200040F08989823028F0C701B8010E94E509A5
:100E300001C081E06896E6E00C94850AA8E0B0E085
:100E4000E4E2F7E00C94660A9B01AC0183E089833D
:100E5000DA01C9018827B7FD83959927AA27BB27FF
:100E6000B82E211531054105510519F482E0898319
:100E70003AC08823A9F0203080E0380780E0480796
:100E800080E8580729F460E070E080E09FEC30C013
:100E9000EE24FF248701E21AF30A040B150B02C0AB
:100EA00079018A018EE1C82ED12CDC82CB82ED82C1
:100EB000FE820F831887C801B7010E944908019775
:100EC0001816190684F4082E04C0EE0CFF1C001F2F
:100ED000111F0A94D2F7ED82FE820F831887C81A79
:100EE000D90ADC82CB82BA82CE0101960E94980890
:100EF0002896E9E00C94820AACE0B0E0E2E8F7E082
:100F00000C946D0A69837A838B839C83CE0101964E
:100F1000BE016B5F7F4F0E946D098D81823061F150
:100F2000823050F1843021F48E81882351F12EC01B
:100F30002F81388537FD20C06E812F3131051CF09F
:100F40006623F9F023C08EE190E0821B930B298584
:100F50003A854B855C8504C056954795379527950E
:100F60008A95D2F76623B1F050954095309521953A
:100F70003F4F4F4F5F4F0EC020E030E040E050E069
:100F800009C02FEF3FEF4FEF5FE704C020E030E0F4
:100F900040E050E8B901CA012C96E2E00C94890ABD
:100FA000A8E0B0E0E6EDF7E00C94650A7B018C0167
:100FB000611571058105910519F482E0898360C08E
:100FC00083E089838EE1C82ED12CDC82CB82ED8236
:100FD000FE820F831887C801B7010E944908FC01EF
:100FE0003197F7FF3BC0222733272E1B3F0B5701BA
:100FF0006801022E04C0D694C794B794A7940A94AB
:10100000D2F740E050E060E070E081E090E0A0E0E6
:10101000B0E004C0880F991FAA1FBB1F2A95D2F702
:101020000197A109B1098E219F21A023B123009727
:10103000A105B10521F041E050E060E070E04A29EF
:101040005B296C297D294D835E836F8378878EE1D0
:1010500090E08E1B9F0B9C838B8312C0309781F096
:101060000E2E04C0EE0CFF1C001F111F0A94D2F7B5
:10107000ED82FE820F831887CE1ADF0ADC82CB82D4
:101080001A82CE0101960E9498082896EAE00C94F4
:10109000810AEF92FF920F931F937B018C0180E0F6
:1010A000E81680E0F80681E0080780E0180788F479
:1010B0008FEFE816F1040105110531F028F088E002
:1010C00090E0A0E0B0E017C080E090E0A0E0B0E0E9
:1010D00012C080E0E81680E0F80680E0080781E0B2
:1010E000180728F088E190E0A0E0B0E004C080E1BB
:1010F00090E0A0E0B0E020E230E040E050E0281BCB
:10110000390B4A0B5B0B04C016950795F794E794CF
:101110008A95D2F7F701E15BFE4F8081281B3109E8
:1011200041095109C9011F910F91FF90EF90089556
:10113000DF92EF92FF920F931F93FC01E480F58002
:1011400006811781D1808081823048F480E090E070
:10115000A0E1B0E0E82AF92A0A2B1B2BA5C08430B5
:1011600009F49FC0823021F4EE24FF24870105C0DA
:10117000E114F1040105110519F4E0E0F0E096C076
:10118000628173819FEF623879070CF05BC022E8BF
:101190003FEF261B370B2A3131052CF020E030E0E1
:1011A00040E050E02AC0B801A701022E04C07695A5
:1011B0006795579547950A94D2F781E090E0A0E0B3
:1011C000B0E004C0880F991FAA1FBB1F2A95D2F751
:1011D0000197A109B1098E219F21A023B123009776
:1011E000A105B10521F081E090E0A0E0B0E09A0116
:1011F000AB01282B392B4A2B5B2BDA01C9018F77E6
:101200009070A070B07080349105A105B10539F4DB
:1012100027FF09C0205C3F4F4F4F5F4F04C0215C48
:101220003F4F4F4F5F4FE0E0F0E02030A0E03A0743
:10123000A0E04A07A0E45A0710F0E1E0F0E07901ED
:101240008A0127C06038710564F5FB01E158FF4F42
:10125000D801C7018F779070A070B070803491056D
:10126000A105B10539F4E7FE0DC080E490E0A0E0EF
:10127000B0E004C08FE390E0A0E0B0E0E80EF91E1B
:101280000A1F1B1F17FF05C016950795F794E794D3
:10129000319687E016950795F794E7948A95D1F7EC
:1012A00005C0EE24FF248701EFEFF0E06E2F679575
:1012B00066276795902F9F77D794DD24D7948E2F3C
:1012C0008695492F462B582F5D29B701CA011F91DA
:1012D0000F91FF90EF90DF900895FC01DB014081BA
:1012E00051812281622F6F7770E0221F2227221FF7
:1012F0009381892F880F822B282F30E0991F9927FF
:10130000991F11969C93119721153105A9F5411547
:1013100051056105710511F482E037C082E89FEF45
:1013200013969C938E9312979A01AB0167E0220F5C
:10133000331F441F551F6A95D1F783E08C930DC06E
:10134000220F331F441F551F12968D919C911397A6
:10135000019713969C938E931297203080E0380764
:1013600080E0480780E4580758F314962D933D9386
:101370004D935C93179708952F3F310579F44115EC
:1013800051056105710519F484E08C93089564FF9B
:1013900003C081E08C9312C01C9210C02F573040C4
:1013A00013963C932E93129783E08C9387E0440F1F
:1013B000551F661F771F8A95D1F7706414964D9359
:1013C0005D936D937C93179708951F93DC01FB0148
:1013D0009C91923008F447C08081823008F443C069
:1013E000943051F411961C91843099F58181682FC5
:1013F00070E0611B71093FC0843021F0923031F4FC
:101400008230B9F18181882389F12DC011961C9118
:1014100011978230F1F081811817D9F412962D912D
:101420003C911397828193818217930794F0281738
:101430003907BCF014968D919D910D90BC91A02D13
:101440002481358146815781281739074A075B0770
:1014500018F4112341F00AC082179307A407B507B7
:1014600040F4112319F061E070E005C06FEF7FEFE9
:1014700002C060E070E0CB011F910895629FD0012F
:10148000739FF001829FE00DF11D649FE00DF11D3F
:10149000929FF00D839FF00D749FF00D659FF00DEE
:1014A0009927729FB00DE11DF91F639FB00DE11DDB
:1014B000F91FBD01CF01112408952F923F924F9241
:1014C0005F926F927F928F929F92AF92BF92CF92D4
:1014D000DF92EF92FF920F931F93CF93DF93CDB7DD
:1014E000DEB7CA1BDB0B0FB6F894DEBF0FBECDBF55
:1014F00009942A88398848885F846E847D848C8426
:101500009B84AA84B984C884DF80EE80FD800C812E
:101510001B81AA81B981CE0FD11D0FB6F894DEBF11
:101520000FBECDBFED010895AEE0B0E0EAE9FAE00C
:101530000C946B0A0D891E8986E08C831A830983BB
:101540008FEF9FE79E838D839E01275E3F4FCE01E5
:1015500001966F89788DA9010E94FA0A2F8138853A
:10156000020F131FF80110822E96E4E00C94870AF4
:1015700011F40EF4CAC2BBC2DAD2D0F39923D9F364
:10158000CEF39F57550B87FFC3D20024A0E640EA55
:10159000900180585695979528F4805C660F771FC8
:1015A000881F20F026173707480730F4621B730B9B
:1015B000840B202931294A2BA695179407942025BE
:1015C00031254A2758F7660F771F881F20F0261706
:1015D0003707480730F4620B730B840B200D311D65
:1015E000411DA09581F7B901842F9158880F9695D8
:1015F00087950895ABE0B0E0E0E0FBE00C945D0A75
:101600003C012B015A01FC0117821682838181FD66
:1016100003C06FEF7FEFC6C19AE0892E1E010894C8
:10162000211C311CF3012381F20123FD859123FF4D
:1016300081912F01882309F4B2C1853239F423FD49
:10164000859123FF81912F01853229F490E0B30128
:101650000E94ED0CE7CF982FFF24EE249924FFE1A0
:10166000FF15D0F09B3269F09C3228F4903259F08B
:10167000933291F40EC09D3249F0903369F441E009
:1016800024C052E0F52A84E0F82A28C098E0F92A1C
:1016900025C0E0E1FE2A22C0F7FC29C0892F805333
:1016A0008A3070F4F6FE05C0989C902C1124980E98
:1016B00015C0E89CE02C1124E80EF0E2FF2A0EC0D1
:1016C0009E3229F4F6FC6BC140E4F42A07C09C3634
:1016D00019F450E8F52A02C0983649F4F20123FDC6
:1016E000959123FF91912F01992309F0B8CF892F6C
:1016F0008554833018F08052833038F444E050E051
:10170000A40EB51E5FE359830FC0933631F09337B3
:1017100079F0933509F056C020C0F50180818983A6
:1017200042E050E0A40EB51E610101E010E012C0DD
:10173000F501C080D180F6FC03C06FEF7FEF02C0DF
:10174000692D70E042E050E0A40EB51EC6010E9473
:10175000E20C8C015FE7F52214C0F501C080D18056
:10176000F6FC03C06FEF7FEF02C0692D70E042E02E
:1017700050E0A40EB51EC6010E94D70C8C0150E8A3
:10178000F52AF3FE07C01AC080E290E0B3010E9480
:10179000ED0CEA948E2D90E008171907A8F30EC0FF
:1017A000F601F7FC8591F7FE81916F0190E0B3019E
:1017B0000E94ED0CE110EA94015010400115110552
:1017C00079F7EAC0943611F0993669F5F7FE08C04A
:1017D000F501208131814281538184E090E00AC08B
:1017E000F501808191819C01442737FD4095542F5C
:1017F00082E090E0A80EB91E9FE6F92257FF09C0CB
:1018000050954095309521953F4F4F4F5F4FE0E801
:10181000FE2ACA01B901A1012AE030E00E94190D97
:10182000D82ED21840C0953729F41F2D1F7E2AE0EC
:1018300030E01DC01F2D197F9F3661F0903720F4D6
:10184000983509F0ACC00FC0903739F0983709F0DF
:10185000A6C004C028E030E00AC0106114FD146086
:1018600020E130E004C014FD166020E132E017FFF3
:1018700008C0F501608171818281938144E050E06C
:1018800008C0F50180819181BC0180E090E042E0D8
:1018900050E0A40EB51EA1010E94190DD82ED21839
:1018A0008FE7F82EF122F6FE0BC05EEFF522D91479
:1018B00038F4F4FE07C0F2FC05C08FEEF82202C037
:1018C0001D2D01C0192DF4FE0DC0FE01ED0DF11D01
:1018D0008081803319F499EEF92208C01F5FF2FE6F
:1018E00005C003C08F2D867809F01F5F0F2DF3FC14
:1018F00014C0F0FE0FC01E1510F09D2C0BC09D2CC7
:101900009E0C911A1E2D06C080E290E0B3010E9449
:10191000ED0C1F5F1E15C0F304C01E1510F4E11A74
:1019200001C0EE2404FF0FC080E390E0B3010E94E9
:10193000ED0C02FF1DC001FD03C088E790E00EC062
:1019400088E590E00BC0802F867891F001FF02C0FF
:101950008BE201C080E2F7FC8DE290E0B3010E94CF
:10196000ED0C06C080E390E0B3010E94ED0C9A9468
:10197000D914C0F3DA94F101ED0DF11D808190E0EE
:10198000B3010E94ED0CDD20A9F706C080E290E0D3
:10199000B3010E94ED0CEA94EE20C1F743CEF301AF
:1019A00066817781CB012B96E2E10C94790AFC01E8
:1019B0000590615070400110D8F7809590958E0F7A
:1019C0009F1F0895FC016150704001900110D8F7ED
:1019D000809590958E0F9F1F08950F931F93CF931F
:1019E000DF938C01EB018B8181FF1BC082FF0DC057
:1019F0002E813F818C819D812817390764F4E8810D
:101A0000F9810193F983E88306C0E885F985802F81
:101A10000995892B31F48E819F8101969F838E8356
:101A200002C00FEF1FEFC801DF91CF911F910F91FF
:101A30000895FA01AA27283051F1203181F1E89464
:101A40006F936E7F6E5F7F4F8F4F9F4FAF4FB1E0B1
:101A50003ED0B4E03CD0670F781F891F9A1FA11DAC
:101A6000680F791F8A1F911DA11D6A0F711D811DAD
:101A7000911DA11D20D009F468943F912AE0269F72
:101A800011243019305D3193DEF6CF010895462FD1
:101A90004770405D4193B3E00FD0C9F7F6CF462FB2
:101AA0004F70405D4A3318F0495D31FD405241931B
:101AB00002D0A9F7EACFB4E0A695979587957795D8
:101AC0006795BA95C9F700976105710508959B015F
:101AD000AC010A2E06945795479537952795BA95E8
:101AE000C9F7620F731F841F951FA01D08959F3FA4
:101AF00031F0915020F4879577956795B795880FC9
:101B0000911D9695879597F908959FEF80EC08951C
:101B100091505040660F771F881FD2F7089557FDE8
:101B20009058440F551F59F05F3F71F04795880F4B
:101B300097FB991F61F09F3F79F0879508951216E2
:101B400013061406551FF2CF4695F1DF08C016168E
:101B500017061806991FF1CF86957105610508943F
:061B60000895F894FFCF88
:101B66000A696E697469616C697A65642075617267
:101B76007420210A00696E697469616C697A65640A
:101B86002073706920210A0050203D2025662C20F4
:101B960056203D2025662C2049203D2025660D0A2D
:101BA600000001000001000000000000000000002D
:101BB60001020203030303040404040404040405E9
:101BC60005050505050505050505050505050506BE
:101BD600060606060606060606060606060606069F
:101BE600060606060606060606060606060606078E
:101BF600070707070707070707070707070707076F
:101C0600070707070707070707070707070707075E
:101C1600070707070707070707070707070707074E
:101C2600070707070707070707070707070707083D
:101C3600080808080808080808080808080808081E
:101C4600080808080808080808080808080808080E
:101C560008080808080808080808080808080808FE
:101C660008080808080808080808080808080808EE
:101C760008080808080808080808080808080808DE
:101C860008080808080808080808080808080808CE
:101C960008080808080808080808080808080808BE
:101CA60008080808080808080808080808080800B6
:00000001FF
