:100000000C942E020C9456020C9456020C94560238
:100010000C9456020C9456020C9456020C94560200
:100020000C9456020C9456020C9456020C945602F0
:100030000C94A1080C9456020C9456020C9456028F
:100040000C946F080C9449080C9456020C945602B8
:100050000C9456020C9456020C9456020C946609A9
:100060000C94EB080C9456020C9456020C94560215
:10007000093F203D2068656C70202D2074686973ED
:100080002070616765000A0972203D207265736502
:100090007420746F20737461727475702064656667
:1000A00061756C74732E000950203D203130302072
:1000B000343030203130303020333430302035305F
:1000C0003030204B487A20287374616E646172640A
:1000D000732900094F203D2035303030204B487ABD
:1000E00000094E203D2033343030204B487A00093F
:1000F0004D203D2031303030204B487A00093820E7
:100100003D2020383030204B487A000921212048FA
:1001100049474820535045454453202D20574152CC
:100120004E494E47202D2063616E20626C6F636BD9
:10013000202D206E6F74206170706C696361626C39
:100140006520666F7220554E4F000939203D2035DD
:10015000302E2E343030204B487A202D2073746599
:100160007020353020202020203C20444546415539
:100170004C54203E000934203D20343030204B4880
:100180007A000932203D20323030204B487A000975
:1001900031203D20313030204B487A000930203D5D
:1001A000203130302E2E383030204B487A202D2010
:1001B00073746570203130302020287761726E6949
:1001C0006E67202D2063616E20626C6F636B21214E
:1001D00029005370656564733A000961203D2074FD
:1001E0006F67676C65206164647265737320726108
:1001F0006E67652C20302E2E313237202D20382E80
:100200002E313139202864656661756C74290009C6
:1002100068203D20746F67676C6520686561646560
:1002200072202D206E6F4865616465722E00097022
:10023000203D20746F67676C65207072696E744131
:100240006C6C202D207072696E74466F756E642E12
:10025000004F75747075743A000969203D20746F01
:1002600067676C6520656E61626C652F6469736198
:10027000626C6520696E74657272757074730009C2
:1002800064203D20746F67676C65206C6174656ED7
:1002900063792064656C6179206265747765656E49
:1002A000207375636365737366756C20746573740E
:1002B000732E2030202D2035206D73000971203DD4
:1002C000207175697420636F6E74696E756F7573D4
:1002D000207363616E000963203D20636F6E746953
:1002E0006E756F7573207363616E202D20312073DE
:1002F00065636F6E642064656C6179000973203DED
:100300002073696E676C65207363616E005363616F
:100310006E206D6F64653A000940203D20746F6760
:10032000676C652057697265202D205769726531A9
:10033000202E2E205769726535205B652E672E2092
:100340005445454E5359206F722041726475696E51
:100350006F204475655D00202043757272656E7470
:100360003A20576972650049324320706F72747386
:100370003A20000A41726475696E6F204D756C7485
:1003800069537065656420493243205363616E6E22
:100390006572202D2000206D696C6C697365636F38
:1003A0006E64732E00206465766963657320666FE2
:1003B000756E6420696E20002E0056000900090049
:1003C0000930780009002D2D2D2D2D2D2D2D000902
:1003D0005B4B487A5D00090054494D45094445434B
:1003E0000948455809003E002E2E003C61646472A5
:1003F0006573732052616E6765203D2000656E61F4
:10040000626C65643E00646961626C65643E003CD8
:100410006972713D00666F756E643E00616C6C3E82
:10042000003C7072696E743D006E6F3E00796573BA
:100430003E003C6865616465723D00303E00353EBB
:10044000003C64656C61793D003E003C49324320CC
:10045000504F52543D5769726500110B11241FBE55
:10046000CFEFD4E0DEBFCDBF11E0A0E0B1E0E4E12A
:10047000F7E102C005900D92A435B107D9F721E04C
:10048000A4E5B1E001C01D92A53FB207E1F712E07B
:10049000CEE2D2E004C02197FE010E94820BCD3251
:1004A000D107C9F70E947F090C94880B0C940000B7
:1004B000CF92DF92EF92FF920F931F93CF93DF9330
:1004C0006C01EB017B01E40EF51E10E000E0CE159F
:1004D000DF0561F06991D601ED91FC910190F08109
:1004E000E02DC6010995080F191FF1CFC801DF9152
:1004F000CF911F910F91FF90EF90DF90CF900895D3
:10050000FC01538D448D252F30E0842F90E0821B19
:10051000930B541710F04F96089501970895FC011E
:10052000918D828D981761F0A28DAE0FBF2FB11DF6
:100530005D968C91928D9F5F9F71928F90E0089550
:100540008FEF9FEF0895FC01918D828D981731F008
:10055000828DE80FF11D858D90E008958FEF9FEF5C
:100560000895FC01918D228D892F90E08096821B49
:1005700091098F7199270895FC01A48DA80FB92FB7
:10058000B11DDD962C91848D90E001968F71992795
:10059000848FA689B7892C93A089B1898C918370A7
:1005A00080648C93938D848D981306C00288F389A0
:1005B000E02D80818F7D80830895EF92FF920F93CD
:1005C0001F93CF93DF93EC0181E0888F9B8D8C8DFF
:1005D00098131AC0E889F989808185FF15C09FB7F3
:1005E000F894EE89FF896083E889F98980818370B6
:1005F000806480839FBF81E090E0DF91CF911F9165
:100600000F91FF90EF900895F62E0B8D10E00F5F85
:100610001F4F0F711127E02E8C8D8E110CC00FB65D
:1006200007FCFACFE889F989808185FFF5CFCE01F3
:100630000E94BC02F1CFEB8DEC0FFD2FF11DF5AE4A
:100640009FB7F8940B8FEA89FB8980818062D1CFB4
:10065000CF93DF936DE088E991E00E94DD02EC0129
:100660006AE088E991E00E94DD028C0F9D1FDF9116
:10067000CF9108950F931F93CF93DF938C01D0E018
:10068000C0E0F80164910F5F1F4F662339F088E9DD
:1006900091E00E94DD02C80FD91FF3CFCE01DF9198
:1006A000CF911F910F910895CF93DF930E943A034A
:1006B000EC010E9428038C0F9D1FDF91CF910895BC
:1006C000CF93DF93EC01888D8823B9F0AA89BB8989
:1006D000E889F9898C9185FD03C0808186FD0DC074
:1006E0000FB607FCF7CF8C9185FFF2CF808185FF95
:1006F000EDCFCE010E94BC02E9CFDF91CF910895EA
:100700003FB7F89480918A0190918B01A0918C0160
:10071000B0918D0129B309B601FE05C02F3F19F034
:100720000196A11DB11D3FBFBA2FA92F982F882771
:10073000BC01CD01620F711D811D911D43E0660F4B
:10074000771F881F991F4A95D1F70895CF92DF929E
:10075000EF92FF92CF93DF936B017C010E948003A5
:10076000EB010E9480036C1B7D0B683E7340A0F080
:10077000C114D104E104F10439F4DF91CF91FF9069
:10078000EF90DF90CF90089581E0C81AD108E1087A
:10079000F108C851DC4FE5CFC114D104E104F104E4
:1007A00001F7EBCF8BBD25E032E08BE244E051E076
:1007B00090917F019923E9F0932F9A95F1F78ABDE3
:1007C000399BFECF90917F019923A9F0952F9A959F
:1007D000F1F78ABD0BB406FEEBCF80917F01882331
:1007E00061F082E08A95F1F78CB59FEF9CBD619A2C
:1007F0000895922FE2CF942FEACF85E0F3CFFC014A
:1008000001900020E9F73197AF01481B590BBC015B
:1008100088E991E00C9458028F929F92AF92BF9218
:10082000EF92FF920F931F93CF93DF93CDB7DEB775
:10083000A1970FB6F894DEBF0FBECDBF162F042FC1
:1008400019A2423008F40AE07E0121E2E20EF11C16
:10085000802E912CB12CA12C612FA50194010E9416
:10086000600B802F622F0E943E0B181B1A301CF564
:10087000105DF70112937F01122F732FCA01232BF2
:10088000242B252B49F790E080E0309719F0CF0119
:100890000E94FF03A1960FB6F894DEBF0FBECDBF36
:1008A000DF91CF911F910F91FF90EF90BF90AF908C
:1008B0009F908F900895195CDCCFCF92DF92EF92DA
:1008C000FF92CF93DF934A305105F1F44AE097FF4E
:1008D0001BC06B017C016DE288E991E00E94DD02A2
:1008E000EC0166277727CB016C197D098E099F09DA
:1008F0004AE00E940C048C0F9D1FDF91CF91FF9066
:10090000EF90DF90CF900895DF91CF91FF90EF901F
:10091000DF90CF900C940C04AB01BC01990F880BB5
:10092000990B0C945D0483E793E00E943A038EE2F6
:1009300091E00E94FF030E9428030E94280387E69B
:1009400093E00E943A036AE070E081E090E00E9448
:100950008C0487E593E00E943A036AE070E080919E
:100960009601909197010E948C040E94280388E1CF
:1009700093E00E9454038DE093E00E9454038CEFB7
:1009800092E00E94540386ED92E00E9454038CEBA7
:1009900092E00E9454038FE792E00E94540389E59D
:1009A00092E00E94540381E592E00E9454038EE29B
:1009B00092E00E9454038FE092E00E9454038AED7B
:1009C00091E00E94540382ED91E00E9454038CE96F
:1009D00091E00E9454038FE891E00E94540382E862
:1009E00091E00E94540385E791E00E9454038AE459
:1009F00091E00E9454030E9428038BE091E00E9442
:100A000054038DEF90E00E9454038FEE90E00E941B
:100A1000540381EE90E00E94540383ED90E00E9425
:100A2000540387EA90E00E94540386E890E00E9415
:100A3000540380E790E00E9454030C9428030F9322
:100A40001F93CF93DF93883309F49DC094F58133CE
:100A500009F481C024F5803309F4B4C087E491E03F
:100A60000E94FF0300E011E0D0E0C0E08091790136
:100A700090917A01C817D9070CF0C9C060E288E9E3
:100A800091E00E94DD02F801619171918191919153
:100A90008F014AE050E00E945D042196E7CF823347
:100AA00009F46CC08433D1F680E991E0A0E0B0E0B5
:100AB00056C08E3409F4A1C054F4893309F468C0D7
:100AC0008D3461F688EE93E0A0E0B0E048C08F344A
:100AD00009F498C0803511F684E690E0A0E0B0E01B
:100AE0008093000190930101A0930201B093030150
:100AF00080E991E0A0E0B0E08093040190930501CB
:100B0000A0930601B093070188EE93E0A0E0B0E067
:100B10008093080190930901A0930A01B0930B01FF
:100B200088E49DE0A0E0B0E080930C0190930D017B
:100B3000A0930E01B0930F0188E893E1A0E0B0E02C
:100B40008093100190931101A0931201B0931301AF
:100B500085E090E00EC084E690E0A0E0B0E08093F5
:100B6000000190930101A0930201B093030181E081
:100B700090E090937A018093790170CF88EC90E0B7
:100B8000A0E0B0E0ECCF80E293E0A0E0B0E0E7CFFF
:100B900088E090E090937A0180937901E0E0F1E0C1
:100BA00082E390E0A0E0B0E081939193A193B193B0
:100BB000C296A11DB11D823C21E09207A105B1059D
:100BC00099F74CCF88E090E090937A018093790177
:100BD000E0E0F1E084E690E0A0E0B0E08193919362
:100BE000A193B1938C599F4FAF4FBF4F843823E0EF
:100BF0009207A105B10591F731CF88E49DE0A0E00F
:100C0000B0E0ADCF88E893E1A0E0B0E0A8CF81E507
:100C100091E00E94FF03DF91CF911F910F910C94FF
:100C2000280389E30E941F051092970110929601F4
:100C300088E090E090932B0180932A0187E790E071
:100C400090932901809328011092900181E0809374
:100C50002C0180932D0110928F011092920110921D
:100C600091010C9493042F923F924F925F926F9256
:100C70007F928F929F92AF92BF92CF92DF92EF922C
:100C8000FF920F931F93CF93DF931F92CDB7DEB7E1
:100C90006DB67EB62FB7F89480918601909187014A
:100CA000A0918801B09189012FBF80937B0190931F
:100CB0007C01A0937D01B0937E0180918F018823F8
:100CC00009F0F89480912D018823E9F188ED93E0F3
:100CD0000E943A03D12C0D2D10E0E0907901F090A4
:100CE0007A010E151F05ACF486ED93E00E943A03DD
:100CF000000F111F000F111FF801E050FF4F60811E
:100D00007181828193814AE050E00E945D04D39416
:100D1000E2CF8FEC93E00E94540310E024E0E20E57
:100D2000F11C1E151F0409F034F486EC93E00E94B8
:100D30003A031F5FF6CF0E94280364E670E080E06C
:100D400090E00E94A60310912A0100E0BB24B39416
:100D500025E0A22E809128019091290118171906EB
:100D600011F00CF03DC14DB65EB680902C01809123
:100D7000790190917A012DB73EB7281B390B0FB638
:100D8000F8943EBF0FBE2DBF8DB79EB701961C01D4
:100D9000912F990F9983C12CD12C94E0992EEC2C92
:100DA000F12C8091790190917A01E816F9060CF006
:100DB000BAC0F701EE0FFF1FEE0FFF1FE050FF4F0D
:100DC00028EE33E040E050E06081718182819381C0
:100DD0000E94470B21E061347D408340910508F477
:100DE00020E020937F0189818093540191E09093CA
:100DF0008E0123E020937401499A399BFECF8091A4
:100E00007F01882311F18B2D8A95F1F769988091E4
:100E10007F018823E1F08B2D8A95F1F74998699A33
:100E20000BB407FC16C037E03093740110928E01AA
:100E300080917401853009F472C0863009F46DC068
:100E4000813009F06EC081E03FC08A2DDDCF892D51
:100E5000E3CF80917401837009F44BC0499880916D
:100E600054018CBD80EF0E94D20361988EEF0E94E6
:100E7000D20380FF0BC08091740180FF04C086E024
:100E800080937401D3CFA0927401D0CF809174016C
:100E90008E7F809374016998499A399BFECF809127
:100EA0007F01882391F18B2D8A95F1F7699A8091C2
:100EB0007F01882361F182E08A95F1F70BB405FE8A
:100EC00028C010928E0180E091E0811190E0F10144
:100ED000EE0DFF1D9083D92A51F080919001882357
:100EE00031F065E070E080E090E00E94A603C394DA
:100EF00056CF619880EF0E94D203809354019FEFF8
:100F00009CBD8EEF0E94D203C6CF892DCDCF8A2DF6
:100F1000D3CF28E020937401D4CF82E0D5CF83E0F3
:100F2000D3CF84E0D1CFDD2009F44BC00F5F2FB7C2
:100F3000F894609186017091870180918801909169
:100F400089012FBF4AE00E940C0484EC93E00E94C8
:100F50003A03C12ED12CF12CE12C4AE0C701B60195
:100F60000E940C0480EC93E00E943A03103130F4AC
:100F700060E170E090E080E00E948C0440E1C701F5
:100F8000B6010E940C048EEB93E00E943A03D12C30
:100F9000ED2CF12C8091790190917A01E816F906F7
:100FA000E4F48CEB93E00E943A03F101EE0DFF1D97
:100FB000808181110FC088EB93E00E943A03D394A3
:100FC000E7CF8110B4CF0FB6F8945EBE0FBE4DBE12
:100FD0001F5FC0CE8AEB93E0F0CF0E942803F3CFCF
:100FE0002FB7F8948091860190918701A091880194
:100FF000B09189012FBF8093750190937601A093E2
:101000007701B093780180912D01882341F10E94EE
:101010002803602F70E090E080E04AE00E940C041A
:1010200085EA93E00E943A03609175017091760120
:10103000809177019091780100917B0110917C0162
:1010400020917D0130917E01601B710B820B930B0F
:101050004AE00E940C0486E993E00E9454037894CD
:101060000FB6F8947EBE0FBE6DBE0F90DF91CF918C
:101070001F910F91FF90EF90DF90CF90BF90AF90B6
:101080009F908F907F906F905F904F903F902F90A8
:1010900008951F920F920FB60F9211242F933F9332
:1010A0004F935F936F937F938F939F93AF93BF9370
:1010B000EF93FF9388E991E00E94BC02FF91EF91CA
:1010C000BF91AF919F918F917F916F915F914F9160
:1010D0003F912F910F900FBE0F901F9018951F9268
:1010E0000F920FB60F9211242F938F939F93EF932C
:1010F000FF93E091A801F091A9018081E091AE01F8
:10110000F091AF0182FD1BC090818091B1018F5F92
:101110008F712091B201821741F0E091B101F0E0AE
:10112000E856FE4F958F8093B101FF91EF919F910B
:101130008F912F910F900FBE0F901F901895808167
:10114000F4CF1F920F920FB60F9211242F933F935B
:101150008F939F93AF93BF93809186019091870166
:10116000A0918801B09189013091850126E0230F7B
:101170002D3768F129E8230F0396A11DB11D209397
:1011800085018093860190938701A0938801B09395
:10119000890180918A0190918B01A0918C01B0917D
:1011A0008D010196A11DB11D80938A0190938B0141
:1011B000A0938C01B0938D01BF91AF919F918F91BE
:1011C0003F912F910F900FBE0F901F901895029690
:1011D000A11DB11DD4CF1F920F920FB60F921124F3
:1011E0002F938F939F93EF93FF938091840182308D
:1011F00009F45FC078F4882349F1813009F43FC0D5
:10120000FF91EF919F918F912F910F900FBE0F90B3
:101210001F901895843009F452C050F1853081F741
:1012200084E0809384019CB5809181018F5F8F70F1
:1012300020918001281709F447C080938101E09133
:101240008101F0E0EC5AFE4F90830CC08CB58823EE
:1012500019F08CB5869579F40CB400FE07C081E0D6
:10126000809384011CBC619A8EE721C084E0F8CF92
:101270008CB5882321F0619888EA8ABD17C08091D7
:101280008201909183019817B1F3809182018F5F61
:101290008F7080938201E0918201F0E0EC59FE4F63
:1012A00080818CBD82E080938401619A80E78BBD50
:1012B000A7CF83E08093840161981CBCD5CF85E0E3
:1012C000809384016198F2CF6198CECF1F920F92E4
:1012D0000FB60F9211248F93109284016198399B5D
:1012E00004C0599BFCCF88EA01C088EF8ABD80EF1B
:1012F0008BBD8F910F900FBE0F901F901895789413
:101300008BB383608BBBD3988AB3887F82608ABBA0
:101310008AB782608ABF80917100887F8093710054
:10132000809172008C7F8160809372008091710047
:10133000877E8093710080917100887F82608093A6
:10134000710083B1887F836083B91F9AE091A801FF
:10135000F091A90182E08083E091A401F091A501C0
:101360001082E091A601F091A7018CE08083109299
:10137000B001E091AC01F091AD0186E08083E09195
:10138000AA01F091AB01808180618083E091AA0184
:10139000F091AB01808188608083E091AA01F09197
:1013A000AB01808180688083E091AA01F091AB015C
:1013B00080818F7D808310928E01699A499A419A2B
:1013C000619A8FEF8CBD8AE28ABD80EF8BBD83E985
:1013D00091E090939501809394010E9428030E94CC
:1013E0001106C3E0D0E001E010E022E0E22EF12C93
:1013F0008FE7C82ED12C98E0A92EB12C88E991E076
:101400000E94B102892BB9F088E991E00E948F0215
:1014100081350CF049C08D340CF0DFC08A3304F5FF
:1014200088330CF0DAC0803334F083330CF4D5C049
:10143000843309F4D2C0809191019091920182305D
:10144000910509F4DEC08330910509F4E3C00197EA
:10145000A9F60E943306D0939201C0939101C8CFA0
:101460008F3309F4C9C0803431F71092970110927C
:1014700096018BE494E00E943A036AE070E090E009
:1014800080E00E948C0489E494E00E9454038091DF
:10149000960190919701892B71F683E991E09093E1
:1014A000950180939401C7CF893609F485C00CF06B
:1014B00049C0833609F468C07CF5813609F0BBCF9A
:1014C00080912A0190912B01892B09F08CC0B09258
:1014D0002B01A0922A0187E790E090932901809345
:1014E00028018BEE93E00E943A036AE070E080915D
:1014F0002A0190912B010E948C0488EE93E00E94B7
:101500003A036AE070E080912801909129010E94DD
:101510008C0486EE93E04DC08436D9F1883609F00C
:101520008ACF90902D0181E0982690922D0182E340
:1015300094E00E943A0389E294E09920D1F18DE28F
:1015400094E037C0813709F457C0A4F4803709F01C
:1015500072CF90902C0181E0982690922C0181E22C
:1015600094E00E943A0385E194E0992011F18CE126
:1015700094E01FC08237A1F1833709F05CCF10934C
:1015800092010093910157CFF0929201E092910164
:1015900052CF9090900181E098269092900181E442
:1015A00094E00E943A038BE394E0992011F08EE3DB
:1015B00094E00E9454033FCF90908F0181E09826E1
:1015C00090928F018FE094E00E943A038DEF93E0B8
:1015D000992079F386E094E0ECCF0E941F052BCF91
:1015E0000E94110628CF10922B0110922A01D0924E
:1015F0002901C092280175CFD0939201C093910127
:101600001ACF0E94330668EE73E080E090E00E94FB
:10161000A603EECE0E9493041092920110929101C3
:10162000E7CEE8E9F1E01382128288EE93E0A0E0D1
:10163000B0E084839583A683B78389E391E09183A7
:10164000808382E490E09587848781E490E09787A7
:10165000868786E490E0918B808B85E490E0938B85
:10166000828B84E490E0958B848B80E490E0978B70
:10167000868B118E128E138E148E0895002480FD99
:10168000060E660F11F08695D1F7802D0895EE278E
:10169000FF27AA27BB2708C0A20FB31FE41FF51F0F
:1016A000220F331F441F551F969587957795679591
:1016B00098F37040A9F7009799F7BD01CF010895FD
:1016C000A1E21A2EAA1BBB1BFD010DC0AA1FBB1F46
:1016D000EE1FFF1FA217B307E407F50720F0A21BB8
:1016E000B30BE40BF50B661F771F881F991F1A9425
:1016F00069F760957095809590959B01AC01BD014F
:10170000CF010895EE0FFF1F0590F491E02D09948D
:04171000F894FFCF7B
:1017140064000000C80000002C01000090010000DB
:1017240000000000000000000000000000000000B5
:101734000000000000000000770008000101302EC6
:10174400312E31360000000000DD025802B1028F54
:1017540002A302600380023C737065656473203DDC
:0417640000203E0023
:00000001FF
