:100000000C94DC000C94F9000C94F9000C94F900A9
:100010000C94F9000C94F9000C94F9000C94F9007C
:100020000C94F9000C94F9000C94F9000C94F9006C
:100030000C94F9000C94F9000C948C020C94F900C7
:100040000C94F9000C94F9000C9475020C94F900CE
:100050000C94F9000C94F9000C94F9000C94F9003C
:100060000C94F9000C94F9006E616E00696E6600E4
:100070006364696E6F70737578585B656667454633
:100080004700616E006E66696E69747900CDCCCCF4
:100090003D0AD7233C17B7D13877CC2B329595E65C
:1000A000241FB14F0A000020410000C84200401C3C
:1000B0004620BCBE4CCA1B0E5AAEC59D7400407A89
:1000C00010F35A00A0724E18090010A5D4E80000E1
:1000D000E87648170000E40B54020000CA9A3B007F
:1000E0000000E1F505000080969800000040420FF6
:1000F000000000A08601000000102700000000E8BA
:1001000003000000006400000000000A000000007E
:10011000000100000000002C76D888DC674F08231F
:10012000DFC1DFAE59E1B1B796E5E3E453C63AE685
:1001300051997696E8E6C28426EB898C9B62ED4065
:100140007C6FFCEFBC9C9F40F2BAA56FA5F49005B4
:100150005A2AF75C936B6CF9676DC11BFCE0E40DE8
:1001600047FEF520E6B500D0ED902E0300943577DC
:10017000050080841E080000204E0A000000C80C04
:10018000333333330F986E12831141EF8D2114896D
:100190003BE65516CFFEE6DB18D1844B381BF77CC7
:1001A0001D901DA4BBE424203284725E228100C90C
:1001B000F124ECA1E53D270011241FBECFEFD8E0CC
:1001C000DEBFCDBF11E0A0E0B1E0ECEFF0E202C095
:1001D00005900D92A633B107D9F715E0A6E3B1E07B
:1001E00001C01D92A138B107E1F70E941D030C94D4
:1001F0007C100C9400001092C5008FEC8093C4001A
:10020000E1ECF0E0808188698083E2ECF0E08081BD
:10021000866080830895982F8091C00085FFFCCF71
:100220009093C6000895FC0107C08091C00085FF2F
:10023000FCCF31969093C60090819923B1F7089531
:100240008091C0008091C60008958CE284B981E558
:100250008CBD2A9A08958EBD0DB407FEFDCF8EB5D4
:1002600008952A988CE08EBD0DB407FEFDCF8EB5A3
:1002700080E88EBD0DB407FEFDCF2EB51EBC0DB4BB
:1002800007FEFDCF8EB530E02F703070322F222761
:100290002A9A90E0282B392BC90108952A9889E0E1
:1002A0008EBD0DB407FEFDCF8EB580E88EBD0DB4BA
:1002B00007FEFDCF4EB51EBC0DB407FEFDCF2EB51B
:1002C000842F90E08F709070982F882730E0822BD9
:1002D000932B2A9A44FF04C09C012050304101C056
:1002E0009C01C90108959F92AF92BF92CF92DF9275
:1002F000EF92FF920F931F93CF93DF93982EC82F07
:10030000D0E0FE0154E0EE0FFF1F5A95E1F7E45CE8
:10031000FA4F80819181FE0144E0EE0FFF1F4A9564
:10032000E1F7E25CFA4F91838083992021F021E08C
:10033000921679F407C00E94310190933D05809395
:100340003C050CC00E944E0190934D0580934C05D6
:1003500005C0809139018160809339016E0134E0DC
:10036000CC0CDD1C3A95E1F780E495E0C80ED91E6F
:10037000F60180819181A281B381FE0124E0EE0F1C
:10038000FF1F2A95E1F7EC5BFA4F80839183A283EC
:10039000B383F60160817181828193812FEF30E018
:1003A00040E050E00E94100E7B018C01EF2CF02EFB
:1003B000012F112707FD1A9584E0CC0FDD1F8A95C8
:1003C000E1F7BCE3AB2EB5E0BB2EAC0EBD1EF501D4
:1003D00060817181C25CDA4F28813981621B730BA5
:1003E000882777FD8095982F2FEF30E040E050E090
:1003F0000E94100EE60EF71E081F191FF601E0827C
:10040000F1820283138380819181A281B381F501FE
:1004100084879587A687B787248535854685578540
:100420006485758586859785F6E09595879577959A
:100430006795FA95D1F7E6E0559547953795279555
:10044000EA95D1F70E94100E992021F0F1E09F1655
:10045000D9F531C06093690570936A0580936B0587
:1004600090936C0580913A0190913B01F5012081B8
:100470003181FC01EE0FFF1FE45CFE4F31832083CE
:10048000019690933B0180933A0180913A019091BB
:100490003B01F6012081318142815381FC01EE0F45
:1004A000FF1FE45CFE4F31832083019690933B0154
:1004B00080933A010EC060936D0570936E05809332
:1004C0006F059093700505C080913901816080931C
:1004D0003901DF91CF911F910F91FF90EF90DF9045
:1004E000CF90BF90AF909F9008951F920F920FB63C
:1004F0000F9211248F938091C0008091C600809349
:100500006805809139018460809339018F910F9043
:100510000FBE0F901F9018951F920F920FB60F925B
:100520001124EF92FF920F931F932F933F934F93BA
:100530005F936F937F938F939F93AF93BF93EF934B
:10054000FF935E9A80E00E94730181E00E94730134
:10055000E0907105F090720500917305109174059B
:10056000209148053091490540914A0550914B052D
:10057000609158057091590580915A0590915B05DD
:10058000F6E09595879577956795FA95D1F7E6E02A
:100590005595479537952795EA95D1F70E94100E06
:1005A000E60EF71E081F191FE0927105F092720502
:1005B000009373051093740580913A0190913B016B
:1005C0008D5F914058F010923B0110923A011092C9
:1005D0003601809139018160809339018091370122
:1005E0009091380101969093380180933701809162
:1005F0003701909138018050984048F0809139013E
:1006000082608093390110923801109237015E9810
:10061000FF91EF91BF91AF919F918F917F916F91DA
:100620005F914F913F912F911F910F91FF90EF900C
:100630000F900FBE0F901F9018952F923F924F92E0
:100640005F926F927F928F929F92AF92BF92CF9262
:10065000DF92EF92FF920F931F93DF93CF93CDB76B
:10066000DEB7AE970FB6F894DEBF0FBECDBF8AB12E
:1006700080668AB9209A289A0E94FB0080E091E067
:100680000E9413018CE284B981E58CBD2A9A85E130
:1006900091E00E94130184B5826084BD80916E0058
:1006A000826080936E0086E087BD789485B5856012
:1006B00085BDCE0101969EA78DA720906005309044
:1006C0006105409062055090630590915C0599A783
:1006D000A0915D05AAA7B0915E05BBA7E0915F055B
:1006E000ECA7F0916405E091650570916605609155
:1006F0006705809139018091390180FFC5C08091E3
:1007000039018E7F80933901A5E7B5E0E9E6F5E090
:100710008CE001900D928150E1F7109269051092E2
:100720006A0510926B0510926C0510926D0510927F
:100730006E0510926F05109270051092710510925F
:100740007205109273051092740560917505709191
:10075000760580917705909178050E94A60C29ED89
:1007600039E84DE15CE30E942E0D0E94780C80E098
:1007700090E00E94A40C0E94950D7B018C01609179
:10078000310170E0882777FD8095982F0E94A60C94
:100790009B01AC01C801B7010E942E0D69A77AA781
:1007A0008BA79CA76091790570917A0580917B0554
:1007B00090917C050E94A60C29ED39E84DE15CE39F
:1007C0000E942E0D0E94780C80E090E00E94A40C04
:1007D0000E94950D7B018C016091340170E08827A7
:1007E00077FD8095982F0E94A60C9B01AC01C80153
:1007F000B7010E942E0D1B012C012FE632E143E8C8
:100800005AE30E94740C88232CF4F0E0E0E070E0DE
:1008100060E03AC060917D0570917E0580917F0512
:1008200090918005E0903101A09034010E94A60CC7
:1008300029ED39E84DE15CE30E942E0D3B014C01AE
:10084000FF240027F7FC0095102FC801B7010E9474
:10085000A60C9B01AC01C401B3010E942E0D7B01CB
:100860008C01BB24CC24B7FCC094DC2CC601B501A0
:100870000E94A60C9B01AC01C801B7010E942E0D7D
:10088000F62FE72F782F692F8091390182FF1DC045
:10089000809139018B7F8093390190916805809117
:1008A000C00085FFFCCF9F5F9093C60080916805D4
:1008B000813649F48BB190E489278BB98091390155
:1008C000886080933901109268058091390181FF19
:1008D00010CF2092600530926105409262055092DF
:1008E000630529A53AA54BA55CA5C901DA0180934A
:1008F0005C0590935D05A0935E05B0935F052F2F77
:100900003E2F472F562FC901DA018093640590933B
:100910006505A0936605B0936705809139018D7FC9
:10092000809339015D9A8091390183FF43C0F89427
:100930000CE311E0ADA5BEA5E8E21D92EA95E9F74A
:100940008DB79EB708970FB6F8949EBF0FBE8DBFA8
:10095000EDB7FEB7319681E090E08C0F9D1FADB7EB
:10096000BEB712969C938E931197A8E2B1E0B38321
:10097000A283D8018D919C911197958384831296BF
:100980008D919C911397978386830E94DD0FEDB71D
:10099000FEB738960FB6F894FEBF0FBEEDBFCE017E
:1009A00001960E9413010C5F1F4FF5E00C331F07E7
:1009B00009F678945D9881CEA1E1B0E0E2EEF4E032
:1009C0000C942F0E3C017F876E876A01FC01178211
:1009D0001682838181FD03C06FEF7FEF6FC39E019D
:1009E0002F5F3F4F398B288BF3012381EE85FF85E5
:1009F00023FD859123FF8191FF87EE87882309F4EA
:100A00005AC3853251F4EE85FF8523FD859123FF7E
:100A10008191FF87EE87853229F490E0B3010E942F
:100A2000B10FE2CF982F10E0882499241032B0F44F
:100A30009B3269F09C3228F4903251F0933271F479
:100A40000BC09D3239F0903349F4116028C0126018
:100A5000146025C0186023C0106121C017FD2AC092
:100A6000892F80538A3078F416FF06C0FAE09F9EE3
:100A7000902C1124980E13C03AE0839E802C1124F0
:100A8000880E10620CC09E3221F416FD14C310644F
:100A900006C09C3611F4106802C0983659F4EE85F1
:100AA000FF8523FD959123FF9191FF87EE87992381
:100AB00009F0BCCF892F8554833020F4812F8061C9
:100AC000905E07C0892F8556833008F09FC1812F23
:100AD0008F7E86FD02C076E0972E6FE3F62EF82219
:100AE000953619F4F0E4FF2A07C0963619F420E889
:100AF000F22A02C091109A94F7FE0AC03BE339151E
:100B000018F45CE3B52E02C0B92CB39427E009C0F9
:100B100047E0491520F4BB2447E0942EF7CF292D58
:100B2000BB24C60104969D878C87F6016081718184
:100B300082819381AE014F5F5F4F0B2D0E94660E45
:100B40006C010981202E332400FF04C003FD02C084
:100B50001DE209C0F1FE02C01BE205C0F2FC02C0AA
:100B600010E001C010E2C1018C709070892BB9F1C6
:100B7000112311F483E001C084E0881510F088246B
:100B80000AC0881AF3FC07C080E290E0B3010E941B
:100B9000B10F8A94C9F7112329F0812F90E0B30196
:100BA0000E94B10F23FE03C008E610E00EC00CE661
:100BB00010E00BC0E114F10409F0805290E0B301A1
:100BC0000E94B10F0F5F1F4F05C0EF2CFF24F0E113
:100BD000EF22FF24F8018491882361F714C1F7FE06
:100BE00012C0BC0C24FE04C08A81813309F4BA947B
:100BF0001B141CF0BB24B3942DC0F8E0FB1550F57A
:100C000038E0B32E27C0F6FC25C0892D90E08C1566
:100C10009D054CF02CEFC2162FEFD20624F030E8E1
:100C2000F32A01C09A94992049F0E2E0F0E0EC0F39
:100C3000FD1FE90DF11D80818033A1F3F7FE0AC08D
:100C4000B92CB394892D90E0C816D90614F09924D4
:100C500001C09C18F7FC03C025E030E009C01C145B
:100C60001D041CF021E030E003C096012F5F3F4FD0
:100C7000112311F02F5F3F4F992029F0892D90E02B
:100C80000196280F391F882D90E02817390714F096
:100C9000882401C0821A4F2C5524C201897090709B
:100CA000892B39F008C080E290E0B3010E94B10FB7
:100CB0008A948820C1F7112329F0812F90E0B30195
:100CC0000E94B10F43FE07C008C080E390E0B3016B
:100CD0000E94B10F8A948820C1F7F7FE46C08601B2
:100CE000D7FE02C000E010E076010894E11CF11C80
:100CF000E01AF10A41E050E04C0F5D1FE40EF51ED2
:100D000026014B185108892D90E0AA24BB24A81A6B
:100D1000B90A5FEF0F3F150729F48EE290E0B301A7
:100D20000E94B10FC016D10634F0401651061CF4D3
:100D3000F701808101C080E3015010400894E11C5C
:100D4000F11C0A151B052CF090E0B3010E94B10FB5
:100D5000E0CF0C151D0539F49A81963318F49533BC
:100D600011F424FE81E390E04BC08A81813309F0C5
:100D70000F7E90E0B3010E94B10F9920A1F08EE2A6
:100D800090E0B3010E94B10F12E0E1E0F0E0EC0F5F
:100D9000FD1FE10FF11D1F5F808190E0B3010E94F4
:100DA000B10F9A9491F744FC03C085E690E002C02D
:100DB00085E490E0B3010E94B10FD7FC05C0C114D7
:100DC000D10441F404FF06C0D094C194D108D39457
:100DD0008DE201C08BE290E0B3010E94B10F80E38D
:100DE00005C08F5F26EF3FEFC20ED31E3AE0C31659
:100DF000D104BCF790E0B3010E94B10FC601C096C8
:100E0000B3010E94B10FCC84DD8452C1933631F01E
:100E1000933799F0933509F059C023C0F6018081CA
:100E200089835E010894A11CB11C22E030E0C20E4F
:100E3000D31E21E0E22EF12C12C0F601A080B18079
:100E400016FD03C06FEF7FEF02C0692D70E022E056
:100E500030E0C20ED31EC5010E94640F7C011F77D3
:100E600013C0F601A080B18016FD03C06FEF7FEFC5
:100E700002C0692D70E022E030E0C20ED31EC50131
:100E80000E94590F7C01106813FF07C01BC080E24D
:100E900090E0B3010E94B10F8A94882D90E0E8168B
:100EA000F906A8F30FC0F50117FD859117FF819191
:100EB0005F0190E0B3010E94B10F81108A94089401
:100EC000E108F108E114F10471F7F2C0943611F071
:100ED000993689F517FF08C0F601208131814281DA
:100EE000538184E090E00AC0F601808191819C01E9
:100EF000442737FD4095542F82E090E0C80ED91E5C
:100F00009FE6F92EF12257FF09C050954095309584
:100F100021953F4F4F4F5F4F90E8F92ACA01B90121
:100F2000AE014F5F5F4F2AE030E00E941B10E82EB9
:100F3000E889EE1A41C0953721F41F7E2AE030E09F
:100F40001CC0197F9F3661F0903720F4983509F066
:100F5000B2C00FC0903739F0983709F0ACC004C068
:100F600028E030E00AC0106114FD146020E130E098
:100F700004C014FD166020E132E017FF08C0F6013E
:100F8000608171818281938144E050E008C0F60164
:100F900080819181BC0180E090E042E050E0C40E8D
:100FA000D51EAE014F5F5F4F0E941B10E82E58897F
:100FB000E51A8FE7F82EF122F6FE0BC08EEFF8222D
:100FC000E91438F4F4FE07C0F2FC05C09FEEF922E4
:100FD00002C01E2D01C0192DF4FE0DC0FE01EE0D44
:100FE000F11D8081803319F4E9EEFE2208C01F5FF5
:100FF000F2FE05C003C08F2D867809F01F5F0F2D0C
:10100000F3FC14C0F0FE0FC0181510F09E2C0BC09E
:101010009E2C980C911A182D06C080E290E0B30126
:101020000E94B10F1F5F1815C0F304C0181510F40B
:10103000811A01C0882404FF0FC080E390E0B3014F
:101040000E94B10F02FF1DC001FD03C088E790E0C0
:101050000EC088E590E00BC0802F867891F001FFEC
:1010600002C08BE201C080E2F7FC8DE290E0B301A8
:101070000E94B10F06C080E390E0B3010E94B10F5F
:101080009A94E914C0F3EA94E1E0F0E0EC0FFD1F5C
:10109000EE0DF11D808190E0B3010E94B10FEE20B2
:1010A00091F706C080E290E0B3010E94B10F8A94EC
:1010B0008820C1F799CCF30166817781CB016196D5
:1010C000E2E10C944B0EFC0120FD08C023FD05C09D
:1010D00022FF02C073836283518340830895EF929D
:1010E000FF920F931F9344FF02C033E011C046FFED
:1010F00002C034E00DC0DB01FC01AA0FBB1FEE1FD4
:10110000FF1F1094D1F76A0F7B1F8E1F9F1F31E0C6
:10111000660F771F881F991F3150D1F77B018C0113
:10112000E20EF11C011D111DA8019701B701CA01B2
:101130001F910F91FF90EF9008950F931F93CF93FE
:10114000DF938C01C8010E946F0FEC0197FD08C06E
:101150000E943E0F892BB1F7CE01B8010E94011009
:10116000CE01DF91CF911F910F9108958F929F92A1
:10117000AF92BF92DF92EF92FF920F931F93CF93A4
:10118000DF935C01EB014A01122F0E946F0FAC014B
:101190008B3219F08D3251F41068219709F46DC02B
:1011A000C5010E946F0FAC0197FD67C06DEFD62E91
:1011B000D1228D2D807301F54033F1F4219709F48C
:1011C00047C0C5010E946F0FAC0197FD41C082E08E
:1011D000D82A483711F0483559F480E4D82A2197A5
:1011E000B9F1C5010E946F0FAC0199232CF430C0F6
:1011F000D6FC02C080E1D82AEE24FF248701242FE8
:101200002053283088F0D4FC09C02A3068F0D6FE7C
:1012100005C02F7D822F8151863028F0CA01B5018B
:101220000E94011012C02750C801B7014D2D0E9425
:101230006F087B018C0182E0D82A219761F0C501FB
:101240000E946F0FAC0197FFDACFD1FC04C015C02C
:10125000EE24FF248701D7FE08C010950095F09476
:10126000E094E11CF11C011D111DC401B801A7018E
:101270002D2D0E94630881E001C080E0DF91CF91B5
:101280001F910F91FF90EF90DF90BF90AF909F90D4
:101290008F900895A0E2B0E0E0E5F9E00C94330E01
:1012A0005C016B018A017901FE01319680E2DF0168
:1012B0001D928A95E9F770E030E060E040E050E090
:1012C0003F01A1E0B0E0F5018381F70183FD2591A5
:1012D00083FF21917F01222309F481C02E3519F467
:1012E0004115510569F1872F90E08417950744F463
:1012F0002D3551F12D3221F4332329F431E021C071
:10130000332309F4622F322F832F86958695869595
:10131000F301E80FF11D832F87704D0102C0880C87
:10132000991C8A95E2F7208128292083361711F429
:1013300030E007C0361710F43F5FE6CF3150E4CFFE
:1013400071E04F5F5F4FBFCF332319F08E81806212
:101350008E83772359F0FE0131969E012F5D3F4F1A
:10136000808180958193E217F307D1F799249394B4
:101370003E010894611C711CC5010E946F0FAC01F5
:1013800097FD25C0869586958695F301E80FF11D9A
:10139000808190E09A012770307002C09595879502
:1013A0002A95E2F780FD05C0CA01B5010E9401102F
:1013B0000EC00115110519F0D8014D938D01089447
:1013C000C108D1089924C114D104B1F602C09920F2
:1013D00031F40115110529F0F801108202C0EE2444
:1013E000FF24C701A096EEE00C944F0E2F923F927F
:1013F0005F926F927F928F929F92AF92BF92CF92A5
:10140000DF92EF92FF920F931F93CF93DF933C01F4
:101410007B011A010E946F0FEC018B3239F08D3283
:1014200011F0552411C0B0E85B2E01C0552408947A
:10143000E108F108E114F10409F418C1C3010E94A4
:101440006F0FEC0197FD12C1CE010E94460F893645
:10145000910521F08E36910599F51DC005E810E043
:101460001CC00894E108F108E114F10471F0C30113
:101470000E946F0FEC0197FD08C00E94460FD8161E
:1014800061F0CE01B3010E94011020E0083812077C
:1014900009F0ECC008C002E810E0F8010F5F1F4F30
:1014A000D490DD20F1F60558104029F080E090E05E
:1014B000A0E8BFE7CFC080E090E0A0ECBFE7CAC0E3
:1014C000CC24DD24882499245401AE014053242FD8
:1014D0004A3038F552E0552A852D90E0AC0148702D
:1014E000507052FE06C0452B11F50894C11CD11C4A
:1014F0001EC0452B19F00894C108D108C501B401DC
:1015000040E20E946F084B015C0188E9881689E976
:10151000980689E9A80689E1B80648F094E0592AB6
:1015200006C04E3F81F453FC0EC0E8E05E2A0894EA
:10153000E108F108E114F10431F0C3010E946F0FDA
:10154000EC0197FFC2CF51FE91C0C53619F0C534EA
:1015500009F046C00894E108F108E114F10409F427
:1015600085C0C3010E946F0FEC0197FD7FC08B32D5
:1015700021F08D3269F4F0E15F2A0894E108F10866
:10158000E114F10409F472C0C3010E946F0FEC0171
:10159000CE01C0970A9708F069C000E010E0B801DA
:1015A000882777FD8095982FAE014053242F40E285
:1015B0000E946F088B010894E108F108E114F1041E
:1015C00039F0C3010E946F0FEC01C0970A9738F3FE
:1015D000B80154FE03C0709561957F4FC60ED71EAB
:1015E000EF2831F0D7FD04C0CE01B3010E940110F5
:1015F000C501B4010E94A40CD7FE0DC0A1EAEA2ED9
:10160000A0E0FA2ED094C194D108D394C0E2D0E0E7
:1016100000E010E00EC0F9EBEF2EF0E0FF2EF6CF69
:10162000F70125913591459154910E942E0DCC1AC8
:10163000DD0ACC16DD06A0F7D695C7950F5F1F4FC4
:101640000630110529F0ECEFFFEFEE0EFF1EF1CF93
:10165000DC01CB0157FCB0582114310429F0F10111
:1016600080839183A283B38381E001C080E0DF9116
:10167000CF911F910F91FF90EF90DF90CF90BF908F
:10168000AF909F908F907F906F905F903F902F9042
:101690000895A0E0B0E0EFE4FBE00C94320E4C01C2
:1016A0005B013A01FC0117821682552404C1812F87
:1016B00090E00E943E0F892B21F0C4010E949D08FA
:1016C000FAC0153249F4F501F3FC6591F3FE61911E
:1016D0005F01653269F415E2C4010E946F0F97FD46
:1016E000F6C0181709F4E7C0B4010E940110F4C055
:1016F0006A3219F0162F00E006C0F3FC1591F3FED4
:1017000011915F0101E0CC24DD240EC00260B6011E
:1017100080E090E040E20E946F086B01F501F3FC6D
:101720001591F3FE11915F01212F20532A3070F3A0
:1017300001FD04C0CC24CA94DC2C04C0C114D10423
:1017400009F4CAC0183621F01C3699F4F5010BC013
:10175000F501F3FC6591F3FE6191683619F05F01C4
:10176000162F07C008600460F3FC1591F3FE119179
:101770005F01112309F4B0C080E790E0612F70E0B1
:101780000E944E0F892B09F4A7C0802F00FF03C0D1
:10179000EE24FF2407C0F301E080F18022E030E076
:1017A000620E731E1E3651F4F4014681578160E0CB
:1017B00070E0C701202F0E9463087DC01336B9F482
:1017C00081FD03C081E0C82ED12CC4010E946F0F9F
:1017D00097FD7DC0E114F10419F0F70181937F01B9
:1017E0000894C108D108C114D10479F762C01B352F
:1017F00059F4C401B601A70195010E944A095C0190
:10180000009709F056C050C0C4010E949D0897FD82
:101810005EC01F36D1F1103738F41436A1F11936F5
:10182000A9F11835D1F52DC0133751F0143718F43C
:10183000103799F526C0153731F1183771F521C0E9
:10184000C4010E946F0FEC0197FD15C00E943E0F6E
:10185000892B29F0CE01B4010E9401100CC0E114C3
:10186000F10419F0F701C1937F010894C108D10870
:10187000C114D10429F7E114F104D9F0F701108261
:1018800018C0006403C0006201C00061C401B60159
:10189000A701202F0E94B60805C0C401B601A70108
:1018A0000E94F609882329F4F4018381807379F476
:1018B00013C000FF5394F401F380F501F3FC15917C
:1018C000F3FE11915F01112309F0F1CE05C05520FF
:1018D00019F42FEF3FEF02C0252D30E0C901CDB73D
:1018E000DEB7EFE00C944E0E6CD008F481E0089562
:1018F00094D088F09F5790F0B92F9927B751A0F056
:10190000D1F0660F771F881F991F1AF0BA95C9F793
:1019100012C0B13081F09BD0B1E0089598C0672F1C
:10192000782F8827B85F39F0B93FCCF38695779543
:101930006795B395D9F73EF490958095709561952C
:101940007F4F8F4F9F4F0895E89409C097FB3EF457
:1019500090958095709561957F4F8F4F9F4F9923FC
:10196000A9F0F92F96E9BB279395F695879577957A
:101970006795B795F111F8CFFAF4BB0F11F460FF3A
:101980001BC06F5F7F4F8F4F9F4F16C0882311F092
:1019900096E911C0772321F09EE8872F762F05C0A6
:1019A000662371F096E8862F70E060E02AF09A9541
:1019B000660F771F881FDAF7880F9695879597F936
:1019C0000895990F0008550FAA0BE0E8FEEF1616D0
:1019D0001706E807F907C0F012161306E407F50723
:1019E00098F0621B730B840B950B39F40A2661F097
:1019F000232B242B252B21F408950A2609F4A1403A
:101A0000A6958FEF811D811D089557FD9058440FB5
:101A1000551F59F05F3F71F04795880F97FB991F4D
:101A200061F09F3F79F0879508951216130614060A
:101A3000551FF2CF4695F1DF08C016161706180697
:101A4000991FF1CF86957105610508940895E89472
:101A5000BB2766277727CB0197F908950BD0CFC016
:101A6000C0D028F0C5D018F0952309F09CC0AFC0B5
:101A70001124EECFCADFA0F3959FD1F3950F50E06C
:101A8000551F629FF001729FBB27F00DB11D639F30
:101A9000AA27F00DB11DAA1F649F6627B00DA11DD6
:101AA000661F829F2227B00DA11D621F739FB00D7C
:101AB000A11D621F839FA00D611D221F749F3327EC
:101AC000A00D611D231F849F600D211D822F762F85
:101AD0006A2F11249F5750408AF0E1F088234AF082
:101AE000EE0FFF1FBB1F661F771F881F91505040CE
:101AF000A9F79E3F510570F056C0AACF5F3FECF3A7
:101B0000983EDCF3869577956795B795F795E795B9
:101B10009F5FC1F7FE2B880F911D9695879597F9CA
:101B2000089511F40EF453C044C077DFD0F3992325
:101B3000D9F3CEF39F57550B87FF4CD00024A0E676
:101B400040EA900180585695979528F4805C660F7E
:101B5000771F881F20F026173707480730F4621BCD
:101B6000730B840B202931294A2BA69517940794CF
:101B7000202531254A2758F7660F771F881F20F048
:101B800026173707480730F4620B730B840B200DC0
:101B9000311D411DA09581F7B901842F9158880FFF
:101BA00096958795089597F99F6780E870E060E0C3
:101BB00008959F3F31F0915020F487957795679570
:101BC000B795880F911D9695879597F908959FEF82
:101BD00080EC089591505040660F771F881FD2F710
:101BE000089500240A941616170618060906089583
:101BF00000240A9412161306140605060895092EE9
:101C00000394000C11F4882352F0BB0F40F4BF2B57
:101C100011F460FF04C06F5F7F4F8F4F9F4F089597
:101C2000629FD001739FF001829FE00DF11D649FC0
:101C3000E00DF11D929FF00D839FF00D749FF00D4C
:101C4000659FF00D9927729FB00DE11DF91F639FED
:101C5000B00DE11DF91FBD01CF01112408952F9290
:101C60003F924F925F926F927F928F929F92AF922C
:101C7000BF92CF92DF92EF92FF920F931F93CF9379
:101C8000DF93CDB7DEB7CA1BDB0B0FB6F894DEBF10
:101C90000FBECDBF09942A88398848885F846E8436
:101CA0007D848C849B84AA84B984C884DF80EE8080
:101CB000FD800C811B81AA81B981CE0FD11D0FB689
:101CC000F894DEBF0FBECDBFED010895283008F0B7
:101CD00027E03327DA01990F311D87FD91600096C7
:101CE0006105710539F432602E5F3D9330E32A952A
:101CF000E1F708959F3F30F080387105610509F0E4
:101D00003C5F3C5F3D93913008F08068911DDF930C
:101D1000CF931F930F93FF92EF92192F987F969571
:101D2000E92F96959695E90FFF27E95EFE4F9927D3
:101D30003327EE24FF24A701E701059008940794B8
:101D400028F4360FE71EF81E491F511D660F771F36
:101D5000881F991F0694A1F70590079428F4E70EB1
:101D6000F81E491F561FC11D770F881F991F661F38
:101D70000694A1F70590079428F4F80E491F561F02
:101D8000C71FD11D880F991F661F771F0694A1F7E3
:101D90000590079420F4490F561FC71FD81F990FAD
:101DA000661F771F881F0694A9F7849110951770F6
:101DB00041F0D695C79557954795F794E7941A95AE
:101DC000C1F7EDEBF0E068941590159135916591B0
:101DD000959105907FE27395E118F10A430B560B3C
:101DE000C90BD009C0F7E10CF11E431F561FC91FD4
:101DF000D01D7EF4703311F48A95E6CFE89401503B
:101E000030F0080F0AF40027021708F4202F23955A
:101E1000022F7A3328F079E37D932A95E9F710C0F1
:101E20007D932A9589F6069497956795379517952A
:101E30001794E118F10A430B560BC90BD00998F01F
:101E400023957E9173957A3308F070E37C93201389
:101E5000B8F77E9170617D9330F0839571E37D9347
:101E600070E32A95E1F71124EF90FF900F911F91F5
:101E7000CF91DF91992787FD90950895911139C1F0
:101E8000803219F089508550D0F708959111089546
:101E900081548A5108F4805E855A0895FC010590AA
:101EA000061621F00020D9F7C00108953197CF011F
:101EB0000895FC010590615070400110D8F780959D
:101EC00090958E0F9F1F0895FC0161507040019006
:101ED0000110D8F7809590958E0F9F1F0895CF938E
:101EE000DF93EC014B8140FF1AC046FF0AC04F7BD5
:101EF0004B838E819F8101969F838E838A81282FB9
:101F00002BC042FF13C0E881F9818081282F33273D
:101F100027FD30952115310529F440624B832FEFC1
:101F20003FEF1BC03196F983E88311C0EA85FB853A
:101F3000CE0109959C0197FF0AC09B812F5F3F4FFF
:101F400011F080E201C080E1892B8B83E8CF8E8184
:101F50009F8101969F838E8330E0C901DF91CF91ED
:101F600008950F931F93CF93DF938C01EB018B8127
:101F700081FF1BC082FF0DC02E813F818C819D811E
:101F80002817390764F4E881F9810193F983E8831C
:101F900006C0E885F985802F0995892B31F48E815B
:101FA0009F8101969F838E8302C00FEF1FEFC801B0
:101FB000DF91CF911F910F910895AEE0B0E0E3EE75
:101FC000FFE00C943D0E0D891E8986E08C831A83F8
:101FD00009838FEF9FE79E838D839E01275E3F4F8E
:101FE000CE0101966F89788DA9010E94DC042F81B2
:101FF0003885020F131FF80110822E96E4E00C942E
:10200000590E9C01FB01838180FF11C086FD0FC02A
:102010009FEF2F3F390759F0228380648F7D8383A0
:102020008681978101979783868330E002C02FEFE6
:102030003FEFC9010895FA01AA27283051F1203154
:1020400081F1E8946F936E7F6E5F7F4F8F4F9F4F4C
:10205000AF4FB1E03ED0B4E03CD0670F781F891F8E
:102060009A1FA11D680F791F8A1F911DA11D6A0F5C
:10207000711D811D911DA11D20D009F468943F910F
:102080002AE0269F11243019305D3193DEF6CF010E
:102090000895462F4770405D4193B3E00FD0C9F7D4
:1020A000F6CF462F4F70405D4A3318F0495D31FD41
:1020B0004052419302D0A9F7EACFB4E0A695979594
:1020C000879577956795BA95C9F70097610571056A
:1020D00008959B01AC010A2E0694579547953795B4
:1020E0002795BA95C9F7620F731F841F951FA01D0E
:0C20F0000895992788270895F894FFCFE1
:1020FC000A696E697469616C697A656420756172CC
:10210C007420210A00696E697469616C697A65646E
:10211C002073706920210A0025642C25640D0A00A7
:06212C00000100000100AB
:00000001FF
