:100000000C9434000C9451000C9451000C94510049
:100010000C9451000C9451000C9451000C9451001C
:100020000C9451000C9451000C9451000C9451000C
:100030000C9451000C9451000C9417010C94510035
:100040000C9451000C9451000C9405010C94510037
:100050000C9451000C9451000C9451000C945100DC
:100060000C9451000C94510011241FBECFEFD8E026
:10007000DEBFCDBF12E0A0E0B1E0E8E2F6E102C0F1
:1000800005900D92A832B107D9F712E0A8E2B2E0CC
:1000900001C01D92A233B107E1F70E94CC000C947D
:1000A000120B0C9400001092C5008FEC8093C400DA
:1000B000E1ECF0E0808188698083E2ECF0E080810F
:1000C000866080830895982F8091C00085FFFCCFC3
:1000D0009093C6000895FC0107C08091C00085FF81
:1000E000FCCF31969093C60090811916B4F3089511
:1000F0008091C0008091C60008958CE284B981E5AA
:100100008CBD2A9A08958EBD0DB407FEFDCF8EB525
:1001100008952A988CE08EBD0DB407FEFDCF8EB5F4
:1001200080E88EBD0DB407FEFDCF2EB51EBC0DB40C
:1001300007FEFDCF8EB530E02F703070322F2227B2
:100140002A9A90E0282B392BC90108952A9889E032
:100150008EBD0DB407FEFDCF8EB580E88EBD0DB40B
:1001600007FEFDCF4EB51EBC0DB407FEFDCF2EB56C
:10017000842F90E08F709070982F882730E0822B2A
:10018000932B2A9A44FF05C022273327281B390BBB
:1001900001C09C01C90108958AB180668AB9209A7C
:1001A000289A0E94530080E091E00E946B008CE24C
:1001B00084B981E58CBD2A9A85E191E00E946B00AB
:1001C00084B5826084BD80916E00826080936E00F1
:1001D00087E087BD789485B5856085BD20E28091F4
:1001E00031028823E1F3909131028091C00085FFB4
:1001F000FCCF9093C60080913102813619F48BB107
:1002000082278BB910923102EACF1F920F920FB65C
:100210000F9211248F938091C0008091C60080932B
:1002200031028F910F900FBE0F901F9018951F9263
:100230000F920FB60F9211248F929F92AF92BF929E
:10024000CF92DF92EF92FF920F931F932F933F93E2
:100250004F935F936F937F938F939F93AF93BF93CE
:10026000EF93FF93DF93CF93CDB7DEB72A97DEBF2F
:10027000CDBF5E9A0E9489008C010E94A600F09179
:100280002902E0912A02F0902B02E0902C02D090FB
:100290002D02C0902E02B0902F02A09030029C013F
:1002A000209FC001219F900D309F900D1124A0E050
:1002B000B0E09C01AD01550F220B322FA901682F30
:1002C000892F322F422F522FF60F71E0F61708F0C8
:1002D00070E0682F6E0FE1E0681708F0E0E0072F8C
:1002E000060F81E0061708F080E0E82BEF0D81E0B3
:1002F000EF1508F080E0182F1E0D81E01E1508F0A4
:1003000080E0982F832F8D0D61E0831708F060E067
:10031000B92FB80F91E0B81708F090E0692B842F3F
:100320008C0D71E0841708F070E0A62FA80F91E003
:10033000A81708F090E0792B852F8B0D91E0851799
:1003400008F090E0780F61E0781708F060E0962BF5
:100350002A0D920FF093290200932A02E0932B02B8
:1003600010932C02B0932D02A0932E0270932F02B3
:1003700090933002809128028F5F809328028091B1
:1003800028028F3F09F048C05D9A4E010894811CF5
:10039000911C8AE0F40111928A95E9F720912902D3
:1003A00030912A0240912B0250912C0260912D0233
:1003B00070912E0280912F0290913002A09028021D
:1003C000BB24CC24DD24EE24FF2400E010E00E94B6
:1003D0002D02C901B4014AE050E00E94CD0AC401D7
:1003E0000E946B008091C00085FFFCCF8AE0809363
:1003F000C600109228021092290210922A0210922E
:100400002B0210922C0210922D0210922E021092AA
:100410002F02109230025D985E982A96DEBFCDBF03
:10042000CF91DF91FF91EF91BF91AF919F918F910C
:100430007F916F915F914F913F912F911F910F91FC
:10044000FF90EF90DF90CF90BF90AF909F908F90F4
:100450000F900FBE0F901F901895A2E7B0E0E3E356
:10046000F2E00C94960A982E892E712E88E0FE01F7
:100470003196DF01682E1D926A94E9F729833A8349
:100480004B835C836D837E839F829887FE013996C0
:10049000DF011D928A95E9F7A986BA86CB86DC86AC
:1004A000ED86FE860F87188B8D819E81AF81B88582
:1004B000B7FD07C0E1961CAE1DAE1EAE1FAEE197A4
:1004C00064C0219581E0121608F080E0319591E03A
:1004D000131608F090E0B32FB81B81E03B1708F02B
:1004E00080E0982B419531E0141608F030E0A42FFD
:1004F000A91B81E04A1708F080E0382B519591E064
:10050000151608F090E0F52FF31B81E05F1708F057
:1005100080E0982B619531E0161608F030E0E62F68
:10052000E91B81E06E1708F080E0382B719541E0FF
:10053000171608F040E0572F531B81E0751708F09D
:1005400080E0482B892D819591E0181608F090E005
:10055000682E641A462D31E0861508F030E0932BA2
:10056000882D8195891B2983BA83AB83FC83ED8316
:100570005E834F8388872FEF3FEF4FEF5FEFE1966A
:100580002CAF3DAF4EAF5FAFE1978D859E85AF85B8
:10059000B889B7FF6AC0E1964CAD5DAD6EAD7FAD79
:1005A000E1974095509560957095E1964CAF5DAFA1
:1005B0006EAF7FAFE197A19481E01A1408F080E05C
:1005C000B19491E01B1408F090E06B2D681B81E062
:1005D000B61608F080E0982BC19421E01C1408F0B6
:1005E00020E05C2D591B81E0C51608F080E0282B27
:1005F000D19491E01D1408F090E04D2D421B81E054
:10060000D41608F080E0982BE19421E01E1408F045
:1006100020E03E2D391B81E0E31608F080E0282B16
:10062000F19491E01F1408F090E07F2D721B272FAA
:1006300081E0F71608F080E0982B019511E0101684
:1006400008F010E0802F891B982F81E0091708F02F
:1006500080E0182B872D8195811BA9866A875B878F
:100660004C873D872E879F87888B99812A813B8184
:100670004C815D816E817F81A885B9851A850B8546
:10068000FC84ED84DE84CF84B88888E0E1E18E2E9E
:10069000912C8C0E9D1EF401682E11926A94E9F73C
:1006A000998B2A8B3B8B4C8B5D8B6E8B7F8BA88FB2
:1006B0009E01275E3F4FF90111928A95E9F7B98FA4
:1006C0001A8F0B8FFC8EED8EDE8ECF8EB8A2298C0A
:1006D0003A8C4B8C5C8CED8CFE8C0F8D18A169884C
:1006E0007A888B889C8821966CAE7DAE8EAE9FAE4C
:1006F00021976D887E888F88988CE114F10401051C
:10070000110509F0D9C3621473048404950408F038
:1007100057C100E0201600E0300601E0400600E08E
:10072000500688F41FEF211631044104510439F0BA
:1007300030F048E0E42EF12C012D112D18C0EE24EC
:10074000FF24870114C020E0221620E0320620E0BA
:10075000420621E0520630F038E1E32EF12C012D63
:10076000112D05C020E1E22EF12C012D112DD20119
:10077000C1010E2C04C0B695A795979587950A944C
:10078000D2F7885D9E4FDC012C9180E290E0A0E0E2
:10079000B0E08E199F09A00BB10B7C018D01E21A0C
:1007A000F10801091109E114F10401051105D1F164
:1007B0000E2C04C0220C331C441C551C0A94D2F786
:1007C000A40193010E2C04C0220F331F441F551F98
:1007D0000A94D2F780E290E08E199F0921966CACC2
:1007E0007DAC8EAC9FAC219704C09694879477948F
:1007F00067948A95D2F7622A732A842A952A2196C9
:10080000ACACBDACCEACDFAC219704C0AA0CBB1C19
:10081000CC1CDD1CEA94D2F72196ACAEBDAECEAEB8
:10082000DFAE21976201EE24FF242996CCAEDDAE27
:10083000EEAEFFAE299792018101207030702D96A7
:100840000CAF1DAF2EAF3FAF2D97C401B301A70171
:1008500096010E94740A7B018C01C401B3012996A0
:100860002CAD3DAD4EAD5FAD29970E94740AC90114
:10087000DA013C014D01C401B3012D962CAD3DAD13
:100880004EAD5FAD2D970E94550A9B01AC018701CB
:10089000FF24EE242196ACACBDACCEACDFAC2197EE
:1008A000C601AA27BB2757016801A82AB92ACA2A64
:1008B000DB2AA216B306C406D506E0F40894610844
:1008C000710881089108A20CB31CC41CD51CA21489
:1008D000B304C404D50470F0A216B306C406D5064A
:1008E00048F408946108710881089108A20CB31CAF
:1008F000C41CD51CA21AB30AC40AD50AC601B50184
:1009000029962CAD3DAD4EAD5FAD29970E94740A7E
:100910007B018C01C601B50129962CAD3DAD4EADD4
:100920005FAD29970E94740AC901DA015C016D016B
:10093000C601B5012D962CAD3DAD4EAD5FAD2D97E9
:100940000E94550A9B01AC018701FF24EE242196E9
:100950008CAD9DADAEADBFAD2197A070B070E82A53
:10096000F92A0A2B1B2BE216F30604071507C0F41D
:100970000894A108B108C108D108E20CF31C041DB9
:10098000151DE214F3040405150550F0E216F306F4
:100990000407150728F40894A108B108C108D10874
:1009A000D3019927882786017501E82AF92A0A2B9D
:1009B0001B2B2596ECAEFDAE0EAF1FAF2597EBC4FB
:1009C000211431044104510471F461E070E080E0CD
:1009D00090E020E030E040E050E00E94740AC9015D
:1009E000DA011C012D0100E0201600E0300601E0D4
:1009F000400600E0500688F41FEF21163104410440
:100A0000510431F028F048E050E060E070E017C099
:100A100040E050E060E070E012C020E0221620E0EC
:100A2000320620E0420621E0520628F048E150E07C
:100A300060E070E004C040E150E060E070E0D201AE
:100A4000C101042E04C0B695A795979587950A9481
:100A5000D2F7885D9E4FDC012C91E0E2EE2EF12C66
:100A6000012D112DD801C701841B950BA60BB70BC7
:100A7000821B9109A109B1090097A105B10561F493
:100A800064015301A218B308C408D50831E0632EED
:100A9000712C812C912C24C1E3968FAFE397082E03
:100AA00004C0220C331C441C551C0A94D2F7EE2DB2
:100AB000E81B640153010E2E04C0D694C794B7946A
:100AC000A7940A94D2F7A4019301E3960FACE3979D
:100AD00004C0220F331F441F551F0A94D2F72196DA
:100AE0006CAC7DAC8EAC9FAC21970E2E04C096945E
:100AF0008794779467940A94D2F784017301E22A69
:100B0000F32A042B152BE9AEFAAE0BAF1CAF320162
:100B100088249924920181012070307061960CAF75
:100B20001DAF2EAF3FAF6197C601B501A401930180
:100B30000E94740A7B018C01C601B501A4019301D6
:100B40000E94740AC901DA0165968CAF9DAFAEAF01
:100B5000BFAF6597BC01CD0161962CAD3DAD4EADEB
:100B60005FAD61970E94550A9B01AC018701FF248C
:100B7000EE24A9ACBAACCBACDCACC601AA27BB272F
:100B80005C016D01AE28BF28C02AD12AA216B30687
:100B9000C406D50660F565966CAD7DAD8EAD9FAD96
:100BA0006597615070408040904065966CAF7DAF16
:100BB0008EAF9FAF6597A20CB31CC41CD51CA214AA
:100BC000B304C404D50498F0A216B306C406D5062F
:100BD00070F4615070408040904065966CAF7DAF7E
:100BE0008EAF9FAF6597A20CB31CC41CD51CA21A74
:100BF000B30AC40AD50AC601B501A40193010E9433
:100C0000740A7B018C01C601B501A40193010E9405
:100C1000740AC901DA013C014D01C401B3016196B6
:100C20002CAD3DAD4EAD5FAD61970E94550A9B0165
:100C3000AC018701FF24EE2489AD9AADABADBCAD0C
:100C4000A070B07057016801A82AB92ACA2ADB2A05
:100C5000A216B306C406D506E0F40894610871082C
:100C600081089108A20CB31CC41CD51CA214B304A7
:100C7000C404D50470F0A216B306C406D50648F421
:100C800008946108710881089108A20CB31CC41C67
:100C9000D51C21968CAD9DADAEADBFAD2197E39631
:100CA0000FACE39704C0880F991FAA1FBB1F0A94BB
:100CB000D2F721968CAF9DAFAEAFBFAF2197A21AEE
:100CC000B30AC40AD50A6596ECACFDAC0EAD1FADF7
:100CD0006597D70199278827682A792A8A2A9B2A23
:100CE00082012227332769960CAF1DAF2EAF3FAF8D
:100CF0006997A2019101407050706D962CAF3DAF85
:100D00004EAF5FAF6D97C601B50169962CAD3DAD95
:100D10004EAD5FAD69970E94740A7B018C01C601DC
:100D2000B50169962CAD3DAD4EAD5FAD69970E94A2
:100D3000740AC901DA01A1968CAF9DAFAEAFBFAF07
:100D4000A197BC01CD016D962CAD3DAD4EAD5FAD13
:100D50006D970E94550A9B01AC018701FF24EE2488
:100D60002196ACACBDACCEACDFAC2197C601AA27B6
:100D7000BB2757016801A82AB92ACA2ADB2AA2166A
:100D8000B306C406D50660F5A1966CAD7DAD8EADFB
:100D90009FADA1976150704080409040A1966CAF8C
:100DA0007DAF8EAF9FAFA197A20CB31CC41CD51C06
:100DB000A214B304C404D50498F0A216B306C40662
:100DC000D50670F46150704080409040A1966CAFA1
:100DD0007DAF8EAF9FAFA197A20CB31CC41CD51CD6
:100DE000A21AB30AC40AD50AC601B50169962CAD88
:100DF0003DAD4EAD5FAD69970E94740A7B018C01D9
:100E0000C601B50169962CAD3DAD4EAD5FAD69979C
:100E10000E94740AC901DA015C016D01C601B501C5
:100E20006D962CAD3DAD4EAD5FAD6D970E94550AF0
:100E30009B01AC018701FF24EE2421968CAD9DAD72
:100E4000AEADBFAD2197A070B070E82AF92A0A2B89
:100E50001B2BE216F30604071507C0F40894A1083B
:100E6000B108C108D108E20CF31C041D151DE214E1
:100E7000F3040405150550F0E216F3060407150700
:100E800028F40894A108B108C108D108A196ECACD7
:100E9000FDAC0EAD1FADA197D7019927882796010C
:100EA0008501082B192B2A2B3B2B25960CAF1DAF48
:100EB0002EAF3FAF259772C26E147F048006910655
:100EC00008F45FC220E0E21620E0F20621E002070B
:100ED00020E0120788F43FEFE316F1040105110545
:100EE00031F028F048E050E060E070E017C040E0EA
:100EF00050E060E070E012C040E0E41640E0F4062C
:100F000040E0040741E0140728F048E150E060E0C9
:100F100070E004C040E150E060E070E0D801C7013B
:100F2000042E04C0B695A795979587950A94D2F795
:100F3000885D9E4FDC012C9130E2A32EB12CC12C98
:100F4000D12CD601C501841B950BA60BB70B821BB8
:100F50009109A109B1090097A105B10599F4E61419
:100F6000F7040805190508F4FEC121966CAC7DACA8
:100F70008EAC9FAC2197621473048404950408F02E
:100F8000F2C1FFC1E2968FAFE297082E04C0EE0CCB
:100F9000FF1C001F111F0A94D2F76A2D681BD20193
:100FA000C101062E04C0B695A795979587950A941A
:100FB000D2F75C016D01AE28BF28C02AD12AADAAA4
:100FC000BEAACFAAD8AE72016101E2960FACE29739
:100FD00004C0CC0CDD1CEE1CFF1C0A94D2F7C9AA7D
:100FE000DAAAEBAAFCAA64015301062E04C0D69427
:100FF000C794B794A7940A94D2F7D401C301E29698
:101000000FACE29704C0880F991FAA1FBB1F0A9458
:10101000D2F72196ECACFDAC0EAD1FAD219704C00C
:1010200016950795F794E7946A95D2F7370148012A
:10103000682A792A8A2A9B2A6DA67EA68FA698AA54
:10104000EDA8FEA80FA918AD3801882499249801AD
:10105000870120703070A5960CAF1DAF2EAF3FAF4B
:10106000A597C601B501A40193010E94740A7B01F2
:101070008C01C601B501A40193010E94740AC90143
:10108000DA011C012D01C201B101A5962CAD3DADC7
:101090004EAD5FADA5970E94550A9B01AC0187013B
:1010A000FF24EE24ADA4BEA4CFA4D8A8C601AA27CD
:1010B000BB2757016801A82AB92ACA2ADB2AA21627
:1010C000B306C406D50600F5089421083108410886
:1010D0005108EDA8FEA80FA918ADAE0CBF1CC01E8C
:1010E000D11EAE14BF04C006D10670F0A216B3061E
:1010F000C406D50648F4089421083108410851086F
:10110000AE0CBF1CC01ED11EA21AB30AC40AD50A57
:10111000C601B501A40193010E94740A7B018C01F0
:10112000C601B501A40193010E94740AC901DA0144
:101130003C014D01C401B301A5962CAD3DAD4EADB2
:101140005FADA5970E94550A9B01AC018701FF2462
:10115000EE248DA59EA5AFA5B8A9A070B0705701CB
:101160006801A82AB92ACA2ADB2AA216B306C4062D
:10117000D50600F5089461087108810891086DA9E9
:101180007EA98FA998ADA60EB71EC81ED91EA61699
:10119000B706C806D90670F0A216B306C406D5066F
:1011A00048F408946108710881089108A60EB71EDA
:1011B000C81ED91ED601C501821B930BA40BB50B0B
:1011C00089A79AA7ABA7BCA7D10199278827640153
:1011D0005301A82AB92ACA2ADB2A2596ACAEBDAE8D
:1011E000CEAEDFAE2597860175012FEF3FEF40E0D1
:1011F00050E0E222F32204231523A6016627772775
:10120000AD964CAF5DAF6EAF7FAFAD97A9A8BAA852
:10121000CBA8DCA86FEF7FEF80E090E0A622B7229A
:10122000C822D92289A99AA9ABA9BCA91D01442425
:101230005524C801B701A60195010E94550AA99637
:101240006CAF7DAF8EAF9FAFA997C801B701A20168
:1012500091010E94550A3B014C01AD966CAD7DADEC
:101260008EAD9FADAD97A60195010E94550A7B01F9
:101270008C01AD966CAD7DAD8EAD9FADAD97A201ED
:1012800091010E94550A5B016C01A8019701260D8E
:10129000371D481D591DA9966CAC7DAC8EAC9FAC1A
:1012A000A997C401AA27BB27280F391F4A1F5B1F14
:1012B0002E153F054007510748F4E12CF12C61E061
:1012C000062F112DAE0CBF1CC01ED11ECA01AA27AD
:1012D000BB27BC01CD016A0D7B1D8C1D9D1D69A422
:1012E0007AA48BA49CA4661677068806990650F10A
:1012F000661577058805990509F04DC0D90199272C
:101300008827A9962CAD3DAD4EAD5FADA997407035
:101310005070820F931FA41FB51F21962CAD3DADB9
:101320004EAD5FAD2197E2960FACE29704C0220F5D
:10133000331F441F551F0A94D2F7281739074A074D
:101340005B0748F525960CAD1DAD2EAD3FAD25973D
:10135000015010402040304025960CAF1DAF2EAFFD
:101360003FAF259718C066247724430121E030E081
:1013700040E050E025962CAF3DAF4EAF5FAF2597D4
:101380000DC066247724430125961CAE1DAE1EAE0B
:101390001FAE259703C0662477244301FE01B19652
:1013A00088E0DF011D928A95E9F72596ACACBDACCB
:1013B000CEACDFAC2597A9A2BAA2CBA2DCA26DA2CB
:1013C0007EA28FA298A622962FAD22973AA14BA17A
:1013D0005CA1662D7EA1DFA098A5E196ECACFDACEA
:1013E0000EAD1FADE197E114F1040105110509F4FB
:1013F00056C0219581E0121608F080E03195E1E0B9
:10140000131608F0E0E0932E981A81E0391508F0E1
:1014100080E0E82B4195F1E0141608F0F0E0A42EEE
:10142000AE1A81E04A1508F080E0F82B5195E1E012
:10143000151608F0E0E0B52EBF1A81E05B1508F044
:1014400080E0E82B6195F1E0161608F0F0E0A62F99
:10145000AE1B81E06A1708F080E0F82B7195E1E09F
:10146000171608F0E0E0C72ECF1A81E07C1508F0CF
:1014700080E0E82B8D2D8195F1E0181608F0F0E062
:10148000D82EDE1AE1E08D1508F0E0E0FE2B892F62
:101490008195392DA5016A2F7C2D982F9F1B8D2DAD
:1014A000CE58DF4FE2E10C94B20A629FD001739FE5
:1014B000F001829FE00DF11D649FE00DF11D929FF0
:1014C000F00D839FF00D749FF00D659FF00D99272F
:1014D000729FB00DE11DF91F639FB00DE11DF91F53
:1014E000BD01CF0111240895A1E21A2EAA1BBB1B36
:1014F000FD010DC0AA1FBB1FEE1FFF1FA217B307E0
:10150000E407F50720F0A21BB30BE40BF50B661FF5
:10151000771F881F991F1A9469F7609570958095B9
:1015200090959B01AC01BD01CF0108952F923F9290
:101530004F925F926F927F928F929F92AF92BF92E3
:10154000CF92DF92EF92FF920F931F93CF93DF938F
:10155000CDB7DEB7CA1BDB0B0FB6F894DEBF0FBEEC
:10156000CDBF09942A88398848885F846E847D8439
:101570008C849B84AA84B984C884DF80EE80FD803B
:101580000C811B81AA81B981CE0FD11D0FB6F894B1
:10159000DEBF0FBECDBFED010895FB019F01E894B2
:1015A0004230C4F04532B4F44A3029F497FB1EF4BB
:1015B000909581959F4F642F77270E94FE0A805D4A
:1015C0008A330CF0895D8193CB010097A1F716F463
:1015D0005DE251931082C9010C94EE0ADC01FC011A
:1015E000672F71917723E1F7329704C07C916D9357
:1015F00070836291AE17BF07C8F30895AA1BBB1B87
:1016000051E107C0AA1FBB1FA617B70710F0A61B02
:10161000B70B881F991F5A95A9F780959095BC0123
:08162000CD010895F894FFCFFD
:101628000A696E697469616C697A656420756172AA
:101638007420210A00696E697469616C697A65644D
:101648002073706920210A000001020203030303CA
:10165800040404040404040405050505050505053A
:10166800050505050505050506060606060606061A
:101678000606060606060606060606060606060602
:1016880006060606060606060707070707070707EA
:1016980007070707070707070707070707070707D2
:1016A80007070707070707070707070707070707C2
:1016B80007070707070707070707070707070707B2
:1016C800070707070707070708080808080808089A
:1016D8000808080808080808080808080808080882
:1016E8000808080808080808080808080808080872
:1016F8000808080808080808080808080808080862
:101708000808080808080808080808080808080851
:101718000808080808080808080808080808080841
:101728000808080808080808080808080808080831
:101738000808080808080808080808080808080821
:08174800080808080808080859
:00000001FF
