:100000000C9434000C9446000C9446000C9446006A
:100010000C9446000C9446000C9446000C94460048
:100020000C9446000C9446000C9446000C94460038
:100030000C9446000C9446000C9446000C94460028
:100040000C949D000C9446000C948B000C9446007C
:100050000C9446000C9446000C9446000C94460008
:100060000C9446000C94460011241FBECFEFD8E03C
:10007000DEBFCDBF11E0A0E0B1E001C01D92A23013
:10008000B107E1F70E9466000C94BB000C940000DD
:1000900081E08093C5008FE98093C400E1ECF0E03B
:1000A000808188698083E2ECF0E0808186608083D3
:1000B0000895982F8091C00085FFFCCF9093C600D3
:1000C00008958091C0008091C6000895559A209AA5
:1000D000289A0E94480080916E00816080936E0093
:1000E000789485B5856085BD20E2809101018823E3
:1000F000E1F3909101018091C00085FFFCCF9093C6
:10010000C60080910101813619F48BB182278BB929
:1001100010920101EACF1F920F920FB60F92112495
:100120008F938091C0008091C600809301018F91D0
:100130000F900FBE0F901F9018951F920F920FB641
:100140000F9211248F93809100018F5F80930001A3
:1001500080910001853648F08091C00085FFFCCF7A
:1001600082E68093C600109200018F910F900FBE1F
:0A0170000F901F901895F894FFCF30
:00000001FF
