:100000000C9434000C9451000C9451000C94510049
:100010000C9451000C9451000C9451000C9451001C
:100020000C9451000C9451000C9451000C9451000C
:100030000C9451000C9451000C94D5010C94510077
:100040000C9451000C9451000C94BE010C9451007E
:100050000C9451000C9451000C9451000C945100DC
:100060000C9451000C94510011241FBECFEFD8E026
:10007000DEBFCDBF12E0A0E0B1E0E6EDF4E102C0EA
:1000800005900D92A033B107D9F712E0A0E3B2E0DA
:1000900001C01D92AD37B107E1F70E9417020C9421
:1000A000690A0C9400001092C5008FEC8093C40084
:1000B000E1ECF0E0808188698083E2ECF0E080810F
:1000C000866080830895982F8091C00085FFFCCFC3
:1000D0009093C6000895FC0107C08091C00085FF81
:1000E000FCCF31969093C60090811916B4F3089511
:1000F0008091C0008091C60008958CE284B981E5AA
:100100008CBD2A9A08958EBD0DB407FEFDCF8EB525
:1001100008952A988CE08EBD0DB407FEFDCF8EB5F4
:1001200080E88EBD0DB407FEFDCF2EB51EBC0DB40C
:1001300007FEFDCF8EB530E02F703070322F2227B2
:100140002A9A90E0282B392BC90108952A9889E032
:100150008EBD0DB407FEFDCF8EB580E88EBD0DB40B
:1001600007FEFDCF4EB51EBC0DB407FEFDCF2EB56C
:10017000842F90E08F709070982F882730E0822B2A
:10018000932B2A9A44FF05C022273327281B390BBB
:1001900001C09C01C9010895AF92BF92CF92DF9236
:1001A000EF92FF920F931F93CF93DF93282FC82FC7
:1001B000D0E0FE0184E0EE0FFF1F8A95E1F7E65CD8
:1001C000FD4FDE0104E0AA0FBB1F0A95E1F7A85C12
:1001D000BD4F8D919C9191838083222319F0213012
:1001E00059F403C00E94890002C00E94A6009093A7
:1001F00039028093380205C080913102816080937A
:100200003102FE0114E0EE0FFF1F1A95E1F7E05CEA
:10021000FD4FB4E0CC0FDD1FBA95E1F7ACE3CA2E79
:10022000A2E0DA2ECC0EDD1ED6016D917D918D916E
:100230009C9160837183828393832FEF30E040E051
:1002400050E00E949709E72EF82E092F112707FD8D
:100250001A95FE01E65CFD4FC85CDD4F688179812F
:1002600020813181621B730B882777FD8095982F41
:100270002FEF30E040E050E00E949709E60EF71EB5
:10028000081F191FF601E082F18202831383A090F8
:100290004402B0904502C0904602D090470256E01A
:1002A000D594C794B794A7945A95D1F7C601B501D0
:1002B000A60195010E94970920916502309166027E
:1002C0004091670250916802260F371F481F591F3F
:1002D0002093650230936602409367025093680250
:1002E000E0905402F090550200915602109157028E
:1002F00046E015950795F794E7944A95D1F7C8011C
:10030000B701A80197010E949709209169023091D5
:100310006A0240916B0250916C02260F371F481FF2
:10032000591F2093690230936A0240936B025093E5
:100330006C02C801B701A60195010E94970920919E
:100340006D0230916E0240916F0250917002260F43
:10035000371F481F591F20936D0230936E02409340
:100360006F0250937002DF91CF911F910F91FF9018
:10037000EF90DF90CF90BF90AF9008951F920F92B3
:100380000FB60F9211248F938091C0008091C60008
:1003900080936402809131028061809331028F9159
:1003A0000F900FBE0F901F9018951F920F920FB6CF
:1003B0000F9211242F933F934F935F936F937F93EB
:1003C0008F939F93AF93BF93EF93FF935E9A809128
:1003D000310282608093310280E00E94CC0081E093
:1003E0000E94CC00809130028F5F80933002809118
:1003F00030028F3F51F48091310288608093310246
:10040000809131028460809331025E98FF91EF9178
:10041000BF91AF919F918F917F916F915F914F911C
:100420003F912F910F900FBE0F901F9018959F92A4
:10043000AF92BF92CF92DF92EF92FF920F931F93F2
:100440008AB180668AB9209A289A0E94530080E077
:1004500091E00E946B008CE284B981E58CBD2A9A00
:1004600085E191E00E946B0084B5826084BD80913B
:100470006E00826080936E0086E087BD789485B5BB
:10048000856085BD90E2992E8091310280FF05C084
:10049000809131028E7F809331028091310281FF01
:1004A000CCC0809131028D7F80933102A1E7B2E010
:1004B000E5E6F2E08CE001900D928150E1F71092B8
:1004C0006502109266021092670210926802109202
:1004D000690210926A0210926B0210926C021092E2
:1004E0006D0210926E0210926F0210927002609173
:1004F00071027091720280917302909174020E9455
:10050000770620E030E040E85BE30E941D050E9492
:10051000470380E090E00E9429070E94F1097B01D7
:100520008C016091330270E0882777FD8095982FC9
:100530000E9477069B01AC01C801B7010E941D050E
:10054000609358027093590280935A0290935B0211
:100550006091750270917602809177029091780295
:100560000E94770620E030E040E85BE30E941D0532
:100570000E94470380E090E00E9429070E94F10951
:100580007B018C016091360270E0882777FD8095B1
:10059000982F0E9477065B016C01C801B701A60184
:1005A00095010E941D0560935C0270935D0280932B
:1005B0005E0290935F0220E030E040E050E00E9455
:1005C000470688236CF480E090E0A0E0B0E08093E0
:1005D000600290936102A0936202B09363022DC007
:1005E0006091790270917A0280917B0290917C02F5
:1005F0000E94770620E030E040E85BE30E941D05A2
:100600007B018C016091330270E0882777FD809533
:10061000982F0E9477069B01AC01C801B7010E9488
:100620001D05A60195010E941D056093600270934F
:10063000610280936202909363028091310282FF93
:1006400016C0809131028B7F8093310290916402B9
:100650008091C00085FFFCCF9093C600809164021A
:10066000813619F48BB189258BB91092640280917F
:10067000310290E083709070892B09F405CF80914E
:1006800031028C7F809331025D9A5D98FDCEEF92AE
:10069000FF920F931F937B018C0120E030E040E03C
:1006A0005FE40E94170688238CF0C801B70120E0A0
:1006B00030E040E05FE40E94BF040E94D5069B0149
:1006C000AC01205030404040504806C0C801B7013E
:1006D0000E94D5069B01AC01B901CA011F910F917F
:1006E000FF90EF900895A0E0B0E0E9E7F3E00C940C
:1006F000B609DC012B01FA019C91923008F439C152
:10070000EB018881823008F433C1943069F484307D
:1007100009F02FC111969C9111978981981709F4BE
:1007200028C1A8E2B1E025C1843009F421C182309A
:10073000A9F4923009F01DC19A01AD0188E0EA01E7
:100740000990AE01E90109929E018150C1F7E201D1
:10075000898111969C918923818308C1923009F483
:1007600007C112962D903C901397EB018A819B81D3
:100770001496AD90BD90CD90DC901797EC80FD80E5
:100780000E811F819101281B390BB90137FF04C06D
:1007900066277727621B730B603271050CF061C00E
:1007A000121613066CF537014801062E04C0969404
:1007B0008794779467940A94D2F721E030E040E080
:1007C00050E004C0220F331F441F551F6A95D2F713
:1007D00021503040404050402E213F2140235123A2
:1007E000211531054105510521F021E030E040E0BF
:1007F00050E079018A01E628F728082919293CC028
:10080000232BD1F1260E371E35014601062E04C0DA
:1008100096948794779467940A94D2F721E030E015
:1008200040E050E004C0220F331F441F551F6A955B
:10083000D2F721503040404050402A213B214C21EA
:100840005D21211531054105510521F021E030E000
:1008500040E050E059016A01A628B728C828D928E5
:100860000BC0821593052CF01C01AA24BB24650142
:1008700003C0EE24FF24870111969C91D2011196AA
:100880008C91981709F445C0992339F0A801970174
:100890002A193B094C095D0906C0A60195012E19CC
:1008A0003F09400B510B57FD08C011823382228251
:1008B00024833583468357831DC081E0818333823F
:1008C000228288279927DC01821B930BA40BB50B8E
:1008D00084839583A683B7830DC0220F331F441FE3
:1008E000551F2483358346835783828193810197E3
:1008F000938382832481358146815781DA01C9013E
:100900000197A109B1098F5F9F4FAF4FBF4328F3F4
:100910000BC0918333822282EA0CFB1C0C1D1D1D2F
:10092000E482F5820683178383E080832481358106
:100930004681578157FF1AC0C901AA2797FDA09584
:10094000BA2F81709070A070B0705695479537950A
:100950002795822B932BA42BB52B84839583A68379
:10096000B78382819381019693838283DF0101C0E3
:10097000D201CD01CDB7DEB7E2E10C94D209A0E2FD
:10098000B0E0E5ECF4E00C94C20969837A838B83D0
:100990009C832D833E834F835887E9E0EE2EF12C14
:1009A000EC0EFD1ECE010196B7010E94C6088E0115
:1009B0000F5E1F4FCE010596B8010E94C6088A89B6
:1009C00091E089278A8BC701B801AE01475E5F4F6E
:1009D0000E9473030E94F107A096E6E00C94DE09E2
:1009E000A0E2B0E0E6EFF4E00C94C20969837A83F8
:1009F0008B839C832D833E834F835887F9E0EF2EB2
:100A0000F12CEC0EFD1ECE010196B7010E94C60826
:100A10008E010F5E1F4FCE010596B8010E94C608D9
:100A2000C701B801AE01475E5F4F0E9473030E9489
:100A3000F107A096E6E00C94DE09A0E2B0E0E3E264
:100A4000F5E00C94B60969837A838B839C832D83AC
:100A50003E834F835887CE010196BE01675F7F4F6B
:100A60000E94C608CE010596BE016F5E7F4F0E94B0
:100A7000C6089985923088F089898230C8F0943010
:100A800019F4823051F404C0843029F4923081F496
:100A900088E291E0C6C0923049F420E09A858A89C4
:100AA000981321E02A87CE010996BBC0823049F411
:100AB00020E09A858A89981321E02A8BCE014196FD
:100AC000B0C02D843E844F8458886D887E888F887E
:100AD000988CEE24FF248701AA24BB24650140E002
:100AE00050E060E070E0E0E0F0E0C1018170907003
:100AF000892BE9F0E60CF71C081D191D9A01AB01C2
:100B00002A0D3B1D4C1D5D1D80E090E0A0E0B0E093
:100B1000E614F7040805190520F481E090E0A0E050
:100B2000B0E0BA01A901480F591F6A1F7B1FAA0C28
:100B3000BB1CCC1CDD1C97FE08C081E090E0A0E04F
:100B4000B0E0A82AB92ACA2ADB2A3196E032F10598
:100B500049F0660C771C881C991C5694479437946E
:100B60002794C3CFFA85EA892B893C898B859C859C
:100B7000280F391F2E5F3F4F17C0CA018170907038
:100B8000892B61F016950795F794E79480E090E043
:100B9000A0E0B0E8E82AF92A0A2B1B2B7695679586
:100BA000579547952F5F3F4F77FDE7CF0CC0440F18
:100BB000551F661F771F17FD4160EE0CFF1C001FBD
:100BC000111F21503040403090E0590790E06907F4
:100BD00090E4790760F32B8F3C8FDB01CA018F779C
:100BE0009070A070B07080349105A105B10561F4DA
:100BF00047FD0AC0E114F1040105110529F0405C2C
:100C00005F4F6F4F7F4F40781A8EFE1711F081E0D3
:100C10008A8F4D8F5E8F6F8F78A383E0898FCE018F
:100C200049960E94F107A096E2E10C94D209A8E14E
:100C3000B0E0EDE1F6E00C94C20969837A838B831E
:100C40009C832D833E834F83588789E0E82EF12CC7
:100C5000EC0EFD1ECE010196B7010E94C6088E0162
:100C60000F5E1F4FCE010596B8010E94C608898508
:100C7000823040F08989823028F0C701B8010E9493
:100C80003E0901C08FEF6896E6E00C94DE09A8E10A
:100C9000B0E0EDE4F6E00C94C20969837A838B83BB
:100CA0009C832D833E834F83588789E0E82EF12C67
:100CB000EC0EFD1ECE010196B7010E94C6088E0102
:100CC0000F5E1F4FCE010596B8010E94C6088985A8
:100CD000823040F08989823028F0C701B8010E9433
:100CE0003E0901C081E06896E6E00C94DE09A8E0C8
:100CF000B0E0EDE7F6E00C94BF099B01AC0183E0A6
:100D00008983DA01C9018827B7FD83959927AA2726
:100D1000BB27B82E211531054105510519F482E094
:100D200089833AC08823A9F0203080E0380780E02A
:100D3000480780E8580729F460E070E080E09FEC05
:100D400030C0EE24FF248701E21AF30A040B150BCE
:100D500002C079018A018EE1C82ED12CDC82CB82BF
:100D6000ED82FE820F831887C801B7010E94A20797
:100D700001971816190684F4082E04C0EE0CFF1C07
:100D8000001F111F0A94D2F7ED82FE820F8318878D
:100D9000C81AD90ADC82CB82BA82CE0101960E949F
:100DA000F1072896E9E00C94DB09ACE0B0E0EBED4C
:100DB000F6E00C94C60969837A838B839C83CE0109
:100DC0000196BE016B5F7F4F0E94C6088D81823005
:100DD00061F1823050F1843021F48E81882351F109
:100DE0002EC02F81388537FD20C06E812F3131050F
:100DF0001CF06623F9F023C08EE190E0821B930B78
:100E000029853A854B855C8504C05695479537956D
:100E100027958A95D2F76623B1F050954095309585
:100E200021953F4F4F4F5F4F0EC020E030E040E034
:100E300050E009C02FEF3FEF4FEF5FE704C020E025
:100E400030E040E050E8B901CA012C96E2E00C9491
:100E5000E209A8E0B0E0EFE2F7E00C94BE097B0104
:100E60008C01611571058105910519F482E0898372
:100E700060C083E089838EE1C82ED12CDC82CB82D6
:100E8000ED82FE820F831887C801B7010E94A20776
:100E9000FC013197F7FF3BC0222733272E1B3F0B66
:100EA00057016801022E04C0D694C794B794A79442
:100EB0000A94D2F740E050E060E070E081E090E01A
:100EC000A0E0B0E004C0880F991FAA1FBB1F2A959D
:100ED000D2F70197A109B1098E219F21A023B12347
:100EE0000097A105B10521F041E050E060E070E01D
:100EF0004A295B296C297D294D835E836F8378871E
:100F00008EE190E08E1B9F0B9C838B8312C03097E9
:100F100081F00E2E04C0EE0CFF1C001F111F0A945E
:100F2000D2F7ED82FE820F831887CE1ADF0ADC82A9
:100F3000CB821A82CE0101960E94F1072896EAE040
:100F40000C94DA09EF92FF920F931F937B018C01AF
:100F500080E0E81680E0F80681E0080780E01807E6
:100F600088F48FEFE816F1040105110531F028F03F
:100F700088E090E0A0E0B0E017C080E090E0A0E062
:100F8000B0E012C080E0E81680E0F80680E00807D4
:100F900081E0180728F088E190E0A0E0B0E004C00C
:100FA00080E190E0A0E0B0E020E230E040E050E0FE
:100FB000281B390B4A0B5B0B04C016950795F79459
:100FC000E7948A95D2F7F701E05DFE4F8081281BF8
:100FD000310941095109C9011F910F91FF90EF900B
:100FE0000895DF92EF92FF920F931F93FC01E4802C
:100FF000F58006811781D1808081823048F480E0BD
:1010000090E0A0E1B0E0E82AF92A0A2B1B2BA5C04A
:10101000843009F49FC0823021F4EE24FF2487013C
:1010200005C0E114F1040105110519F4E0E0F0E058
:1010300096C0628173819FEF623879070CF05BC0C4
:1010400022E83FEF261B370B2A3131052CF020E038
:1010500030E040E050E02AC0B801A701022E04C0F1
:1010600076956795579547950A94D2F781E090E079
:10107000A0E0B0E004C0880F991FAA1FBB1F2A95EB
:10108000D2F70197A109B1098E219F21A023B12395
:101090000097A105B10521F081E090E0A0E0B0E06B
:1010A0009A01AB01282B392B4A2B5B2BDA01C901A2
:1010B0008F779070A070B07080349105A105B10554
:1010C00039F427FF09C0205C3F4F4F4F5F4F04C0EA
:1010D000215C3F4F4F4F5F4FE0E0F0E02030A0E059
:1010E0003A07A0E04A07A0E45A0710F0E1E0F0E078
:1010F00079018A0127C06038710564F5FB01E15868
:10110000FF4FD801C7018F779070A070B070803406
:101110009105A105B10539F4E7FE0DC080E490E02A
:10112000A0E0B0E004C08FE390E0A0E0B0E0E80E03
:10113000F91E0A1F1B1F17FF05C016950795F79488
:10114000E794319687E016950795F794E7948A958A
:10115000D1F705C0EE24FF248701EFEFF0E06E2FFA
:10116000679566276795902F9F77D794DD24D7944E
:101170008E2F8695492F462B582F5D29B701CA011E
:101180001F910F91FF90EF90DF900895FC01DB011C
:10119000408151812281622F6F7770E0221F2227C8
:1011A000221F9381892F880F822B282F30E0991FCF
:1011B0009927991F11969C93119721153105A9F52F
:1011C000411551056105710511F482E037C082E8CF
:1011D0009FEF13969C938E9312979A01AB0167E051
:1011E000220F331F441F551F6A95D1F783E08C935C
:1011F0000DC0220F331F441F551F12968D919C91D5
:101200001397019713969C938E931297203080E04A
:10121000380780E0480780E4580758F314962D9368
:101220003D934D935C93179708952F3F310579F4C3
:10123000411551056105710519F484E08C930895F9
:1012400064FF03C081E08C9312C01C9210C02F5722
:10125000304013963C932E93129783E08C9387E053
:10126000440F551F661F771F8A95D1F77064149637
:101270004D935D936D937C93179708951F93DC01B5
:10128000FB019C91923008F447C08081823008F4C1
:1012900043C0943051F411961C91843099F58181AA
:1012A000682F70E0611B71093FC0843021F09230DB
:1012B00031F48230B9F18181882389F12DC01196F2
:1012C0001C9111978230F1F081811817D9F4129690
:1012D0002D913C911397828193818217930794F00B
:1012E00028173907BCF014968D919D910D90BC91F3
:1012F000A02D2481358146815781281739074A0757
:101300005B0718F4112341F00AC082179307A40762
:10131000B50740F4112319F061E070E005C06FEFEC
:101320007FEF02C060E070E0CB011F910895629FE3
:10133000D001739FF001829FE00DF11D649FE00DCD
:10134000F11D929FF00D839FF00D749FF00D659F2E
:10135000F00D9927729FB00DE11DF91F639FB00D2D
:10136000E11DF91FBD01CF01112408952F923F9275
:101370004F925F926F927F928F929F92AF92BF92A5
:10138000CF92DF92EF92FF920F931F93CF93DF9351
:10139000CDB7DEB7CA1BDB0B0FB6F894DEBF0FBEAE
:1013A000CDBF09942A88398848885F846E847D84FB
:1013B0008C849B84AA84B984C884DF80EE80FD80FD
:1013C0000C811B81AA81B981CE0FD11D0FB6F89473
:1013D000DEBF0FBECDBFED01089511F40EF44DC078
:1013E0003EC05DD0D0F39923D9F3CEF39F57550B70
:1013F00087FF46D00024A0E640EA90018058569529
:10140000979528F4805C660F771F881F20F02617B9
:101410003707480730F4621B730B840B20293129EE
:101420004A2BA69517940794202531254A2758F76B
:10143000660F771F881F20F026173707480730F4FC
:10144000620B730B840B200D311D411DA09581F79C
:10145000B901842F9158880F9695879508959F3FDD
:1014600031F0915020F4879577956795B795880F5F
:10147000911D9695879597F908959FEF80EC0895B3
:1014800091505040660F771F881FD2F7089557FD7F
:101490009058440F551F59F05F3F71F04795880FE2
:1014A00097FB991F61F09F3F79F087950895121679
:1014B00013061406551FF2CF4695F1DF08C0161625
:1014C00017061806991FF1CF8695710561050894D6
:0614D0000895F894FFCF1F
:1014D6000A696E697469616C697A656420756172FE
:1014E6007420210A00696E697469616C697A6564A1
:1014F6002073706920210A0000000000000000002F
:1015060000010202030303030404040404040404A4
:101516000505050505050505050505050505050575
:101526000606060606060606060606060606060655
:101536000606060606060606060606060606060645
:101546000707070707070707070707070707070725
:101556000707070707070707070707070707070715
:101566000707070707070707070707070707070705
:1015760007070707070707070707070707070707F5
:1015860008080808080808080808080808080808D5
:1015960008080808080808080808080808080808C5
:1015A60008080808080808080808080808080808B5
:1015B60008080808080808080808080808080808A5
:1015C6000808080808080808080808080808080895
:1015D6000808080808080808080808080808080885
:1015E6000808080808080808080808080808080875
:1015F6000808080808080808080808080808080865
:00000001FF
