:100000000EC01DC01CC01BC01AC019C018C017C02C
:1000100016C015C014C013C012C011C010C01124E6
:100020001FBECFE5D1E0DEBFCDBF10E0A0E6B0E05F
:1000300001C01D92A236B107E1F78BD0C7C0E0CF57
:100040008EB98BE293E09A95F1F700008DB9B29BDF
:10005000FECF92E09A95F1F78DB9769BF3CF83E0CE
:100060008A95F1F700008FB10895CF92DF92EF9259
:10007000FF920F931F93CF93DF93EC01162F1092F3
:10008000610010926000C29AB29BFECF82E08A9516
:10009000F1F7B89ABA9AC09882E08A95F1F7C298B7
:1000A00083E08A95F1F70000C09A82E0E82EF12CF7
:1000B000CC24C394D12C0FEF80916000909161000B
:1000C0008130910581F018F00297E9F028C088810D
:1000D00080FD05C0D0926100C092600004C0F09223
:1000E0006100E0926000C29889918FB980EFA8DF2B
:1000F000B8988EEFA5DF80FF04C0C29AC09A80E056
:100100001FC0B89A0CC0B89880EF9ADF8993B89A4C
:10011000113011F40FB901C01FB88EEF91DF1150EB
:1001200059F6C09883E08A95F1F70000BA98B29B1F
:10013000FECF82E08A95F1F7B898B09BFECF81E0C0
:10014000DF91CF911F910F91FF90EF90DF90CF90B3
:100150000895CF93DF93CDB7DEB76D970FB6F894C0
:10016000DEBF0FBECDBFB99A80ED89838BE68A834F
:100170001B8263E0CE01019678DF2FE188E491E0F5
:10018000215080409040E1F700C0000010ED0BE3EB
:1001900081EDF82E19830A8362E0CE01019665DFB6
:1001A000F9826FE0CE01019660DF882341F08889F3
:1001B000998981349F4114F0C19A01C0C19887EB9D
:1001C0009BE00197F1F700C00000E4CFF894FFCF67
:00000001FF
