:100000000C9462000C948A000C948A000C948A0070
:100010000C948A000C948A000C948A000C948A0038
:100020000C948A000C948A000C948A000C948A0028
:100030000C948A000C948A000C948A000C948A0018
:100040000C9404030C948A000C94D2020C94AC021D
:100050000C948A000C948A000C948A000C948A00F8
:100060000C948A000C948A000000000024002700F1
:100070002A0000000000250028002B0000000000DE
:1000800023002600290004040404040404040202DA
:100090000202020203030303030301020408102007
:1000A0004080010204081020010204081020000012
:1000B0000008000201000003040700000000000027
:1000C00000004E0311241FBECFEFD8E0DEBFCDBF2E
:1000D00011E0A0E0B1E0E8E4FCE002C005900D9280
:1000E000AC36B107D9F722E0ACE6B1E001C01D9211
:1000F000AE34B207E1F710E0C2E6D0E004C02197C9
:10010000FE010E941C06C136D107C9F70E943A04BD
:100110000C9422060C940000AF92BF92CF92DF9213
:10012000EF92FF920F931F93CF93DF936C017B01AC
:100130008B01040F151FEB015E01AE18BF08C0173D
:10014000D10759F06991D601ED91FC910190F081B0
:10015000E02DC6010995892B79F7C501DF91CF9173
:100160001F910F91FF90EF90DF90CF90BF90AF90D5
:100170000895FC01538D448D252F30E0842F90E0AD
:10018000821B930B541710F0CF9608950197089592
:10019000FC01918D828D981761F0A28DAE0FBF2F5B
:1001A000B11D5D968C91928D9F5F9F73928F90E0B1
:1001B00008958FEF9FEF0895FC01918D828D981720
:1001C00031F0828DE80FF11D858D90E008958FEF5D
:1001D0009FEF0895FC01918D228D892F90E0805C26
:1001E0009F4F821B91098F739927089582E791E0B1
:1001F0000E94EA0021E0892B09F420E0822F089573
:1002000080E090E0892B29F00E94F60081110C9487
:1002100000000895FC01A48DA80FB92FB11DA35AA9
:10022000BF4F2C91848D90E001968F739927848F16
:10023000A689B7892C93A089B1898C918370806439
:100240008C93938D848D981306C00288F389E02DDA
:1002500080818F7D80830895EF92FF920F931F938B
:10026000CF93DF93EC0181E0888F9B8D8C8D981369
:100270001AC0E889F989808185FF15C09FB7F89475
:10028000EE89FF896083E889F989808183708064C1
:1002900080839FBF81E090E0DF91CF911F910F910C
:1002A000FF90EF900895F62E0B8D10E00F5F1F4F1B
:1002B0000F731127E02E8C8D8E110CC00FB607FC2A
:1002C000FACFE889F989808185FFF5CFCE010E94B8
:1002D0000A01F1CFEB8DEC0FFD2FF11DE35AFF4F1B
:1002E000F0829FB7F8940B8FEA89FB898081806246
:1002F000CFCFCF93DF93EC01888D8823B9F0AA8903
:10030000BB89E889F9898C9185FD03C0808186FDD0
:100310000DC00FB607FCF7CF8C9185FFF2CF80811F
:1003200085FFEDCFCE010E940A01E9CFDF91CF9189
:100330000895833081F028F4813099F08230A9F05B
:1003400008958730A9F08830C9F08430B1F48091E5
:1003500080008F7D03C0809180008F778093800024
:10036000089584B58F7784BD089584B58F7DFBCFC4
:100370008091B0008F778093B00008958091B00095
:100380008F7DF9CFCF93DF93282F30E0F901E2552D
:10039000FF4F8491F901E656FF4FD491F901EA57D6
:1003A000FF4FC491CC23A1F081110E949901EC2F41
:1003B000F0E0EE0FFF1FE458FF4FA591B491EC91D0
:1003C000ED2381E090E009F480E0DF91CF91089582
:1003D00080E090E0FACF1F93CF93DF93282F30E097
:1003E000F901E255FF4F8491F901E656FF4FD49190
:1003F000F901EA57FF4FC491CC23A9F0162F8111C0
:100400000E949901EC2FF0E0EE0FFF1FEE58FF4F16
:10041000A591B4918FB7F894EC91111108C0D095C3
:10042000DE23DC938FBFDF91CF911F910895DE2BE8
:10043000F8CFCF93DF9390E0FC01E656FF4F249175
:100440008A579F4FFC0184918823C9F090E0880F60
:10045000991FFC01E859FF4FA591B491FC01EE589A
:10046000FF4FC591D49161110DC09FB7F8948C9145
:10047000209582238C938881282328839FBFDF9136
:10048000CF910895623051F49FB7F8943C91822F38
:10049000809583238C93E8812E2BEFCF8FB7F89430
:1004A000EC912E2B2C938FBFEACFFC011782168282
:1004B000158214820895862F0C94C2013FB7F894D8
:1004C00080916C0190916D01A0916E01B0916F01CE
:1004D00026B5A89B05C02F3F19F00196A11DB11D9F
:1004E0003FBFBA2FA92F982F8827BC01CD01620FDB
:1004F000711D811D911D42E0660F771F881F991F96
:100500004A95D1F708952FB7F8946091230270911E
:10051000240280912502909126022FBF0895CF9347
:10052000DF93FC0101900020E9F73197AF01481BF0
:10053000590BBC0182E791E00E948C00EC0142E083
:1005400050E060E271E082E791E00E948C008C0F45
:100550009D1FDF91CF9108951F920F920FB60F92BA
:1005600011242F933F934F935F936F937F938F93B8
:100570009F93AF93BF93EF93FF9382E791E00E9425
:100580000A01FF91EF91BF91AF919F918F917F9160
:100590006F915F914F913F912F910F900FBE0F90F0
:1005A0001F9018951F920F920FB60F9211242F9340
:1005B0008F939F93EF93FF93E0918201F0918301DA
:1005C0008081E0918801F091890182FD1BC09081BA
:1005D00080918B018F5F8F7320918C01821741F086
:1005E000E0918B01F0E0EE58FE4F958F80938B01E8
:1005F000FF91EF919F918F912F910F900FBE0F90D0
:100600001F9018958081F4CF1F920F920FB60F9212
:1006100011242F933F938F939F93AF93BF93809118
:10062000230290912402A0912502B09126023091DC
:10063000700123E0230F2D3758F50196A11DB11D40
:10064000209370018093230290932402A0932502AB
:10065000B093260280916C0190916D01A0916E0182
:10066000B0916F010196A11DB11D80936C01909313
:100670006D01A0936E01B0936F01BF91AF919F91F7
:100680008F913F912F910F900FBE0F901F90189553
:1006900026E8230F0296A11DB11DD2CF109275013D
:1006A0001092740188EE93E0A0E0B0E080937601B0
:1006B00090937701A0937801B093790186E091E05F
:1006C000909373018093720185EC90E090937F0189
:1006D00080937E0184EC90E090938101809380016F
:1006E00080EC90E0909383018093820181EC90E014
:1006F000909385018093840182EC90E09093870130
:100700008093860186EC90E0909389018093880124
:1007100010928B0110928C0110928D0110928E011B
:1007200088E191E09093100280930F0210921202E0
:1007300010921102109214021092130210921602DB
:100740001092150284E190E09093180280931702B2
:1007500088EC90E090931A028093190220E931E02E
:1007600030931C0220931B0228EE33E030931E02CC
:1007700020931D023093200220931F0290932202A7
:100780008093210221E02093270222E030E0309381
:100790003C0220933B0290933E0280933D021092D4
:1007A0003F02109240021092410284E690E0909342
:1007B000470280934602109248021092490210921A
:1007C0004A0210924B0210924C0210924D028CE0A1
:1007D000809328028DE0809329028BE080932A0287
:1007E0002FB7F8948091230290912402A0912502C2
:1007F000B09126022FBF80932B0290932C02A093DE
:100800002D02B0932E0280932F0290933002A0937A
:100810003102B09332028093330290933402A0935A
:100820003502B09336028093420290934302A09324
:100830004402B093450280912702813079F462E04E
:10084000809128020E94190262E0809129020E9490
:10085000190262E080912A020C94190260E08091F2
:1008600028020E94190260E0809129020E94190268
:1008700060E0F0CF789484B5826084BD84B58160F7
:1008800084BD85B5826085BD85B5816085BD80915B
:100890006E00816080936E001092810080918100D3
:1008A00082608093810080918100816080938100CB
:1008B000809180008160809380008091B10084608D
:1008C0008093B1008091B00081608093B0008091EE
:1008D0007A00846080937A0080917A0082608093AD
:1008E0007A0080917A00816080937A0080917A000A
:1008F000806880937A001092C100E0918201F091AB
:10090000830182E08083E0917E01F0917F0110827B
:10091000E0918001F091810180E1808310928A0151
:10092000E0918601F091870186E08083E091840167
:10093000F0918501808180618083E0918401F09154
:100940008501808188608083E0918401F091850138
:10095000808180688083E0918401F09185018081AD
:100960008F7D808360E08CE00E94190260E08DE062
:100970000E94190260E08BE00E94190260E08EE0A4
:100980000E94190260E08FE00E94190261E089E094
:100990000E94190261E08AE00E94190261E080E190
:1009A0000E94190261E081E10E94190260E089E081
:1009B0000E94EB0160E08AE00E94EB0160E080E1D0
:1009C0000E94EB0161E081E10E94EB0183E291E092
:1009D0000E948F0211E0C0E0D0E08FE00E94C201CF
:1009E000209100012817190689F021272093000182
:1009F00021110CC08DE391E00E948F026091710182
:100A000061276093710181E10E94EB018EE00E94F9
:100A1000C201209101012817190649F021272093CE
:100A20000101211104C08CE491E00E948F028FB774
:100A3000F894409123025091240260912502709114
:100A400026028FBF40932B0250932C0260932D02FD
:100A500070932E0220913B0230913C0280912F0234
:100A600090913002A0913102B0913202820F931F17
:100A7000A11DB11D481759076A077B0708F463C019
:100A8000809128020E94C2013091270221E038178C
:100A9000190609F020E020934902809129020E9462
:100AA000C201FC012091270230E081E0E217F30748
:100AB00009F080E080934A029091490240912B0214
:100AC00050912C0260912D0270912E029111AAC0BA
:100AD00080914C02882309F4A5C082E0E217F30755
:100AE00009F481E02091460230914702C090420211
:100AF000D0904302E0904402F0904502C20ED31E13
:100B0000E11CF11C4C155D056E057F0508F087C0E2
:100B10008091480240934202509343026093440202
:100B20007093450290934C0240932F0250933002F1
:100B30006093310270933202813009F075C08BE509
:100B400091E00E948F022FB7F89480912302909138
:100B50002402A0912502B09126022FBF80932B0280
:100B600090932C02A0932D02B0932E0280912A0222
:100B70000E94C201FC012091270230E091E0E217BF
:100B8000F30709F090E090934B0240912B025091B3
:100B90002C0260912D0270912E02A0913D02B09125
:100BA0003E02C0903302D0903402E0903502F090C3
:100BB0003602CA0EDB1EE11CF11C4C155D056E05EC
:100BC0007F0510F1E217F307A9F180914D02882308
:100BD00089F110923F02409337025093380260939C
:100BE000390270933A0281E090934D0240933302B0
:100BF000509334026093350270933602882321F0BB
:100C000085E691E00E948F02209709F4E6CE0E94CB
:100C1000F600882309F4E1CE0E940000DECE809326
:100C2000480278CF80E07ECF823009F08CCF80E61A
:100C300091E087CF80E0D8CFEE0FFF1F0590F491B1
:080C4000E02D0994F894FFCFA8
:100C48000101000000002C018C00B9007901EA00C4
:100C5800C800DC000000000083025E025B0255024F
:100C68000D0A00456C656374726F6E6963204C6F82
:100C78006164205374617274656420210042544E8B
:100C880031207072657373656420210042544E30C0
:100C980020707265737365642021004E6578740056
:0C0CA8005072657600456E7465720000A5
:107800000C94343C0C94513C0C94513C0C94513CE1
:107810000C94513C0C94513C0C94513C0C94513CB4
:107820000C94513C0C94513C0C94513C0C94513CA4
:107830000C94513C0C94513C0C94513C0C94513C94
:107840000C94513C0C94513C0C94513C0C94513C84
:107850000C94513C0C94513C0C94513C0C94513C74
:107860000C94513C0C94513C11241FBECFEFD8E036
:10787000DEBFCDBF11E0A0E0B1E0ECE9FFE702C060
:1078800005900D92A230B107D9F712E0A2E0B1E065
:1078900001C01D92AD30B107E1F70E942D3D0C945F
:1078A000CC3F0C94003C982F959595959595959582
:1078B000905D8F708A307CF0282F295A8091C0000B
:1078C00085FFFCCF9093C6008091C00085FFFCCF60
:1078D0002093C6000895282F205DF0CF982F809127
:1078E000C00085FFFCCF9093C6000895EF92FF92F1
:1078F0000F931F93EE24FF2487018091C00087FD22
:1079000017C00894E11CF11C011D111D81E4E8164B
:1079100082E4F8068FE0080780E0180770F3E09132
:107920000401F091050109958091C00087FFE9CF1E
:107930008091C6001F910F91FF90EF9008950E94D3
:10794000763C982F8091C00085FFFCCF9093C600B5
:1079500091362CF490330CF09053892F089597555D
:10796000892F08951F930E949F3C182F0E949F3CCF
:107970001295107F810F1F9108951F93182F882350
:1079800021F00E94763C1150E1F71F9108951F935A
:10799000182F0E94763C803249F0809103018F5F5E
:1079A000809303018530C1F01F9108958091C0003C
:1079B00085FFFCCF84E18093C6008091C00085FFE5
:1079C000FCCF1093C6008091C00085FFFCCF80E102
:1079D0008093C6001F910895E0910401F091050184
:1079E00009951F9108950E94763C803241F0809164
:1079F00003018F5F80930301853081F008958091AA
:107A0000C00085FFFCCF84E18093C6008091C00058
:107A100085FFFCCF80E18093C6000895E0910401CA
:107A2000F09105010995089540E951E08823A1F0FE
:107A30002D9A28EE33E0FA013197F1F721503040CA
:107A4000D1F72D9828EE33E0FA013197F1F7215064
:107A50003040D1F7815061F708953F924F925F9285
:107A60006F927F928F929F92AF92BF92CF92DF924E
:107A7000EF92FF920F931F93CF93DF93000080E16B
:107A80008093C4001092C50088E18093C10086E015
:107A90008093C2005098589A259A81E00E94143D24
:107AA00024E1F22E9EE1E92E85E9D82E0FE0C02ECA
:107AB00010E1B12EAA24A394B1E49B2EA6E58A2E50
:107AC000F2E57F2EE0E26E2E79E4572E63E5462E36
:107AD00050E5352E0E94763C8033B1F18133B9F107
:107AE000803409F46FC0813409F476C0823409F41B
:107AF00085C0853409F488C0803531F1823521F1A3
:107B0000813511F1853509F485C0863509F48DC0BC
:107B1000843609F496C0843709F403C1853709F423
:107B200072C1863709F466C0809103018F5F80932C
:107B30000301853079F6E0910401F0910501099582
:107B40000E94763C803351F60E94F33CC3CF0E94E2
:107B5000763C803249F78091C00085FFFCCFF092DF
:107B6000C6008091C00085FFFCCF9092C600809136
:107B7000C00085FFFCCF8092C6008091C00085FFC9
:107B8000FCCF7092C6008091C00085FFFCCF609250
:107B9000C6008091C00085FFFCCF5092C600809146
:107BA000C00085FFFCCF4092C6008091C00085FFD9
:107BB000FCCF3092C6008091C00085FFFCCFB09210
:107BC000C60088CF0E94763C863808F4BDCF0E945C
:107BD000763C0E94F33C7ECF0E94763C803809F4CC
:107BE0009CC0813809F40BC1823809F43CC1883942
:107BF00009F48FC080E00E94C73C6CCF84E10E94F2
:107C0000BD3C0E94F33C66CF85E00E94BD3C0E94D3
:107C1000F33C60CF0E94763C809306010E94763C44
:107C2000809307010E94F33C55CF0E94763C80333D
:107C300009F41DC183E00E94BD3C80E00E94C73C66
:107C400049CF0E94763C809309020E94763C809343
:107C5000080280910C028E7F80930C020E94763C79
:107C6000853409F415C18091080290910902892B8D
:107C700089F000E010E00E94763CF801E85FFE4FDA
:107C800080830F5F1F4F80910802909109020817AF
:107C9000190788F30E94763C803209F045CF809125
:107CA0000C0280FF01C16091060170910701660F0F
:107CB000771F7093070160930601A0910802B091AD
:107CC00009021097C9F0E8E0F1E09B01AD014E0F09
:107CD0005F1FF999FECF32BD21BD819180BDFA9A17
:107CE000F99A2F5F3F4FE417F50799F76A0F7B1F4B
:107CF00070930701609306018091C00085FFFCCF5F
:107D0000F092C6008091C00085FFFCCFB092C60003
:107D1000E1CE83E00E94C73CDDCE82E00E94C73CFA
:107D2000D9CE0E94763C809309020E94763C8093D3
:107D300008028091060190910701880F991F909386
:107D40000701809306010E94763C853409F4A6C0A1
:107D500080910C028E7F80930C020E94763C8032D0
:107D600009F0B8CE8091C00085FFFCCFF092C6002C
:107D7000609108027091090261157105B9F140E046
:107D800050E080910C02A82FA170B82FB27011C0E2
:107D9000BB2309F45CC0E0910601F0910701319624
:107DA000F0930701E09306014F5F5F4F46175707B7
:107DB000E8F4AA2369F3F999FECF209106013091E6
:107DC000070132BD21BDF89A90B58091C00085FFB2
:107DD000FCCF9093C6002F5F3F4F30930701209355
:107DE00006014F5F5F4F4617570718F38091C00099
:107DF00085FDE5CE8091C00085FFF8CFE0CE81E023
:107E00000E94C73C67CE0E94763C803209F08CCE3F
:107E10008091C00085FFFCCFF092C6008091C00029
:107E200085FFFCCFE092C6008091C00085FFFCCFAB
:107E3000D092C6008091C00085FFFCCFC092C600E2
:107E40008091C00085FFFCCFB092C60043CEE09188
:107E50000601F091070194918091C00085FFFCCF4D
:107E60009093C6009CCF80E10E94C73C33CE0E9415
:107E7000763C0E94763C182F0E94763C112309F430
:107E800083C0113009F484C08FE00E94C73C22CE29
:107E900080910C02816080930C02E5CE80910C02EF
:107EA000816080930C0259CF809107018823880F4D
:107EB000880B8A2180930B02809106019091070123
:107EC000880F991F90930701809306018091080203
:107ED00080FF09C080910802909109020196909359
:107EE000090280930802F894F999FECF1127E091D6
:107EF0000601F0910701C8E0D1E08091080290915D
:107F00000902103091F40091570001700130D9F34B
:107F100003E000935700E89500915700017001308D
:107F2000D9F301E100935700E89509901990009169
:107F3000570001700130D9F301E000935700E89534
:107F40001395103498F011270091570001700130FB
:107F5000D9F305E000935700E895009157000170B0
:107F60000130D9F301E100935700E895329602976A
:107F700009F0C7CF103011F00296E5CF112480919F
:107F8000C00085FFB9CEBCCE8EE10E94C73CA2CD19
:0C7F900085E90E94C73C9ECDF894FFCF0D
:027F9C00800063
:040000030000780081
:00000001FF
