:100000000C94B5000C94D2000C94D2000C94D20045
:100010000C94D2000C94D2000C94D2000C94D20018
:100020000C94D2000C94D2000C94D2000C94D20008
:100030000C94D2000C94D2000C943D0F0C94D2007E
:100040000C94D2000C94D2000C940C0F0C94D2009F
:100050000C94D2000C94D2000C94D2000C94D200D8
:100060000C94D2000C94D2006E616E00696E660032
:1000700000407A10F35A00A0724E18090010A5D45F
:10008000E80000E87648170000E40B54020000CABC
:100090009A3B000000E1F505000080969800000002
:1000A00040420F000000A086010000001027000061
:1000B0000000E803000000006400000000000A00E7
:1000C000000000000100000000002C76D888DC67EA
:1000D0004F0823DFC1DFAE59E1B1B796E5E3E45342
:1000E000C63AE651997696E8E6C28426EB898C9B5F
:1000F00062ED407C6FFCEFBC9C9F40F2BAA56FA5FF
:10010000F490055A2AF75C936B6CF9676DC11BFC80
:10011000E0E40D47FEF520E6B500D0ED902E03009B
:10012000943577050080841E080000204E0A0000E8
:1001300000C80C333333330F986E12831141EF8DA7
:100140002114893BE65516CFFEE6DB18D1844B38E7
:100150001BF77C1D901DA4BBE424203284725E2218
:100160008100C9F124ECA1E53D2711241FBECFEF8A
:10017000D8E0DEBFCDBF12E0A0E0B1E0E0E3F5E201
:1001800002C005900D92AE33B107D9F716E0AEE389
:10019000B2E001C01D92A938B107E1F70E94EA0C54
:1001A0000C9496120C940000EF92FF920F931F9301
:1001B0007B018C0120E030E040E05FE40E94A4037A
:1001C00088238CF0C801B70120E030E040E05FE414
:1001D0000E944C020E9462049B01AC0120503040FE
:1001E0004040504806C0C801B7010E9462049B010C
:1001F000AC01B901CA011F910F91FF90EF900895D2
:10020000A0E0B0E0E6E0F1E00C944710DC012B0147
:10021000FA019C91923008F439C1EB018881823057
:1002200008F433C1943069F4843009F02FC1119679
:100230009C9111978981981709F428C1A0E3B1E036
:1002400025C1843009F421C18230A9F4923009F02B
:100250001DC19A01AD0188E0EA010990AE01E901F2
:1002600009929E018150C1F7E201898111969C910A
:100270008923818308C1923009F407C112962D9019
:100280003C901397EB018A819B811496AD90BD90B1
:10029000CD90DC901797EC80FD800E811F8191013D
:1002A000281B390BB90137FF04C066277727621B6B
:1002B000730B603271050CF061C0121613066CF5F9
:1002C00037014801062E04C096948794779467946A
:1002D0000A94D2F721E030E040E050E004C0220F61
:1002E000331F441F551F6A95D2F7215030404040BC
:1002F00050402E213F214023512321153105410536
:10030000510521F021E030E040E050E079018A0120
:10031000E628F728082919293CC0232BD1F1260EFD
:10032000371E35014601062E04C0969487947794B3
:1003300067940A94D2F721E030E040E050E004C036
:10034000220F331F441F551F6A95D2F721503040AA
:10035000404050402A213B214C215D21211531058F
:100360004105510521F021E030E040E050E0590125
:100370006A01A628B728C828D9280BC0821593057A
:100380002CF01C01AA24BB24650103C0EE24FF2429
:10039000870111969C91D20111968C91981709F4BE
:1003A00045C0992339F0A80197012A193B094C0946
:1003B0005D0906C0A60195012E193F09400B510B9E
:1003C00057FD08C0118233822282248335834683FD
:1003D00057831DC081E08183338222828827992739
:1003E000DC01821B930BA40BB50B84839583A6833E
:1003F000B7830DC0220F331F441F551F248335833D
:1004000046835783828193810197938382832481DA
:10041000358146815781DA01C9010197A109B109E6
:100420008F5F9F4FAF4FBF4328F30BC09183338241
:100430002282EA0CFB1C0C1D1D1DE482F582068342
:10044000178383E08083248135814681578157FF5C
:100450001AC0C901AA2797FDA095BA2F8170907084
:10046000A070B0705695479537952795822B932BA2
:10047000A42BB52B84839583A683B7838281938134
:10048000019693838283DF0101C0D201CD01CDB7F4
:10049000DEB7E2E10C946310A0E2B0E0E2E5F2E046
:1004A0000C94531069837A838B839C832D833E83C2
:1004B0004F835887E9E0EE2EF12CEC0EFD1ECE01A5
:1004C0000196B7010E9453068E010F5E1F4FCE01A9
:1004D0000596B8010E9453068A8991E089278A8B84
:1004E000C701B801AE01475E5F4F0E9400010E9444
:1004F0007E05A096E6E00C946F10A0E2B0E0E3E881
:10050000F2E00C94531069837A838B839C832D8350
:100510003E834F835887F9E0EF2EF12CEC0EFD1E41
:10052000CE010196B7010E9453068E010F5E1F4F48
:10053000CE010596B8010E945306C701B801AE016D
:10054000475E5F4F0E9400010E947E05A096E6E094
:100550000C946F10A0E2B0E0E0EBF2E00C944710D6
:1005600069837A838B839C832D833E834F83588753
:10057000CE010196BE01675F7F4F0E945306CE01F8
:100580000596BE016F5E7F4F0E945306998592309B
:1005900088F089898230C8F0943019F4823051F49F
:1005A00004C0843029F4923081F480E391E0C6C025
:1005B000923049F420E09A858A89981321E02A87AD
:1005C000CE010996BBC0823049F420E09A858A8921
:1005D000981321E02A8BCE014196B0C02D843E8431
:1005E0004F8458886D887E888F88988CEE24FF24ED
:1005F0008701AA24BB24650140E050E060E070E080
:10060000E0E0F0E0C10181709070892BE9F0E60C28
:10061000F71C081D191D9A01AB012A0D3B1D4C1D2D
:100620005D1D80E090E0A0E0B0E0E614F70408056E
:10063000190520F481E090E0A0E0B0E0BA01A90142
:10064000480F591F6A1F7B1FAA0CBB1CCC1CDD1C4A
:1006500097FE08C081E090E0A0E0B0E0A82AB92AA7
:10066000CA2ADB2A3196E032F10549F0660C771C84
:10067000881C991C5694479437942794C3CFFA85C5
:10068000EA892B893C898B859C85280F391F2E5F31
:100690003F4F17C0CA0181709070892B61F0169589
:1006A0000795F794E79480E090E0A0E0B0E8E82AAE
:1006B000F92A0A2B1B2B76956795579547952F5F3F
:1006C0003F4F77FDE7CF0CC0440F551F661F771FC4
:1006D00017FD4160EE0CFF1C001F111F2150304020
:1006E000403090E0590790E0690790E4790760F3A3
:1006F0002B8F3C8FDB01CA018F779070A070B07098
:1007000080349105A105B10561F447FD0AC0E114EB
:10071000F1040105110529F0405C5F4F6F4F7F4FD9
:1007200040781A8EFE1711F081E08A8F4D8F5E8F10
:100730006F8F78A383E0898FCE0149960E947E0552
:10074000A096E2E10C946310A8E1B0E0EAEAF3E0DD
:100750000C94531069837A838B839C832D833E830F
:100760004F83588789E0E82EF12CEC0EFD1ECE0158
:100770000196B7010E9453068E010F5E1F4FCE01F6
:100780000596B8010E9453068985823040F0898918
:10079000823028F0C701B8010E94CB0601C08FEF5C
:1007A0006896E6E00C946F10A8E1B0E0EAEDF3E0A3
:1007B0000C94531069837A838B839C832D833E83AF
:1007C0004F83588789E0E82EF12CEC0EFD1ECE01F8
:1007D0000196B7010E9453068E010F5E1F4FCE0196
:1007E0000596B8010E9453068985823040F08989B8
:1007F000823028F0C701B8010E94CB0601C081E019
:100800006896E6E00C946F10A8E0B0E0EAE0F4E04F
:100810000C9450109B01AC0183E08983DA01C9017B
:100820008827B7FD83959927AA27BB27B82E2115BE
:1008300031054105510519F482E089833AC08823C6
:10084000A9F0203080E0380780E0480780E85807AA
:1008500029F460E070E080E09FEC30C0EE24FF24DB
:100860008701E21AF30A040B150B02C079018A0111
:100870008EE1C82ED12CDC82CB82ED82FE820F83EA
:100880001887C801B7010E942F050197181619068D
:1008900084F4082E04C0EE0CFF1C001F111F0A94E4
:1008A000D2F7ED82FE820F831887C81AD90ADC823C
:1008B000CB82BA82CE0101960E947E052896E9E09D
:1008C0000C946C10ACE0B0E0E8E6F4E00C94571047
:1008D00069837A838B839C83CE010196BE016B5F13
:1008E0007F4F0E9453068D81823061F1823050F13A
:1008F000843021F48E81882351F12EC02F813885D8
:1009000037FD20C06E812F3131051CF06623F9F0D0
:1009100023C08EE190E0821B930B29853A854B859D
:100920005C8504C056954795379527958A95D2F7EB
:100930006623B1F050954095309521953F4F4F4F2C
:100940005F4F0EC020E030E040E050E009C02FEFE4
:100950003FEF4FEF5FE704C020E030E040E050E8B9
:10096000B901CA012C96E2E00C947310A8E0B0E043
:10097000ECEBF4E00C944F107B018C0161157105D8
:100980008105910519F482E0898360C083E0898341
:100990008EE1C82ED12CDC82CB82ED82FE820F83C9
:1009A0001887C801B7010E942F05FC013197F7FF96
:1009B0003BC0222733272E1B3F0B57016801022E15
:1009C00004C0D694C794B794A7940A94D2F740E091
:1009D00050E060E070E081E090E0A0E0B0E004C0B2
:1009E000880F991FAA1FBB1F2A95D2F70197A1094B
:1009F000B1098E219F21A023B1230097A105B10544
:100A000021F041E050E060E070E04A295B296C2968
:100A10007D294D835E836F8378878EE190E08E1B06
:100A20009F0B9C838B8312C0309781F00E2E04C0E5
:100A3000EE0CFF1C001F111F0A94D2F7ED82FE82FC
:100A40000F831887CE1ADF0ADC82CB821A82CE018E
:100A500001960E947E052896EAE00C946B10EF92B6
:100A6000FF920F931F937B018C0180E0E81680E0DA
:100A7000F80681E0080780E0180788F48FEFE81691
:100A8000F1040105110531F028F088E090E0A0E0C4
:100A9000B0E017C080E090E0A0E0B0E012C080E0DD
:100AA000E81680E0F80680E0080781E0180728F0E3
:100AB00088E190E0A0E0B0E004C080E190E0A0E038
:100AC000B0E020E230E040E050E0281B390B4A0B58
:100AD0005B0B04C016950795F794E7948A95D2F7B7
:100AE000F701E85CFE4F8081281B3109410951095B
:100AF000C9011F910F91FF90EF900895DF92EF923F
:100B0000FF920F931F93FC01E480F580068117810B
:100B1000D1808081823048F480E090E0A0E1B0E0B4
:100B2000E82AF92A0A2B1B2BA5C0843009F49FC0A0
:100B3000823021F4EE24FF24870105C0E114F10482
:100B40000105110519F4E0E0F0E096C062817381BF
:100B50009FEF623879070CF05BC022E83FEF261B5D
:100B6000370B2A3131052CF020E030E040E050E036
:100B70002AC0B801A701022E04C076956795579543
:100B800047950A94D2F781E090E0A0E0B0E004C07D
:100B9000880F991FAA1FBB1F2A95D2F70197A10999
:100BA000B1098E219F21A023B1230097A105B10592
:100BB00021F081E090E0A0E0B0E09A01AB01282BA9
:100BC000392B4A2B5B2BDA01C9018F779070A0700B
:100BD000B07080349105A105B10539F427FF09C033
:100BE000205C3F4F4F4F5F4F04C0215C3F4F4F4F42
:100BF0005F4FE0E0F0E02030A0E03A07A0E04A07D5
:100C0000A0E45A0710F0E1E0F0E079018A0127C082
:100C10006038710564F5FB01E158FF4FD801C70149
:100C20008F779070A070B07080349105A105B105E8
:100C300039F4E7FE0DC080E490E0A0E0B0E004C02D
:100C40008FE390E0A0E0B0E0E80EF91E0A1F1B1F42
:100C500017FF05C016950795F794E794319687E03E
:100C600016950795F794E7948A95D1F705C0EE2479
:100C7000FF248701EFEFF0E06E2F679566276795F9
:100C8000902F9F77D794DD24D7948E2F8695492F68
:100C9000462B582F5D29B701CA011F910F91FF9074
:100CA000EF90DF900895FC01DB01408151812281AA
:100CB000622F6F7770E0221F2227221F9381892FD6
:100CC000880F822B282F30E0991F9927991F1196A2
:100CD0009C93119721153105A9F541155105610521
:100CE000710511F482E037C082E89FEF13969C9360
:100CF0008E9312979A01AB0167E0220F331F441FB6
:100D0000551F6A95D1F783E08C930DC0220F331FD6
:100D1000441F551F12968D919C911397019713961E
:100D20009C938E931297203080E0380780E048072C
:100D300080E4580758F314962D933D934D935C939C
:100D4000179708952F3F310579F441155105610535
:100D5000710519F484E08C93089564FF03C081E069
:100D60008C9312C01C9210C02F57304013963C93A6
:100D70002E93129783E08C9387E0440F551F661FD4
:100D8000771F8A95D1F7706414964D935D936D9398
:100D90007C93179708951F93DC01FB019C9192307F
:100DA00008F447C08081823008F443C0943051F485
:100DB00011961C91843099F58181682F70E0611B38
:100DC00071093FC0843021F0923031F48230B9F1A2
:100DD0008181882389F12DC011961C911197823051
:100DE000F1F081811817D9F412962D913C91139747
:100DF000828193818217930794F028173907BCF0FA
:100E000014968D919D910D90BC91A02D24813581DA
:100E100046815781281739074A075B0718F41123C1
:100E200041F00AC082179307A407B50740F41123C5
:100E300019F061E070E005C06FEF7FEF02C060E085
:100E400070E0CB011F910895A1E1B0E0EAE2F7E084
:100E50000C9447103C017F876E876A01FC01178262
:100E60001682838181FD03C06FEF7FEF6FC39E0108
:100E70002F5F3F4F398B288BF3012381EE85FF8550
:100E800023FD859123FF8191FF87EE87882309F455
:100E90005AC3853251F4EE85FF8523FD859123FFEA
:100EA0008191FF87EE87853229F490E0B3010E949B
:100EB0006C11E2CF982F10E0882499241032B0F4FE
:100EC0009B3269F09C3228F4903251F0933271F4E5
:100ED0000BC09D3239F0903349F4116028C0126084
:100EE000146025C0186023C0106121C017FD2AC0FE
:100EF000892F80538A3078F416FF06C0FAE09F9E4F
:100F0000902C1124980E13C03AE0839E802C11245B
:100F1000880E10620CC09E3221F416FD14C31064BA
:100F200006C09C3611F4106802C0983659F4EE855C
:100F3000FF8523FD959123FF9191FF87EE879923EC
:100F400009F0BCCF892F8554833020F4812F806134
:100F5000905E07C0892F8556833008F09FC1812F8E
:100F60008F7E86FD02C076E0972E6FE3F62EF82284
:100F7000953619F4F0E4FF2A07C0963619F420E8F4
:100F8000F22A02C091109A94F7FE0AC03BE3391589
:100F900018F45CE3B52E02C0B92CB39427E009C065
:100FA00047E0491520F4BB2447E0942EF7CF292DC4
:100FB000BB24C60104969D878C87F60160817181F0
:100FC00082819381AE014F5F5F4F0B2D0E947E1097
:100FD0006C010981202E332400FF04C003FD02C0F0
:100FE0001DE209C0F1FE02C01BE205C0F2FC02C016
:100FF00010E001C010E2C1018C709070892BB9F132
:10100000112311F483E001C084E0881510F08824D6
:101010000AC0881AF3FC07C080E290E0B3010E9486
:101020006C118A94C9F7112329F0812F90E0B30144
:101030000E946C1123FE03C008E610E00EC00CE60F
:1010400010E00BC0E114F10409F0805290E0B3010C
:101050000E946C110F5F1F4F05C0EF2CFF24F0E1C1
:10106000EF22FF24F8018491882361F714C1F7FE71
:1010700012C0BC0C24FE04C08A81813309F4BA94E6
:101080001B141CF0BB24B3942DC0F8E0FB1550F5E5
:1010900038E0B32E27C0F6FC25C0892D90E08C15D2
:1010A0009D054CF02CEFC2162FEFD20624F030E84D
:1010B000F32A01C09A94992049F0E2E0F0E0EC0FA5
:1010C000FD1FE90DF11D80818033A1F3F7FE0AC0F9
:1010D000B92CB394892D90E0C816D90614F0992440
:1010E00001C09C18F7FC03C025E030E009C01C14C7
:1010F0001D041CF021E030E003C096012F5F3F4F3C
:10110000112311F02F5F3F4F992029F0892D90E096
:101110000196280F391F882D90E02817390714F001
:10112000882401C0821A4F2C5524C2018970907006
:10113000892B39F008C080E290E0B3010E946C1165
:101140008A948820C1F7112329F0812F90E0B30100
:101150000E946C1143FE07C008C080E390E0B30119
:101160000E946C118A948820C1F7F7FE46C0860160
:10117000D7FE02C000E010E076010894E11CF11CEB
:10118000E01AF10A41E050E04C0F5D1FE40EF51E3D
:1011900026014B185108892D90E0AA24BB24A81AD7
:1011A000B90A5FEF0F3F150729F48EE290E0B30113
:1011B0000E946C11C016D10634F0401651061CF482
:1011C000F701808101C080E3015010400894E11CC8
:1011D000F11C0A151B052CF090E0B3010E946C1164
:1011E000E0CF0C151D0539F49A81963318F4953328
:1011F00011F424FE81E390E04BC08A81813309F031
:101200000F7E90E0B3010E946C119920A1F08EE254
:1012100090E0B3010E946C1112E0E1E0F0E0EC0F0D
:10122000FD1FE10FF11D1F5F808190E0B3010E945F
:101230006C119A9491F744FC03C085E690E002C0DB
:1012400085E490E0B3010E946C11D7FC05C0C11485
:10125000D10441F404FF06C0D094C194D108D394C2
:101260008DE201C08BE290E0B3010E946C1180E33B
:1012700005C08F5F26EF3FEFC20ED31E3AE0C316C4
:10128000D104BCF790E0B3010E946C11C601C09676
:10129000B3010E946C11CC84DD8452C1933631F0CD
:1012A000933799F0933509F059C023C0F601808136
:1012B00089835E010894A11CB11C22E030E0C20EBB
:1012C000D31E21E0E22EF12C12C0F601A080B180E5
:1012D00016FD03C06FEF7FEF02C0692D70E022E0C2
:1012E00030E0C20ED31EC5010E9461117C011F7740
:1012F00013C0F601A080B18016FD03C06FEF7FEF31
:1013000002C0692D70E022E030E0C20ED31EC5019C
:101310000E9456117C01106813FF07C01BC080E2B9
:1013200090E0B3010E946C118A94882D90E0E81639
:10133000F906A8F30FC0F50117FD859117FF8191FC
:101340005F0190E0B3010E946C1181108A940894AF
:10135000E108F108E114F10471F7F2C0943611F0DC
:10136000993689F517FF08C0F60120813181428145
:10137000538184E090E00AC0F601808191819C0154
:10138000442737FD4095542F82E090E0C80ED91EC7
:101390009FE6F92EF12257FF09C0509540953095F0
:1013A00021953F4F4F4F5F4F90E8F92ACA01B9018D
:1013B000AE014F5F5F4F2AE030E00E94BC11E82E83
:1013C000E889EE1A41C0953721F41F7E2AE030E00B
:1013D0001CC0197F9F3661F0903720F4983509F0D2
:1013E000B2C00FC0903739F0983709F0ACC004C0D4
:1013F00028E030E00AC0106114FD146020E130E004
:1014000004C014FD166020E132E017FF08C0F601A9
:10141000608171818281938144E050E008C0F601CF
:1014200080819181BC0180E090E042E050E0C40EF8
:10143000D51EAE014F5F5F4F0E94BC11E82E588948
:10144000E51A8FE7F82EF122F6FE0BC08EEFF82298
:10145000E91438F4F4FE07C0F2FC05C09FEEF9224F
:1014600002C01E2D01C0192DF4FE0DC0FE01EE0DAF
:10147000F11D8081803319F4E9EEFE2208C01F5F60
:10148000F2FE05C003C08F2D867809F01F5F0F2D77
:10149000F3FC14C0F0FE0FC0181510F09E2C0BC00A
:1014A0009E2C980C911A182D06C080E290E0B30192
:1014B0000E946C111F5F1815C0F304C0181510F4BA
:1014C000811A01C0882404FF0FC080E390E0B301BB
:1014D0000E946C1102FF1DC001FD03C088E790E06F
:1014E0000EC088E590E00BC0802F867891F001FF58
:1014F00002C08BE201C080E2F7FC8DE290E0B30114
:101500000E946C1106C080E390E0B3010E946C1150
:101510009A94E914C0F3EA94E1E0F0E0EC0FFD1FC7
:10152000EE0DF11D808190E0B3010E946C11EE2060
:1015300091F706C080E290E0B3010E946C118A949A
:101540008820C1F799CCF30166817781CB01619640
:10155000E2E10C946310DF93CF93CDB7DEB7E5ECF7
:10156000F0E01082E4ECF0E08FEC8083A1ECB0E0DE
:10157000E1ECF0E0808188698C93A2ECB0E0E2ECD1
:10158000F0E0808186608C93CF91DF910895DF93A6
:10159000CF930F92CDB7DEB78983E0ECF0E0808186
:1015A000882F90E0807290700097B9F3E6ECF0E03D
:1015B000898180830F90CF91DF910895DF93CF933E
:1015C00000D0CDB7DEB79A8389830BC0E981FA8159
:1015D000208189819A8101969A838983822F0E9432
:1015E000C70AE981FA818081882381F70F900F90E3
:1015F000CF91DF910895DF93CF930F92CDB7DEB7F0
:10160000E0ECF0E08081E6ECF0E080810F90CF919B
:10161000DF910895DF93CF93CDB7DEB7E4E2F0E03A
:101620008CE28083ECE4F0E081E58083A5E2B0E029
:10163000E5E2F0E0808184608C93CF91DF910895A2
:10164000DF93CF930F92CDB7DEB78983EEE4F0E05E
:1016500089818083EDE4F0E080818823DCF7EEE48B
:10166000F0E080810F90CF91DF910895DF93CF93C9
:1016700000D0CDB7DEB71A821982A5E2B0E0E5E26C
:10168000F0E080818B7F8C938CE00E94200B80E8BF
:101690000E94200B882F90E08F709070982F8827E1
:1016A0009A83898380E00E94200B282F30E0898173
:1016B0009A81822B932B9A838983A5E2B0E0E5E29D
:1016C000F0E0808184608C9389819A810F900F90E3
:1016D000CF91DF910895DF93CF9300D000D00F9288
:1016E000CDB7DEB71B821A82A5E2B0E0E5E2F0E0FA
:1016F00080818B7F8C9389E00E94200B80E80E9480
:10170000200B89838981882F90E08F709070982FAB
:1017100088279B838A8389818071898380E00E94E6
:10172000200B282F30E08A819B81822B932B9B8377
:101730008A83A5E2B0E0E5E2F0E0808184608C93EA
:101740008981882341F08A819B81909581959F4F63
:101750009D838C8304C08A819B819D838C838C8133
:101760009D810F900F900F900F900F90CF91DF9170
:101770000895EF92FF920F931F93DF93CF93CDB70E
:10178000DEB729970FB6F894DEBF0FBECDBF8D83AD
:101790008D81482F50E08D81882F90E08295929521
:1017A000907F9827807F9827FC01EE5BFD4F20817A
:1017B0003181CA01880F991F880F991F880F991FBF
:1017C0000196880F991FFC01EE5BFD4F318320834A
:1017D0008D81282F30E03987288788859985009763
:1017E00031F0288539852130310541F00EC00E9445
:1017F000360B90934302809342020CC00E946B0B05
:10180000909353028093520205C0809141028160FF
:10181000809341028D81682F70E08D81882F90E048
:1018200082959295907F9827807F9827FC01EE5BA8
:10183000FD4F808191819C01442737FD4095542FB5
:10184000CB01880F991F880F991F0196880F991F48
:10185000880F991FFC01EE5BFD4F2083318342838B
:1018600053838D81682F70E08D81882F90E0880FE1
:10187000991F880F991F0196880F991F880F991F2C
:10188000FC01EE5BFD4F2081318142815381CB0110
:1018900082959295907F9827807F9827FC01E25B44
:1018A000FD4F20833183428353838D81882F90E0C5
:1018B00082959295907F9827807F9827FC01E25B24
:1018C000FD4F80819181A281B3817C018D0168945B
:1018D00015F815950795F794E7941694D1F78D812F
:1018E000882F90E082959295907F9827807F982707
:1018F000FC01E25BFD4F80819181A281B3819C015B
:10190000AD01689415F85595479537952795169428
:10191000D1F7C801B7010E942810DC01CB018983EF
:101920009A83AB83BC838D81282F30E03F832E8345
:101930008E819F81009731F02E813F8121303105CA
:10194000E1F036C08091710690917206A091730605
:10195000B09174069C01AD0189819A81AB81BC81F3
:10196000820F931FA41FB51F809371069093720678
:10197000A0937306B093740620C080917506909171
:101980007606A0917706B09178069C01AD01898119
:101990009A81AB81BC81820F931FA41FB51F8093D6
:1019A000750690937606A0937706B093780605C0E7
:1019B0008091410281608093410229960FB6F8948C
:1019C000DEBF0FBECDBFCF91DF911F910F91FF9072
:1019D000EF900895EF92FF920F931F93DF93CF93B1
:1019E000CDB7DEB7E2970FB6F894DEBF0FBECDBF1E
:1019F000AAE2B0E0EAE2F0E0808180668C93A4E2A3
:101A0000B0E0E4E2F0E0808181608C93A5E2B0E098
:101A1000E5E2F0E0808181608C930E94AB0A80E077
:101A200091E00E94DE0A0E940A0B85E191E00E948B
:101A3000DE0AA4E4B0E0E4E4F0E0808182608C930C
:101A4000AEE6B0E0EEE6F0E0808182608C93E7E401
:101A5000F0E086E080837894A5E4B0E0E5E4F0E08F
:101A6000808185608C938091410280914102882F12
:101A700090E081709070882309F442C18091410206
:101A80008E7F80934102ADE7B6E0BFA7AEA7E1E746
:101A9000F6E0F9ABE8ABFCE0FAABA8A9B9A90C9069
:101AA000E8A9F9A93196F9ABE8ABAEA5BFA50C92B0
:101AB000EEA5FFA53196FFA7EEA7FAA9F150FAAB64
:101AC0008AA9882351F7109271061092720610921B
:101AD0007306109274061092750610927606109294
:101AE0007706109278061092790610927A06109274
:101AF0007B0610927C0680917D0690917E06A091D7
:101B00007F06B0918006BC01CD010E940404DC0177
:101B1000CB01BC01CD012DEC3CEC4CEC5DE30E9413
:101B2000AA02DC01CB01BC01CD010E94D400DC0182
:101B3000CB019C838B838B819C81CC01A0E0B0E0A6
:101B4000BC01CD010E94B604DC01CB01BC01CD017A
:101B50000E941E127B018C0180913902882F90E037
:101B6000AA2797FDA095BA2FBC01CD010E940404BD
:101B70009B01AC01C801B7010E94AA02DC01CB01A4
:101B80008093640690936506A0936606B0936706FB
:101B90008091810690918206A0918306B09184067F
:101BA000BC01CD010E940404DC01CB01BC01CD01CC
:101BB0002DEC3CEC4CEC5DE30E94AA02DC01CB0175
:101BC000BC01CD010E94D400DC01CB019C838B833E
:101BD0008B819C81CC01A0E0B0E0BC01CD010E94D2
:101BE000B604DC01CB01BC01CD010E941E127B01B9
:101BF0008C0180913C02882F90E0AA2797FDA09548
:101C0000BA2FBC01CD010E9404049B01AC01C801A4
:101C1000B7010E94AA02DC01CB0180936806909371
:101C20006906A0936A06B0936B068091680690914E
:101C30006906A0916A06B0916B06BC01CD012AE04D
:101C400037ED43E25CE30E94D40388236CF480E028
:101C500090E0A0E0B0E080936C0690936D06A093B6
:101C60006E06B0936F064CC08091850690918606F3
:101C7000A0918706B0918806BC01CD010E940404A2
:101C8000DC01CB01BC01CD012DEC3CEC4CEC5DE367
:101C90000E94AA02DC01CB017C018D0180913902F6
:101CA000882F90E0AA2797FDA095BA2FBC01CD01FF
:101CB0000E9404049B01AC01C801B7010E94AA0262
:101CC000DC01CB017C018D0180913C02882F90E0EA
:101CD000AA2797FDA095BA2FBC01CD010E9404044C
:101CE0009B01AC01C801B7010E94AA02DC01CB0133
:101CF00080936C0690936D06A0936E06B0936F066A
:101D000080914102882F90E0847090700097B9F024
:101D1000809141028B7F80934102809170060E94E6
:101D2000C70A80917006813641F4ABE2B0E0EBE285
:101D3000F0E0908180E489278C9310927006809166
:101D40004102882F90E082709070009709F48BCE4A
:101D5000809141028D7F80934102F894ABE2B0E024
:101D6000EBE2F0E0808180628C931A82198244C099
:101D700088E2FE013596DF01982F1D929A95E9F7CA
:101D800089819A81880F991FFC01EE59FD4F40818E
:101D9000518189819A81880F991FFC01EE59FB4F6F
:101DA00020813181ADB7BEB718970FB6F894BEBF8A
:101DB0000FBEADBFEDB7FEB73196CE01059691834C
:101DC000808388E291E093838283558344833783C1
:101DD00026830E949811EDB7FEB738960FB6F89497
:101DE000FEBF0FBEEDBFCE0105960E94DE0A8981BF
:101DF0009A8101969A83898389819A818F3F91057F
:101E000009F008F4B5CF7894ABE2B0E0EBE2F0E093
:101E100080818F7D8C9327CE1F920F920FB60F92E9
:101E200011242F933F934F935F936F937F938F93DF
:101E30009F93AF93BF93EF93FF93DF93CF93CDB770
:101E4000DEB70E94FB0A8093700680914102846095
:101E500080934102CF91DF91FF91EF91BF91AF91BC
:101E60009F918F917F916F915F914F913F912F91B2
:101E70000F900FBE0F901F9018951F920F920FB6E4
:101E80000F921124AF92BF92CF92DF92EF92FF9206
:101E90000F931F932F933F934F935F936F937F9372
:101EA0008F939F93AF93BF93EF93FF93DF93CF9362
:101EB000CDB7DEB7ABE2B0E0EBE2F0E0808180646A
:101EC0008C9380E00E94B90B81E00E94B90B409195
:101ED00062065091630680914E0290914F02A0914C
:101EE0005002B0915102805098409C01CA01880F65
:101EF000991FFC01EE59FD4F31832083209162062A
:101F00003091630680915E0290915F02A091600221
:101F1000B0916102AC01C901880F991FFC01EE5913
:101F2000FB4F518340838091620690916306019636
:101F30009093630680936206A0907906B0907A062B
:101F4000C0907B06D0907C0680914E0290914F020B
:101F5000A0915002B09151027C018D01689415F856
:101F600015950795F794E7941694D1F780915E0242
:101F700090915F02A0916002B09161029C01AD015D
:101F8000689415F855954795379527951694D1F788
:101F9000C801B7010E942810DC01CB018A0D9B1DEE
:101FA000AC1DBD1D8093790690937A06A0937B06A5
:101FB000B0937C0680916206909163068F3F9105F5
:101FC00058F010923E0210926306109262068091C1
:101FD000410281608093410280913F0290914002D2
:101FE00001969093400280933F0280913F0290912E
:101FF000400228E08030920748F0809141028260E0
:10200000809341021092400210923F02ABE2B0E096
:10201000EBE2F0E080818F7B8C93CF91DF91FF9199
:10202000EF91BF91AF919F918F917F916F915F9150
:102030004F913F912F911F910F91FF90EF90DF9063
:10204000CF90BF90AF900F900FBE0F901F9018953C
:10205000629FD001739FF001829FE00DF11D649F8C
:10206000E00DF11D929FF00D839FF00D749FF00D18
:10207000659FF00D9927729FB00DE11DF91F639FB9
:10208000B00DE11DF91FBD01CF01112408952F925C
:102090003F924F925F926F927F928F929F92AF92F8
:1020A000BF92CF92DF92EF92FF920F931F93CF9345
:1020B000DF93CDB7DEB7CA1BDB0B0FB6F894DEBFDC
:1020C0000FBECDBF09942A88398848885F846E8402
:1020D0007D848C849B84AA84B984C884DF80EE804C
:1020E000FD800C811B81AA81B981CE0FD11D0FB655
:1020F000F894DEBF0FBECDBFED010895283008F083
:1021000027E03327DA01990F311D87FD9160009692
:102110006105710539F432602E5F3D9330E32A95F5
:10212000E1F708959F3F30F080387105610509F0AF
:102130003C5F3C5F3D93913008F08068911DDF93D8
:10214000CF931F930F93FF92EF92192F987F96953D
:10215000E92F96959695E90FFF27E653FF4F9927AC
:102160003327EE24FF24A701E70105900894079484
:1021700028F4360FE71EF81E491F511D660F771F02
:10218000881F991F0694A1F70590079428F4E70E7D
:10219000F81E491F561FC11D770F881F991F661F04
:1021A0000694A1F70590079428F4F80E491F561FCE
:1021B000C71FD11D880F991F661F771F0694A1F7AF
:1021C0000590079420F4490F561FC71FD81F990F79
:1021D000661F771F881F0694A9F7849110951770C2
:1021E00041F0D695C79557954795F794E7941A957A
:1021F000C1F7E0E7F0E0689415901591359165918D
:10220000959105907FE27395E118F10A430B560B07
:10221000C90BD009C0F7E10CF11E431F561FC91F9F
:10222000D01D7EF4703311F48A95E6CFE894015006
:1022300030F0080F0AF40027021708F4202F239526
:10224000022F7A3328F079E37D932A95E9F710C0BD
:102250007D932A9589F606949795679537951795F6
:102260001794E118F10A430B560BC90BD00998F0EB
:1022700023957E9173957A3308F070E37C93201355
:10228000B8F77E9170617D9330F0839571E37D9313
:1022900070E32A95E1F71124EF90FF900F911F91C1
:1022A000CF91DF91992787FD90950895FC010590C6
:1022B000615070400110D8F7809590958E0F9F1F48
:1022C0000895FC016150704001900110D8F780958D
:1022D00090958E0F9F1F08950F931F93CF93DF93B9
:1022E0008C01EB018B8181FF1BC082FF0DC02E8111
:1022F0003F818C819D812817390764F4E881F98139
:102300000193F983E88306C0E885F985802F099554
:10231000892B31F48E819F8101969F838E8302C029
:102320000FEF1FEFC801DF91CF911F910F9108951B
:10233000AEE0B0E0EEE9F1E10C9455100D891E8994
:1023400086E08C831A8309838FEF9FE79E838D83BA
:102350009E01275E3F4FCE0101966F89788DA901BE
:102360000E9424072F813885020F131FF801108265
:102370002E96E4E00C947110FA01AA27283051F14E
:10238000203181F1E8946F936E7F6E5F7F4F8F4FA6
:102390009F4FAF4FB1E03ED0B4E03CD0670F781F05
:1023A000891F9A1FA11D680F791F8A1F911DA11DEA
:1023B0006A0F711D811D911DA11D20D009F4689423
:1023C0003F912AE0269F11243019305D3193DEF6CB
:1023D000CF010895462F4770405D4193B3E00FD081
:1023E000C9F7F6CF462F4F70405D4A3318F0495D6C
:1023F00031FD4052419302D0A9F7EACFB4E0A6954F
:102400009795879577956795BA95C9F70097610570
:10241000710508959B01AC010A2E069457954795C6
:1024200037952795BA95C9F7620F731F841F951FBB
:10243000A01D089511F40EF44DC03EC05DD0D0F340
:102440009923D9F3CEF39F57550B87FF46D000242D
:10245000A0E640EA900180585695979528F4805C54
:10246000660F771F881F20F026173707480730F4BC
:10247000621B730B840B202931294A2BA6951794D4
:102480000794202531254A2758F7660F771F881FA4
:1024900020F026173707480730F4620B730B840BC4
:1024A000200D311D411DA09581F7B901842F915850
:1024B000880F9695879508959F3F31F0915020F4AD
:1024C000879577956795B795880F911D9695879510
:1024D00097F908959FEF80EC089591505040660F52
:1024E000771F881FD2F7089557FD9058440F551F46
:1024F00059F05F3F71F04795880F97FB991F61F086
:102500009F3F79F087950895121613061406551FFC
:10251000F2CF4695F1DF08C0161617061806991F68
:10252000F1CF86957105610508940895F894FFCF61
:102530000A696E697469616C697A65642075617293
:102540007420210A00696E697469616C697A656436
:102550002073706920210A0025642C25640D0A006F
:10256000000000000000000000010202030303035A
:102570000404040404040404050505050505050513
:1025800005050505050505050606060606060606F3
:1025900006060606060606060606060606060606DB
:1025A00006060606060606060707070707070707C3
:1025B00007070707070707070707070707070707AB
:1025C000070707070707070707070707070707079B
:1025D000070707070707070707070707070707078B
:1025E0000707070707070707080808080808080873
:1025F000080808080808080808080808080808085B
:10260000080808080808080808080808080808084A
:10261000080808080808080808080808080808083A
:10262000080808080808080808080808080808082A
:10263000080808080808080808080808080808081A
:10264000080808080808080808080808080808080A
:1026500008080808080808080808080808080808FA
:0E26600008080808080808080001000001002A
:00000001FF
