:100000000C942A000C9434000C9434000C943400AA
:100010000C9434000C9434000C9434000C94340090
:100020000C9434000C9434000C9434000C94340080
:100030000C9434000C9434000C9434000C94340070
:100040000C9434000C9434000C9434000C94340060
:100050000C94340011241FBECFE5D8E0DEBFCDBF25
:100060000E9436000C9445000C940000B99A42E0BE
:1000700024EF31E088B3842788BB88E893E1F90155
:0E0080003197F1F70197D9F7F5CFF894FFCF3C
:00000001FF
