:1000000010C02AC033C028C027C026C025C024C0C5
:1000100043C022C021C091C01FC01EC01DC01CC053
:100020001BC011241FBECFE5D2E0DEBFCDBF11E063
:10003000A0E6B0E0E0E9FAE002C005900D92A23B34
:10004000B107D9F722E0A2EBB1E001C01D92A032C6
:10005000B207E1F730D41AC5D3CF2091B7012111EF
:1000600078602091B6012111746059C21F920F92DD
:100070000FB60F9211248F939F93CD9B06C0909142
:10008000B60181E0891B8093B6019F918F910F90FB
:100090000FBE0F901F9018951F920F920FB60F92E0
:1000A0001124EF92FF920F932F933F934F935F93FF
:1000B0006F937F938F939F93AF93BF93EF93FF9330
:1000C0008091B70191E0811190E09093B701811187
:1000D00015C060E07FEF8FEF90E0ABD07B01082F81
:1000E00028EB31E0409118025091190260911A02F8
:1000F00070911B0280911C024AD10BC06FEF7FEF01
:1001000080E090E096D09B01482F68EB71E08AE098
:10011000BDD1FF91EF91BF91AF919F918F917F9151
:100120006F915F914F913F912F910F91FF90EF90C1
:100130000F900FBE0F901F9018951F920F920FB641
:100140000F9211242F933F934F935F936F937F935D
:100150008F939F93AF93BF93EF93FF938091B501DC
:10016000823049F178F48823E1F0813009F041C010
:1001700040E060E081E059D028EB31E041E0B4D0CC
:10018000706836C0843059F100F1853091F541E056
:1001900060E080E04AD028EB31E041E0A5D0826009
:1001A00027C040E060E081E040D028EB31E040E053
:1001B0009BD070641DC040E061E080E036D028EB49
:1001C00031E040E091D0846013C040E061E080E025
:1001D0002CD028EB31E041E087D0886009C041E0B5
:1001E00060E080E022D028EB31E040E07DD081600B
:1001F00034DF8091B5018F5F8093B5018091B501A7
:10020000863010F01092B501FF91EF91BF91AF9140
:100210009F918F917F916F915F914F913F912F911E
:100220000F900FBE0F901F901895762F682F842F78
:1002300008950F931F93DC01CB01AD01662777274B
:10024000092F1A2F2B2F3327642F702F1F910F91F7
:1002500008952AB32F602ABB2BB3207F2BBBFC0150
:1002600080E0982F917091838A3010F4808303C0CE
:1002700097EF980F90831282138214828F5F3596C6
:10028000833179F70895CF93DF9300D000D01F9288
:10029000CDB7DEB7272F382F552381F0662329F0FD
:1002A00060E070E480E090E003C060E070E0CB01CB
:1002B00021118460332381F081600EC0662329F010
:1002C00060E070E880E090E003C060E070E0CB01A7
:1002D00021118860311182600F900F900F900F9064
:1002E0000F90DF91CF910895EF92FF920F931F939C
:1002F000CF93DF93562FF72EE82EF901D901A15A9B
:10030000BF4F60E070E0CB01C1E0D0E02181241359
:100310001EC02281222311F051110AC02381222301
:1003200011F0F11005C02481222389F0EE2079F02C
:100330008E01008002C0000F111F0A94E2F7012E07
:10034000000C220B330B602B712B822B932B3596D9
:10035000EA17FB07D9F6DF91CF911F910F91FF901C
:10036000EF900895FC011282138214820895FC011B
:100370008FEF8283838384830895FC0142835383B8
:1003800064830895FC0162835383448308956F92CC
:100390007F928F92CF92DF92EF92FF920F93CF9343
:1003A000DF9300D000D01F92CDB7DEB769013701CF
:1003B000802EF901C901815A9F4F12821382148243
:1003C0003596E817F907C9F7F601E65AFF4F62823A
:1003D00073828482E0911802209119028E2F2432B8
:1003E00028F090E001966CE070E029D3882331F08A
:1003F0008C3049F4F601EF5BFF4F16C0F601618ABD
:10040000728A838A14C0F0E0E05AFF4F808190E046
:1004100065E070E0F7D28C0D9D1DFC016282738255
:100420008482F601E55BFF4F628273828482822FB1
:100430009FD08F3138F0F60167A670AA81AA9CE39D
:10044000981B892F843149F08E3161F08A3071F424
:10045000F601638E748E858E09C0F60161AE72AEB0
:1004600083AE04C0F6016782708681860F900F907C
:100470000F900F900F90DF91CF910F91FF90EF9021
:10048000DF90CF908F907F906F900895CF93DF9300
:10049000E82FDB01EB01CB01815A9F4F1A821B82AF
:1004A0001C8225968C179D07C9F7E7FF06C09F960B
:1004B0002D933D934C93D197E195EE3164F0D9960D
:1004C0002D933D934C93DB975B962D933D934C93EB
:1004D0005D97EE5111C0E4313CF0D9962D933D93D8
:1004E0004C93DB97E45108C0EC3034F05B962D93CD
:1004F0003D934C935D97EA500E2E000CFF0BE15A92
:10050000FF4F808190E065E070E07CD2A80FB91FBA
:1005100012962D933D934C93DF91CF9108950F93B5
:100520001F932BB3237F2BBB40E050E08B019C013A
:10053000042E04C036952795179507950A94D2F78F
:1005400000FF02C0D99A01C0D998DB9ADB984F5FAF
:100550005F4F4431510551F7DA9ADA981F910F91A4
:100560000895E8E1F2E08083618342832383089564
:100570008630A0F0803150F08A3150F0843250F053
:100580008E3250F0883350F482E308958AE0089563
:1005900084E108958EE1089588E2089580E0089549
:1005A000982F82958F706AE024D29F70890F0895EA
:1005B0006AE039D28295807F890F08958EB98BE2E7
:1005C00095E09A95F1F700008DB9CC9BFECF94E0B1
:1005D0009A95F1F78DB9769BF3CF85E08A95F1F77F
:1005E00000008FB10895EF92FF920F931F93CF9366
:1005F000DF93EC01162F10921702DC9ACC9BFECFF2
:1006000084E08A95F1F7D69AD49ADE9884E08A95A8
:10061000F1F7DC9885E08A95F1F70000DE9A02E0B8
:10062000FF24F394EE24EA9480911702813061F064
:1006300018F08230C9F024C0888180FD03C0F09298
:10064000170202C000931702DC9889918FB980EFDE
:10065000B5DFD6988EEFB2DF80FF04C0DC9ADE9A59
:1006600080E01FC0D69A0CC0D69880EFA7DF899390
:10067000D69A113011F4EFB801C01FB88EEF9EDF8B
:10068000115091F6DE9885E08A95F1F70000D49834
:10069000CC9BFECF84E08A95F1F7D698CE9BFECF17
:1006A00081E0DF91CF911F910F91FF90EF9008951E
:1006B000CF93DF9300D01F92CDB7DEB7880F898329
:1006C0006A834B8363E0CE0101968DDF0F900F901C
:1006D0000F90DF91CF9108950F931F93CF93DF93E6
:1006E00000D000D01F92CDB7DEB74983852F6B8332
:1006F0007C83122F5DDF482F61E088E6D9DF898196
:1007000057DF482F62E088E6D3DF812F51DF482F83
:1007100063E088E6CDDF8B814BDF482F64E088E61D
:10072000C7DF8C8145DF482F65E088E6C1DF802F79
:100730003FDF482F66E088E60F900F900F900F90F4
:100740000F90DF91CF911F910F91B2CF8F929F9217
:10075000AF92BF92CF92DF92EF92FF920F931F93CF
:10076000CF93DF93CDB7DEB7182F062F4901ADB673
:10077000BEB6C62ED12CC60101962DB73EB7281B9A
:10078000390B0FB6F8943EBF0FBE2DBF8DB79EB785
:1007900001967C01812F880FEDB7FEB78183F701A9
:1007A000418362E0C7011FDF110F1160F701108361
:1007B00061E0600FC70117DF882391F021E0822FED
:1007C00090E0C816D9065CF0F401E80FF91F3197E4
:1007D000D701A80FB91F8C9180832F5FF0CF81E0E4
:1007E0000FB6F894BEBE0FBEADBEDF91CF911F9184
:1007F0000F91FF90EF90DF90CF90BF90AF909F90C0
:100800008F900895CF93DF931F92CDB7DEB71982F3
:100810009E012F5F3F4F41E161E088E697DF88232B
:1008200011F0898101C080E00F90DF91CF91089590
:100830000F931F93CF93DF93CDB7DEB727970FB6F4
:10084000F894DEBF0FBECDBF8C019E012F5F3F4FDE
:1008500087E0F90111928A95E9F740E067E088E6C0
:1008600075DF882389F08B819BDEF80180838A8184
:1008700097DEF80181838D8193DEF80182838E817A
:100880008FDEF801838381E027960FB6F894DEBFF0
:100890000FBECDBFDF91CF911F910F9108950895A5
:1008A0000895089508950895089508950895089560
:1008B00008950895089588EB91E0CBDC8AB38F7595
:1008C0008ABB8BB3806A8BBB609A89B7816089BF12
:1008D0008BB780618BBF959A78946FEF73EC8FE044
:1008E00090E0BBDB2FEF89E698E1215080409040FB
:1008F000E1F700C000006FEF73E08CE090E0ADDB4B
:100900002FEF89E698E1215080409040E1F700C048
:1009100000006FEF73EC80E090E09FDB2FEF89E643
:1009200098E1215080409040E1F700C000006FEF57
:1009300073E083E090E091DB2FEF89E698E12150AE
:1009400080409040E1F700C000006FEF73E08FE05F
:1009500090E083DB2FEF89E698E1215080409040C2
:10096000E1F700C000006FEF73EC83E090E075DB0F
:100970002FEF89E698E1215080409040E1F700C0D8
:1009800000006FEF73EC8CE090E067DB2FEF89E6FF
:1009900098E1215080409040E1F700C000008EB502
:1009A00085608EBD83B7836083BF6FEF7FEF8FEF6E
:1009B00090E03FDC60931D0270931E0280931F0243
:1009C0002CE047E06AE080E0CCDDE0901D02F09092
:1009D0001E0200911F0228EB31E040911802509155
:1009E000190260911A0270911B0280911C02CFDCE7
:1009F000FFCF002480FD060E660F11F08695D1F71B
:100A0000802D08950024552704C0080E591F880F13
:100A1000991F009729F076956795B8F37105B9F796
:100A2000802D952F0895991B79E004C0991F961782
:100A300008F0961B881F7A95C9F78095089597FB53
:100A4000072E16F4009406D077FD08D00BD007FCD3
:100A500005D03EF4909581959F4F089570956195CE
:100A60007F4F0895AA1BBB1B51E107C0AA1FBB1FE4
:100A7000A617B70710F0A61BB70B881F991F5A952A
:100A8000A9F780959095BC01CD010895F894FFCF0A
:100A900007080A0E000411020C0610034F0401009F
:100AA000000200000F9A010350040100000F9A0198
:100AB000035A040100000200000F9A0104590405C2
:100AC00000000B00000100000FFE000458040500A8
:100AD000000B00000100000FFE000D570401000094
:100AE00002000003000004000005000006000007EB
:100AF00000000800000900000A00000B00000300CD
:100B0000000FFE000D56040100000200000300006B
:100B100004000005000006000007000008000009AE
:100B200000000A00000B00000D00000FFE00050091
:100B30000001D40002AA00039B00048C000F9A015C
:100B40000C55040100000200000300000400000531
:100B500000000600000700000800000900000A006D
:100B6000000B00000F5E010C540401100102100183
:100B700003100104100105100106100107100108FF
:100B800010010910010A10010B10010F5E0104533E
:100B9000040100000237010337010F9A01085204D3
:100BA0000100000200000300000400000500000630
:100BB00000000700000F9A01055104010000020027
:100BC000000300000400000F9A01070000018801E3
:100BD000026D01035E0104FE000580000677000738
:020BE0006B00A8
:00000001FF
