:1000000010C02AC066C032C027C026C025C024C088
:10001000AEC022C021C020C11FC01EC01DC01CC058
:100020001BC011241FBECFE5D2E0DEBFCDBF11E063
:10003000A0E6B0E0ECE2FCE002C005900D92AA3C24
:10004000B107D9F722E0AAECB1E001C01D92A031BE
:10005000B207E1F73DD5E8C5D3CF2091CF012111FB
:1000600078602091CE012111746047C21F920F92D7
:100070000FB60F9211242F933F934F935F936F937B
:100080007F938F939F93AF93BF93EF93FF93B29B15
:100090000FC08091CB019091CC01009749F0609105
:1000A000CA0153D48093CA018EEF9FEF9DBD8CBDD2
:1000B000FF91EF91BF91AF919F918F917F916F9140
:1000C0005F914F913F912F910F900FBE0F901F9016
:1000D00018951F920F920FB60F9211242F933F93F2
:1000E0004F935F936F937F938F939F93AF93BF9340
:1000F000EF93FF93CF9B29C0E091CB01F091CC010E
:10010000309739F488EA91E09093CC018093CB0149
:1001100018C00180F281E02D309719F08091CA015A
:1001200009956091CA018091CB019091CC011DD4B9
:100130009093CC018093CB011092CA0181ED91E0A4
:100140003AD18EEF9FEF9DBD8CBD89B3FF91EF91AA
:10015000BF91AF919F918F917F916F915F914F91DF
:100160003F912F910F900FBE0F901F9018951F92E7
:100170000F920FB60F9211242F933F934F935F93DB
:100180006F937F938F939F93AF93BF93CF93EF938F
:10019000FF938091CB019091CC01892B61F55CD4C8
:1001A000C82F8BE092E032D380910B027AD488235F
:1001B000B9F0C23070F421ED31E040910B02509162
:1001C0000C0260910D0270910E0280910F02FDD021
:1001D0000AC0C43040F404D361ED71E056D103C0CD
:1001E00081ED91E0E8D081E09091CF01911180E024
:1001F0008093CF011FC081ED91E0DDD0A091CB01B4
:10020000B091CC01EC91E295EF70F0E0EF59FF4F27
:100210008091CA0190E0019663E070E0E8D4A80FF5
:10022000B91F8C9190E063E070E0E1D460818F525F
:100230009E4FBBD0FF91EF91CF91BF91AF919F9116
:100240008F917F916F915F914F913F912F910F907F
:100250000FBE0F901F9018951F920F920FB60F921E
:1002600011242F933F934F935F936F937F938F93BB
:100270009F93AF93BF93EF93FF938091CD01823013
:10028000F9F058F48823A9F0813079F541ED51E077
:1002900061E084E05ED0706827C08430F9F0B8F087
:1002A000853019F541ED51E061E081E052D0826086
:1002B0001BC041ED51E060E084E04BD0706414C09D
:1002C00041ED51E060E082E044D084600DC041ED3A
:1002D00051E061E082E03DD0886006C041ED51E030
:1002E00060E081E036D08160B8DE8091CD018F5F23
:1002F0008093CD018091CD01863010F01092CD0118
:10030000FF91EF91BF91AF919F918F917F916F91ED
:100310005F914F913F912F910F900FBE0F901F90C3
:1003200018952AB32F602ABB2BB3207F2BBBFC016F
:1003300090E0892F817081839A3010F4908303C0FC
:1003400087EF890F808312829F5F3396933189F7FD
:1003500008950F931F93CF93DF93C82FD62FFA01E1
:10036000475C5F4F60E070E0CB01A1E0B0E021812D
:100370002D1312C022812C2379F08D01008002C040
:10038000000F111F0A94E2F7012E000C220B330B11
:10039000602B712B822B932B3396E417F50739F7DB
:1003A000DF91CF911F910F910895FC016283089511
:1003B000FC01128208959C01275C3F4FFC011282D0
:1003C000039682179307D1F70895FF920F931F9317
:1003D000CF93DF9300D000D01F92CDB7DEB7890155
:1003E000C901E9DF47D3F80180AF80910B029091FA
:1003F0000C02943208F08F5F882329F06CE008D457
:10040000F92E911104C036D3F801838712C032D37C
:10041000282FEF2DF0E0E959FF4F808190E063E055
:1004200070E0E5D3800F911FFC01228323D3F801F4
:1004300087A780910C028AD0F82EFEE1F81730F4DD
:1004400019D3F801858F8CE38F19F82EF4E1FF168C
:1004500051F08EE1F81659F0EAE0FE120BC00AD313
:10046000F801818B07C006D3F80183A303C002D330
:10047000F80185830F900F900F900F900F90DF91F0
:10048000CF911F910F91FF9008950F931F93CF93DA
:10049000C82F8B01CB018FDFC7FF04C0EBD2F8015F
:1004A000858FC195CE3144F0E5D2F80183A3E2D225
:1004B000F801818BCE510DC0C4312CF0DBD2F80194
:1004C00083A3C45106C0CC3024F0D4D2F801818B70
:1004D000CA50D0D2282FEC2FCC0FFF0BE959FF4F79
:1004E000808190E063E070E082D3800F911FFC0177
:1004F0002283CF911F910F9108950F931F932BB3D8
:10050000237F2BBB40E050E08B019C01042E04C0F4
:1005100036952795179507950A94D2F700FF02C0E4
:10052000D99A01C0D998DB9ADB984F5F5F4F44316D
:10053000510551F7DA9ADA981F910F910895EBE07F
:10054000F2E0808361834283238308958630A0F0A4
:10055000803150F08A3150F0843250F08E3250F0B9
:10056000883350F482E308958AE0089584E1089581
:100570008EE1089588E2089580E00895982F82958D
:100580008F706AE02BD39F70890F08956AE040D383
:100590008295807F890F08958EB98BE295E09A95B8
:1005A000F1F700008DB9CC9BFECF94E09A95F1F75E
:1005B0008DB9769BF3CF85E08A95F1F700008FB176
:1005C0000895EF92FF920F931F93CF93DF93EC0167
:1005D000162F10920A02DC9ACC9BFECF84E08A95FB
:1005E000F1F7D69AD49ADE9884E08A95F1F7DC98F0
:1005F00085E08A95F1F70000DE9A02E0FF24F3948B
:10060000EE24EA9480910A02813061F018F0823081
:10061000C9F024C0888180FD03C0F0920A0202C0A4
:1006200000930A02DC9889918FB980EFB5DFD698E4
:100630008EEFB2DF80FF04C0DC9ADE9A80E01FC03C
:10064000D69A0CC0D69880EFA7DF8993D69A11303E
:1006500011F4EFB801C01FB88EEF9EDF115091F674
:10066000DE9885E08A95F1F70000D498CC9BFECF08
:1006700084E08A95F1F7D698CE9BFECF81E0DF919A
:10068000CF911F910F91FF90EF900895CF93DF933B
:1006900000D01F92CDB7DEB7880F89836A834B8362
:1006A00063E0CE0101968DDF0F900F900F90DF91E8
:1006B000CF9108950F931F93CF93DF9300D000D075
:1006C0001F92CDB7DEB74983852F6B837C83122FB2
:1006D0005DDF482F61E088E6D9DF898157DF482F49
:1006E00062E088E6D3DF812F51DF482F63E088E6A0
:1006F000CDDF8B814BDF482F64E088E6C7DF8C813C
:1007000045DF482F65E088E6C1DF802F3FDF482FB7
:1007100066E088E60F900F900F900F900F90DF919A
:10072000CF911F910F91B2CF8F929F92AF92BF92B4
:10073000CF92DF92EF92FF920F931F93CF93DF93AD
:10074000CDB7DEB7182F062F4901ADB6BEB6C62EFF
:10075000D12CC60101962DB73EB7281B390B0FB619
:10076000F8943EBF0FBE2DBF8DB79EB701967C019A
:10077000812F880FEDB7FEB78183F701418362E0D7
:10078000C7011FDF110F1160F701108361E0600FD7
:10079000C70117DF882391F021E0822F90E0C8166F
:1007A000D9065CF0F401E80FF91F3197D701A80FC3
:1007B000B91F8C9180832F5FF0CF81E00FB6F89442
:1007C000BEBE0FBEADBEDF91CF911F910F91FF90C6
:1007D000EF90DF90CF90BF90AF909F908F90089553
:1007E000CF93DF931F92CDB7DEB719829E012F5FA3
:1007F0003F4F41E161E088E697DF882311F089816E
:1008000001C080E00F90DF91CF9108950F931F9367
:10081000CF93DF93CDB7DEB727970FB6F894DEBF3F
:100820000FBECDBF8C019E012F5F3F4F87E0F901C6
:1008300011928A95E9F740E067E088E675DF882342
:1008400089F08B819BDEF80180838A8197DEF80135
:1008500081838D8193DEF80182838E818FDEF801A2
:10086000838381E027960FB6F894DEBF0FBECDBF1D
:10087000DF91CF911F910F91089508956FEF73EC61
:100880008FE090E03ADE2FEF89E698E1215080403A
:100890009040E1F700C000006FEF73E08CE090E063
:1008A0002CDE2FEF89E698E1215080409040E1F75F
:1008B00000C000006FEF73EC80E090E01EDE2FEFD1
:1008C00089E698E1215080409040E1F700C00000A7
:1008D0006FEF73E083E090E010DE2FEF89E698E1A0
:1008E000215080409040E1F700C000006FEF73E0BE
:1008F0008FE090E002DE2FEF89E698E12150804002
:100900009040E1F700C000006FEF73EC83E090E0EF
:10091000F4DD2FEF89E698E1215080409040E1F727
:1009200000C000006FEF73EC8CE090E0E6DD2FEF8D
:1009300089E698E1215080409040E1F700C0000036
:1009400008950895089508950895262F30E02F5FA3
:100950003F4FFC0180818F7090E0281739071CF40D
:1009600081E0860F089580E008959C01862F90E035
:1009700063E070E03CD1820F931FFC01848195817C
:100980000895E199FECF1CBA90E09FBB8EBB6DBB72
:10099000E29AE19A0895843068F49EB595609EBD10
:1009A000823019F49EB59E7F9EBD80936000682FB3
:1009B00084E0E7CF0895873040F4E82FF0E0ED536E
:1009C000FE4F60816093D0010DC0873029F487E825
:1009D0008093D00160E806C0883031F487E48093CA
:1009E000D00160E480E0CDCF0895833018F4682F03
:1009F00081E0C7CF08956CE0680F83E0C2CF61E06B
:100A0000680F82E0BECF811117C08EB585608EBDA4
:100A100081E08093600061E084E0B3DF80E0CBDFC1
:100A200061E081E0AEDF62E283E0ABDF69E082E0BB
:100A3000A8DF8EB585608EBD0895E199FECF90E068
:100A40009FBB8EBBE09A8DB3089580E0F6DF809364
:100A5000D00184E0F2DF9FCF80916000823011F4FA
:100A600081E003C0813019F482E0809360008091BE
:100A7000600008958091D00187FF0FC0873818F07B
:100A800080E88093D001E091D001EF5FE093D00146
:100A9000F0E0EE5BFE4F80810895803408F084E042
:100AA0000895CF93C82F81E0C8DF882371F082E0DA
:100AB000C4DFC81740F083E0C0DF91E08C1708F472
:100AC00090E0892F03C080E001C081E0CF910895BC
:100AD00081ED91E026DC8AB38F758ABBBA988BB31F
:100AE000806A8BBBC29A609A89B7816089BF6FEFB9
:100AF00073EC8FE090E0B1DA2FEF89E698E12150B6
:100B000080409040E1F700C000006FEF73E08CE0A0
:100B100090E0A3DA2FEF89E698E1215080409040E1
:100B2000E1F700C000006FEF73EC80E090E095DA31
:100B30002FEF89E698E1215080409040E1F700C016
:100B400000006FEF73E083E090E087DA2FEF89E633
:100B500098E1215080409040E1F700C000006FEF25
:100B600073E08FE090E079DA2FEF89E698E1215089
:100B700080409040E1F700C000006FEF73EC83E02D
:100B800090E06BDA2FEF89E698E1215080409040A9
:100B9000E1F700C000006FEF73EC8CE090E05DDAED
:100BA0002FEF89E698E1215080409040E1F700C0A6
:100BB00000008BB780638BBF82B3806A82BB80B535
:100BC000846080BD78948EB585608EBD83B7836068
:100BD00083BF3BDF8BE092E019DEFFCF002480FD76
:100BE000060E660F11F08695D1F7802D089500242A
:100BF000552704C0080E591F880F991F009729F028
:100C000076956795B8F37105B9F7802D952F0895FE
:100C1000991B79E004C0991F961708F0961B881F4E
:0C0C20007A95C9F780950895F894FFCFED
:100C2C00010703010504060207080A0E000411025D
:100C3C000C0610033E040700000800000FA8010278
:100C4C0003051200000FA801033D04070000080073
:100C5C00000FA80104A1040500000B000001000016
:100C6C000F060104A4040500000B00000100000F96
:100C7C0006010DA3040700000800000A00000E0086
:100C8C00000000000400001100000200000C000035
:100C9C000600001000000300000F06010DA204075F
:100CAC0000000800000A00000E0000000000040014
:100CBC00001100000200000C0000060000100000F3
:100CCC000D00000F060105000007DC0008B2000A49
:100CDC00A3000E94000FA8015CFF0407000008009D
:100CEC00000A00000E0000000000040000110000CB
:100CFC000200000C00000600001000000F66014C02
:100D0C00FB040718010818010A18010E1801001835
:100D1C00010418011118010218010C180106180120
:100D2C001018010F660134F504070000083F010A92
:100D3C003F010FA8012ADB040700000800000A008D
:100D4C00000E000000000004000011000002000072
:100D5C000C00000FA80115CB040700000800000AC6
:100D6C0000000E00000FA80108000007960108758E
:100D7C00010A66010E0601008800047F0011730051
:0A0D8C000F00000703010504060232
:00000001FF
