:1000000017C031C06BC039C02EC02DC02CC02BC052
:10001000CCC029C028C03EC126C025C024C023C0F2
:1000200022C051C452C451C452C451C452C451C458
:1000300011241FBECFE5D2E0DEBFCDBF11E0A0E6A8
:10004000B0E0E4E4FBE002C005900D92AC3BB107E8
:10005000D9F722E0ACEBB1E001C01D92A330B207AA
:10006000E1F7BED46DC5CCCF2091C10121117860DC
:100070002091C001211174605EC21F920F920FB6D1
:100080000F9211242F933F934F935F936F937F931E
:100090008F939F93AF93BF93EF93FF93B29B0DC04A
:1000A0006091BC018091BD019091BE0141D48093CB
:1000B000BC018EEF9FEF9DBD8CBDFF91EF91BF9175
:1000C000AF919F918F917F916F915F914F913F91F0
:1000D0002F910F900FBE0F901F9018951F920F92A7
:1000E0000FB60F9211242F933F934F935F936F930B
:1000F0007F938F939F93AF93BF93CF93DF93EF93B0
:10010000FF93CF9B3EC0A091BD01B091BE0110975F
:1001100039F484EA91E09093BE018093BD012DC033
:100120001196ED91FC911297309789F02091BC01C6
:10013000822F90E063E070E0E6D4A80FB91F149618
:100140008D919C911597892B11F4822F09956091BF
:10015000BC018091BD019091BE01F9D39093BE0185
:100160008093BD011092BC01C4ECD1E0CE013ED120
:10017000239681E0CD3FD807C9F78EEF9FEF9DBD55
:100180008CBD89B3FF91EF91DF91CF91BF91AF917A
:100190009F918F917F916F915F914F913F912F919F
:1001A0000F900FBE0F901F9018951F920F920FB6D1
:1001B0000F9211240F931F932F933F934F935F93AD
:1001C0006F937F938F939F93AF93BF93CF93EF934F
:1001D000FF938091BD019091BE01892B41F5C3D35E
:1001E000C82F8EEF91E030D38091FE01E7D38823B2
:1001F000B1F0C23070F424EC31E04091FE01509136
:10020000FF01609100027091010280910202F1D021
:1002100006C0C43020F402D364EC71E04ED181E01A
:100220009091C101911180E08093C1011FC004EC45
:1002300011E0C0E02091BD013091BE018091BC0170
:1002400090E0019663E070E05ED4820F931FFC01A2
:1002500080818C1304C067E0C801C5D002C0C8010A
:10026000C5D0CF5F0D5F1F4FC33121F7FF91EF91D5
:10027000CF91BF91AF919F918F917F916F915F913E
:100280004F913F912F911F910F910F900FBE0F90A3
:100290001F9018951F920F920FB60F9211242F9353
:1002A0003F934F935F936F937F938F939F93AF93FE
:1002B000BF93EF93FF938091BF018230F9F058F420
:1002C0008823A9F0813079F544EC51E061E084E0C5
:1002D0005ED0706827C08430F9F0B8F0853019F529
:1002E00044EC51E061E081E052D082601BC044ECFC
:1002F00051E060E084E04BD0706414C044EC51E005
:1003000060E082E044D084600DC044EC51E061E0E4
:1003100082E03DD0886006C044EC51E060E081E0BE
:1003200036D08160A1DE8091BF018F5F8093BF01D5
:100330008091BF01863010F01092BF01FF91EF91C4
:10034000BF91AF919F918F917F916F915F914F91ED
:100350003F912F910F900FBE0F901F9018952AB3C9
:100360002F602ABB2BB3207F2BBBFC0190E0892F91
:10037000817081839A3010F4908303C087EF890FD6
:10038000808312829F5F3396933189F708950F938C
:100390001F93CF93DF93C82FD62FFA01475C5F4F8F
:1003A00060E070E0CB01A1E0B0E021812D1312C02C
:1003B00022812C2379F08D01008002C0000F111FD3
:1003C0000A94E2F7012E000C220B330B602B712BE9
:1003D000822B932B3396E417F50739F7DF91CF91F2
:1003E0001F910F910895FC0162830895FC01128210
:1003F0000895FF920F931F93CF93DF9300D000D007
:100400001F92CDB7DEB78901F901C901C9961282E1
:100410003396E817F907D9F7B4D2F80180AF809185
:10042000FE019091FF01943208F08F5F6CE07CD365
:10043000F92E911104C0A5D2F801838712C0A1D270
:10044000282FEF2DF0E0EE59FF4F808190E063E020
:1004500070E059D3800F911FFC01228392D2F801E2
:1004600087A78091FF0190D0F82EFEE1F81730F4B5
:1004700088D2F801858F8CE38F19F82EF4E1FF16EE
:1004800051F08EE1F81659F0EAE0FE120BC079D275
:10049000F801818B07C075D2F80183A303C071D224
:1004A000F80185830F900F900F900F900F90DF91C0
:1004B000CF911F910F91FF9008950F931F93CF93AA
:1004C000C82F8B01FB01CB01C996128233968E1780
:1004D0009F07D9F7C7FF04C054D2F801858FC19593
:1004E000CE3144F04ED2F80183A34BD2F801818B78
:1004F000CE510DC0C4312CF044D2F80183A3C451B5
:1005000006C0CC3024F03DD2F801818BCA5039D2DC
:10051000282FEC2FCC0FFF0BEE59FF4F808190E07E
:1005200063E070E0F0D2800F911FFC012283CF9135
:100530001F910F9108950F931F932BB3237F2BBB14
:1005400040E050E08B019C01042E04C036952795B5
:10055000179507950A94D2F700FF02C0D99A01C0F7
:10056000D998DB9ADB984F5F5F4F4431510551F7C3
:10057000DA9ADA981F910F910895EEEFF1E08083F7
:1005800061834283238308958630A0F0803150F048
:100590008A3150F0843250F08E3250F0883350F46B
:1005A00082E308958AE0089584E108958EE1089534
:1005B00088E2089580E00895982F82958F706AE010
:1005C00099D29F70890F08956AE0AED28295807F9C
:1005D000890F08958EB98BE295E09A95F1F70000A6
:1005E0008DB9CC9BFECF94E09A95F1F78DB9769BAF
:1005F000F3CF85E08A95F1F700008FB10895EF926F
:10060000FF920F931F93CF93DF93EC01162F10925D
:10061000FD01DC9ACC9BFECF84E08A95F1F7D69A57
:10062000D49ADE9884E08A95F1F7DC9885E08A9583
:10063000F1F70000DE9A02E0FF24F394EE24EA943E
:100640008091FD01813061F018F08230C9F024C042
:10065000888180FD03C0F092FD0102C00093FD017E
:10066000DC9889918FB980EFB5DFD6988EEFB2DF35
:1006700080FF04C0DC9ADE9A80E01FC0D69A0CC0CE
:10068000D69880EFA7DF8993D69A113011F4EFB88E
:1006900001C01FB88EEF9EDF115091F6DE9885E005
:1006A0008A95F1F70000D498CC9BFECF84E08A9520
:1006B000F1F7D698CE9BFECF81E0DF91CF911F91CD
:1006C0000F91FF90EF900895CF93DF9300D01F928A
:1006D000CDB7DEB7880F89836A834B8363E0CE0191
:1006E00001968DDF0F900F900F90DF91CF910895BD
:1006F0000F931F93CF93DF9300D000D01F92CDB7FD
:10070000DEB74983852F6B837C83122F5DDF482FF3
:1007100061E088E6D9DF898157DF482F62E088E60B
:10072000D3DF812F51DF482F63E088E6CDDF8B8157
:100730004BDF482F64E088E6C7DF8C8145DF482F18
:1007400065E088E6C1DF802F3FDF482F66E088E65E
:100750000F900F900F900F900F90DF91CF911F91FE
:100760000F91B2CF8F929F92AF92BF92CF92DF92B2
:10077000EF92FF920F931F93CF93DF93CDB7DEB726
:10078000182F062F4901ADB6BEB6C62ED12CC60114
:1007900001962DB73EB7281B390B0FB6F8943EBF14
:1007A0000FBE2DBF8DB79EB701967C01812F880F9C
:1007B000EDB7FEB78183F701418362E0C7011FDF18
:1007C000110F1160F701108361E0600FC70117DF9F
:1007D000882391F021E0822F90E0C816D9065CF0C2
:1007E000F401E80FF91F3197D701A80FB91F8C91B9
:1007F00080832F5FF0CF81E00FB6F894BEBE0FBEAE
:10080000ADBEDF91CF911F910F91FF90EF90DF90E0
:10081000CF90BF90AF909F908F900895CF93DF932C
:100820001F92CDB7DEB719829E012F5F3F4F41E186
:1008300061E088E697DF882311F0898101C080E0BC
:100840000F90DF91CF9108950F931F93CF93DF9374
:10085000CDB7DEB727970FB6F894DEBF0FBECDBF7A
:100860008C019E012F5F3F4F87E0F90111928A951D
:10087000E9F740E067E088E675DF882389F08B813F
:100880009BDEF80180838A8197DEF80181838D8168
:1008900093DEF80182838E818FDEF801838381E00D
:1008A00027960FB6F894DEBF0FBECDBFDF91CF9174
:1008B0001F910F91089590E08730910568F4FC0135
:1008C000EF5EFF4F099487E005C087E803C087E427
:1008D00001C087E28093C20108958093C301089507
:1008E0000895813079F028F0823049F0833051F05A
:1008F00008958EB585608EBD1092620008959EB5F4
:10090000946002C09EB595609EBD8093620008957C
:1009100081E0E7DF87E08093C2018EB585608EBD00
:1009200008950895089508950895089508950895DF
:10093000262F30E02F5F3F4FFC01808190E0281789
:1009400039071CF481E0860F089580E008959C012A
:10095000862F90E063E070E0D6D0820F931FFC01F9
:1009600084819581089580916200823011F481E044
:1009700003C0813019F482E08093620080916200AC
:1009800008958091C20187FF0FC0873818F080E872
:100990008093C201E091C201EF5FE093C201F0E0F9
:1009A000E251F04080810895803420F4813220F4B7
:1009B00087E0089584E0089581E00895982F80915C
:1009C000C301882359F080916100981728F081E0D5
:1009D00020916000291718F480E0089581E00895BF
:1009E00084EC91E0BCDC8AB38F758ABBBA988BB378
:1009F000806A8BBBC29A609A89B7816089BF8BB7C6
:100A000080638BBF82B3806A82BB80B5846080BD07
:100A100078946FEF73EC8FE090E026DB2FEF89E6A0
:100A200098E1215080409040E1F700C000006FEF56
:100A300073E08CE090E018DB2FEF89E698E121501D
:100A400080409040E1F700C000006FEF73EC80E061
:100A500090E00ADB2FEF89E698E12150804090403A
:100A6000E1F700C000006FEF73E083E090E0FCDA94
:100A70002FEF89E698E1215080409040E1F700C0D7
:100A800000006FEF73E08FE090E0EEDA2FEF89E681
:100A900098E1215080409040E1F700C000006FEFE6
:100AA00073EC83E090E0E0DA2FEF89E698E12150E3
:100AB00080409040E1F700C000006FEF73EC8CE0E5
:100AC00090E0D2DA2FEF89E698E121508040904003
:100AD000E1F700C000008EB585608EBD83B78360EE
:100AE00083BF2CE047E06AE080E047DD8EEF91E0D5
:100AF000ABDEFFCF002480FD060E660F11F0869559
:100B0000D1F7802D08950024552704C0080E591FE1
:100B1000880F991F009729F076956795B8F37105AE
:100B2000B9F7802D952F0895991B79E004C0991F7E
:100B3000961708F0961B881F7A95C9F78095089537
:040B4000F894FFCF57
:100B440016070107080A0E000411020C0610070319
:100B540001050406020370040700000800000FA446
:100B6400010288041200000FA4010391040700008D
:100B74000800000FA4010497040500000B00000105
:100B840000000F08010496040500000B000001009A
:100B9400000F08010D95040700000800000A00007A
:100BA4000E00000000000400001100000200000C10
:100BB40000000600001000000300000F08010D945F
:100BC400040700000800000A00000E0000000000F6
:100BD4000400001100000200000C000006000010D8
:100BE40000000D00000F080105000007DE0008B436
:100BF400000AA5000E96000FA4010C930407000040
:100C04000800000A00000E000000000004000011AB
:100C140000000200000C00000600001000000F6835
:100C2400010C9204071A01081A010A1A010E1A018A
:100C3400001A01041A01111A01021A010C1A010600
:100C44001A01101A010F6801046D0407000008411D
:100C5400010A41010FA401085B0407000008000019
:100C64000A00000E00000000000400001100000F44
:100C7400A4010571040700000800000A00000E002A
:100C8400000FA4010700000792010877010A680118
:0C0C94000E0801008A00048100117500A8
:00000001FF
