:1000000019C020C01FC01EC01DC01CC01BC01AC00C
:1000100019C018C017C016C015C014C013C012C034
:1000200011C010C00FC00EC00DC00CC00BC00AC064
:1000300009C008C011241FBECFEFD4E0DEBFCDBF82
:100040002CD0ACC0DDCF1092C5008DE48093C400ED
:10005000E1ECF0E0808188618083E2ECF0E0808177
:10006000866880830895982F8091C00085FFFCCF1B
:100070009093C60008958091C0008091C6000895B5
:10008000FC0107C08091C00085FFFCCF31969093A2
:10009000C60090811916B4F308959F92AF92BF9253
:1000A000CF92DF92EF92FF920F931F93DF93CF9344
:1000B00000D000D000D0CDB7DEB7209AC4DF00E07A
:1000C00010E020E6A22E2AEEB22E9CE2C92E91E08C
:1000D000D92E7E010894E11CF11C8AE0982E289A02
:1000E000C5010197F1F7289888E496E2F601319767
:1000F000F1F70197D9F70F5F1F4FC801B7014AE029
:1001000050E009D0C701BCDF8091C00085FFFCCF63
:100110009092C600E4CFFB019F01E8944230BCF00E
:100120004532ACF44A3029F497FB1EF49095819542
:100130009F4F642F77271ED0805D8A330CF0895D36
:100140008193CB010097A9F716F45DE251931082D9
:10015000C90100C0DC01FC01672F71917723E1F731
:10016000329704C07C916D9370836291AE17BF0784
:10017000C8F30895AA1BBB1B51E107C0AA1FBB1FF0
:10018000A617B70710F0A61BB70B881F991F5A9523
:10019000A9F780959095BC01CD010895F894FFCF03
:00000001FF
