:100000000C9418010C9440010C9440010C94400194
:100010000C9440010C9440010C9440010C9440015C
:100020000C9440010C9440010C9440010C9440014C
:100030000C9440010C9440010C9440010C9440013C
:100040000C9472060C9440010C9440060C941A0611
:100050000C9440010C9440010C9440010C9440011C
:100060000C94BC060C944001093F203D2068656C4F
:1000700070202D20746869732070616765000968BD
:10008000203D20746F67676C6520686561646572E8
:10009000202D206E6F4865616465722E0009702006
:1000A0003D20746F67676C65207072696E74416C77
:1000B0006C202D207072696E74466F756E642E0010
:1000C0000964203D20746F67676C65206C617465FE
:1000D0006E63792064656C6179206265747765650B
:1000E0006E207375636365737366756C20746573D6
:1000F00074732E000971203D207175697420636F3F
:100100006E74696E756F7573207363616E00096339
:10011000203D20636F6E74696E756F757320736315
:10012000616E202D2031207365636F6E64206465DD
:100130006C6179000973203D2073696E676C6520DE
:100140007363616E000A41726475696E6F20493293
:1001500043205363616E6E6572202D20302E312E48
:1001600030330A00206D696C6C697365636F6E646F
:10017000732E00206465766963657320666F756E03
:100180006420696E20002E00560009000900093025
:10019000780009002D2D2D2D2D2D2D2D00095B4BC7
:1001A000487A5D00090054494D45094445430948D2
:1001B00045580900666F756E643E00616C6C3E00C8
:1001C0003C7072696E743D006E6F3E007965733EDF
:1001D000003C6865616465723D00303E00353E005C
:1001E0003C64656C61793D0000000000250028003A
:1001F0002B000404040404040404020202020202A8
:1002000003030303030301020408102040800102DA
:100210000408102001020408102000000008000259
:100220000100000304070000000000000000DB07DD
:1002300011241FBECFEFD8E0DEBFCDBF11E0A0E09C
:10024000B1E0E6E7F3E102C005900D92A634B107F4
:10025000D9F722E0A6E4B1E001C01D92A73BB207A6
:10026000E1F711E0C8E1D1E004C02197FE010E944E
:10027000A409C731D107C9F70E9414080C94B90921
:100280000C94000090E0FC01E65EFD4F2491FC011F
:10029000EA5FFD4F3491FC01EE50FE4FE491EE23F6
:1002A000B1F0222339F02330E9F090F4213001F14C
:1002B000223011F1F0E0EE0FFF1FE851FE4FA59143
:1002C000B4918FB7F894EC913E2B3C938FBF089577
:1002D0002730A9F02830C9F0243061F780918000E0
:1002E0008F7D03C0809180008F7780938000E2CF64
:1002F00084B58F7784BDDECF84B58F7DFBCF8091B1
:10030000B0008F778093B000D5CF8091B0008F7D03
:10031000F9CF08950895AF92BF92CF92DF92EF92F6
:10032000FF920F931F93CF93DF936C017B018B019F
:10033000040F151FEB015E01AE18BF08C017D107EF
:1003400059F06991D601ED91FC910190F081E02D79
:10035000C6010995892B79F7C501DF91CF911F91CE
:100360000F91FF90EF90DF90CF90BF90AF900895E6
:10037000FC01538D448D252F30E0842F90E0821BAB
:10038000930B541710F0CF96089501970895FC0130
:10039000918D828D981761F0A28DAE0FBF2FB11D88
:1003A0005D968C91928D9F5F9F73928F90E00895E0
:1003B0008FEF9FEF0895FC01918D828D981731F09A
:1003C000828DE80FF11D858D90E008958FEF9FEFEE
:1003D0000895FC01918D228D892F90E0805C9F4FC4
:1003E000821B91098F73992708958EE092E00E94F5
:1003F000E90121E0892B09F420E0822F089580E0B3
:1004000090E0892B29F00E94F50181110C940000E5
:100410000895FC01A48DA80FB92FB11DA35ABF4F99
:100420002C91848D90E001968F739927848FA689F3
:10043000B7892C93A089B1898C91837080648C9347
:10044000938D848D981306C00288F389E02D8081F6
:100450008F7D80830895EF92FF920F931F93CF9328
:10046000DF93EC0181E0888F9B8D8C8D98131AC0EF
:10047000E889F989808185FF15C09FB7F894EE89D6
:10048000FF896083E889F989808183708064808333
:100490009FBF81E090E0DF91CF911F910F91FF907E
:1004A000EF900895F62E0B8D10E00F5F1F4F0F7326
:1004B0001127E02E8C8D8E110CC00FB607FCFACFE1
:1004C000E889F989808185FFF5CFCE010E94090274
:1004D000F1CFEB8DEC0FFD2FF11DE35AFF4FF082B2
:1004E0009FB7F8940B8FEA89FB8980818062CFCF18
:1004F0000F931F93CF93DF938C01D0E0C0E0F801FE
:10050000EC0FFD1F6491662341F08EE092E00E94A3
:100510002B02892B11F02196F2CFCE01DF91CF91E2
:100520001F910F910895CF93DF93EC01888D88235D
:10053000B9F0AA89BB89E889F9898C9185FD03C046
:10054000808186FD0DC00FB607FCF7CF8C9185FF2B
:10055000F2CF808185FFEDCFCE010E940902E9CF65
:10056000DF91CF9108953FB7F8948091FC0190916D
:10057000FD01A091FE01B091FF0126B5A89B05C029
:100580002F3F19F00196A11DB11D3FBFBA2FA92F12
:10059000982F8827BC01CD01620F711D811D911D0F
:1005A00042E0660F771F881F991F4A95D1F708957B
:1005B0008F929F92AF92BF92CF92DF92EF92FF9273
:1005C0004B015C010E94B3026B017C010E94B302EB
:1005D0006C197D098E099F09683E7340810591055C
:1005E000A8F321E0821A9108A108B10888EEC80E8C
:1005F00083E0D81EE11CF11C81149104A104B10414
:1006000029F7FF90EF90DF90CF90BF90AF909F9031
:100610008F90089585ED8093BC008091BC0084FD8F
:10062000FCCF1092060208952091B001260F3327C7
:10063000331F21323105ECF420910602FC0190E0D9
:1006400080E0243069F082E00895A091B00121910A
:10065000AC0140575E4FA40FB52FB11D2C930196EE
:10066000861798F38091B001680F6093B00180E025
:10067000089581E008950895E0910A0280910902A9
:10068000E81730F4F0E0E059FE4F808190E00895E3
:100690008FEF9FEF089590910A02809109022FEF4A
:1006A0003FEF981748F4E92FF0E0E059FE4F208122
:1006B00030E09F5F90930A02C9010895809109027A
:1006C00090910A02891B990B0895CF92DF92EF92C5
:1006D000FF920F931F93CF93DF937C01CB018A018D
:1006E00020916F01222389F0EB016B01C40ED51E0E
:1006F000CC15DD0569F06991D701ED91FC91019070
:10070000F081E02DC7010995F3CF642F0E941403F7
:10071000C801DF91CF911F910F91FF90EF90DF9073
:10072000CF900895CF93DF931F92CDB7DEB7698343
:1007300020916F012223F9F020910702203258F016
:1007400021E030E0FC013383228390E080E00F90D1
:10075000DF91CF91089580910802E82FF0E0E15BEE
:10076000FE4F998190838F5F8093080280930702E8
:1007700081E090E0ECCF61E0CE0101960E9414038D
:10078000F7CF90E080E008958F929F92AF92BF9252
:100790000F931F93CF93DF93CDB7DEB7A1970FB61B
:1007A000F894DEBF0FBECDBF19A2423008F44AE074
:1007B0008E010F5D1F4F842E912CB12CA12CA50111
:1007C00094010E945809E62FB901CA01EA3044F5A4
:1007D000E05DD801EE938D01232B242B252B79F797
:1007E00090E080E0109769F0FD0101900020E9F7AA
:1007F0003197AF014A1B5B0BBD018EE092E00E9476
:100800008B01A1960FB6F894DEBF0FBECDBFDF916E
:10081000CF911F910F91BF90AF909F908F900895AF
:10082000E95CD7CF42E050E062E471E08EE092E014
:100830000C948B01CF93DF930E947802EC010E940D
:1008400012048C0F9D1FDF91CF91089585E491E0F4
:100850000E941A0484E391E00E941A048EE091E061
:100860000E941A0484EF90E00E941A0480EC90E049
:100870000E941A048DE990E00E941A048EE790E02D
:100880000E941A0488E690E00E941A040C94120454
:100890002F923F924F925F926F927F928F929F9290
:1008A000AF92BF92CF92DF92EF92FF920F931F937E
:1008B000CF93DF93CDB7DEB72B970FB6F894DEBF9B
:1008C0000FBECDBF2FB7F8948091F8019091F90138
:1008D000A091FA01B091FB012FBF80934B0190933F
:1008E0004C01A0934D01B0934E01809101018823EA
:1008F000A9F186EA91E00E94780202E011E084EA20
:1009000091E00E947802F801C190D190E190F190BD
:100910008F014AE0C701B601F7FE0DC06DE28EE01F
:1009200092E00E942B0266277727CB016C197D0984
:100930008E099F094AE00E94C403F1E00E311F07AF
:10094000F1F68DE991E00E941A041CE084E991E03F
:100950000E9478021150D1F70E94120498E0C92E2B
:10096000D12CE12CF12C10E022E0222E312C412C54
:10097000512C77247394CA86809100018B876C2C4C
:10098000660C82E0882E81E0982EFE0131965F0190
:10099000F987E88700E0F40121913191419151916B
:1009A0004F01A8EEB3E00E9499099B01AC0160E001
:1009B00074E284EF90E00E947A09CA01B9016051A3
:1009C000710981099109A20191010E947A0920937C
:1009D000B80070926F01FA85F093460110920802F8
:1009E00010920702809106028111FCCF82E0809371
:1009F0000602709205029FEF9093D3011092F501C9
:100A00001092F4011092F6018091F60186298093EC
:100A1000F60180910402813009F0E6C010920402D0
:100A20008091F6018093BB008091BC0083FDF8CFDC
:100A3000E5ECE093BC00809106028230E1F3809106
:100A4000D3018F3F09F4D4C08091D301803209F4DF
:100A5000D1C08091D301803309F4CEC084E01092DC
:100A600008021092070210926F0191E0811190E04C
:100A7000E885F9859193F987E887092B51F08091F2
:100A80000B02882331F065E070E080E090E00E9486
:100A9000D802FEE18F16F1E09F0609F07CCF01112C
:100AA0001F5F8B85811102C00023D1F12FB7F8940D
:100AB0006091F8017091F9018091FA019091FB0128
:100AC0002FBF4AE00E94C40382E991E00E947802AD
:100AD0004AE0C701B6010E94C4038EE891E00E947B
:100AE000780240E1C701B6010E94C4038CE891E09E
:100AF0000E947802450197E0890E911C8AE891E0F6
:100B00000E947802F50181915F01811177C086E82A
:100B100091E00E947802A814B90481F70E9412049F
:100B2000FFEFCF1ADF0AEF0AFF0A88E7C816D104E1
:100B3000E104F10409F01FCF2FB7F8948091F80178
:100B40009091F901A091FA01B091FB012FBF809320
:100B5000470190934801A0934901B0934A018091C5
:100B60000101882309F44DC00E941204612F70E036
:100B700090E080E04AE00E94C40383E791E00E9495
:100B800078026091470170914801809149019091EC
:100B90004A0100914B0110914C0120914D0130917F
:100BA0004E01601B710B820B930B4AE00E94C40341
:100BB00084E691E02B960FB6F894DEBF0FBECDBF52
:100BC000DF91CF911F910F91FF90EF90DF90CF9029
:100BD000BF90AF909F908F907F906F905F904F905D
:100BE0003F902F900C941A04F5EEF093BC0023CFA5
:100BF00080E035CF82E033CF83E031CF88E891E0E9
:100C000088CF2B960FB6F894DEBF0FBECDBFDF9115
:100C1000CF911F910F91FF90EF90DF90CF90BF90F9
:100C2000AF909F908F907F906F905F904F903F908C
:100C30002F9008951F920F920FB60F9211242F93A9
:100C40003F934F935F936F937F938F939F93AF9354
:100C5000BF93EF93FF938EE092E00E940902FF9111
:100C6000EF91BF91AF919F918F917F916F915F9124
:100C70004F913F912F910F900FBE0F901F9018959D
:100C80001F920F920FB60F9211242F938F939F9361
:100C9000EF93FF93E0911E02F0911F028081E0919B
:100CA0002402F091250282FD1BC0908180912702D1
:100CB0008F5F8F7320912802821741F0E091270205
:100CC000F0E0E25FFD4F958F80932702FF91EF9157
:100CD0009F918F912F910F900FBE0F901F9018959D
:100CE0008081F4CF1F920F920FB60F9211242F9391
:100CF0003F938F939F93AF93BF938091F80190910F
:100D0000F901A091FA01B091FB013091F70123E0C4
:100D1000230F2D3758F50196A11DB11D2093F70122
:100D20008093F8019093F901A093FA01B093FB012D
:100D30008091FC019091FD01A091FE01B091FF0115
:100D40000196A11DB11D8093FC019093FD01A0931C
:100D5000FE01B093FF01BF91AF919F918F913F91A1
:100D60002F910F900FBE0F901F90189526E8230F1C
:100D70000296A11DB11DD2CF1F920F920FB60F92F6
:100D800011242F933F934F935F936F937F938F9390
:100D90009F93AF93BF93EF93FF938091B900887FA8
:100DA000803609F44AC0F0F5883209F4A7C018F576
:100DB000803109F49BC0B8F4882309F4F9C0883065
:100DC00009F494C0FF91EF91BF91AF919F918F91E2
:100DD0007F916F915F914F913F912F910F900FBE37
:100DE0000F901F901895883109F488C0803251F710
:100DF0008093D30114C0803409F49DC040F4803343
:100E0000B9F38833F9F68093D30185ECB0C080350F
:100E100009F485C0883509F496C0883499F60E9493
:100E20000A03D0CF883909F48CC038F5883729F007
:100E300050F4883611F0803729F683E0809306025B
:100E40001092D20157C0883809F47BC0803919F05C
:100E5000803809F0B7CF8091D201803208F071C09C
:100E6000E091D20181E08E0F8093D2018091BB008E
:100E7000F0E0EE54FE4F80833DC0803B39F0E0F45B
:100E8000803A09F479C0883A09F09CCF84E08093D5
:100E900006021092B1011092B001E0910202F091AD
:100EA000030209958091B00181110FC081E0809308
:100EB000B0011092900109C0803C09F4A6CF883C93
:100EC00009F4A3CF883B09F07DCFE091B10181E027
:100ED0008E0F8093B101F0E0E057FE4F8081809348
:100EE000BB009091B1018091B00129C08091F601C1
:100EF0008093BB0085EC8093BC0064CF9091F5019A
:100F00008091F401981758F5E091F50181E08E0F7A
:100F10008093F501F0E0EC52FE4F8081E9CFE09143
:100F2000F50181E08E0F8093F5018091BB00F0E028
:100F3000EC52FE4F80839091F5018091F401981757
:100F4000C8F285E8D8CFE091F50181E08E0F80935B
:100F5000F5018091BB00F0E0EC52FE4F8083809160
:100F6000050281115CCF81E08093040284EA8093C2
:100F7000BC001092060226CF85EC8093BC00109234
:100F800006028091D201803230F4E091D201F0E08B
:100F9000EE54FE4F10826091D20170E0E0910002A9
:100FA000F091010282EB91E009951092D2010ACFF3
:100FB0001092D30134CFEEE0F2E01382128288EE79
:100FC00093E0A0E0B0E084839583A683B78322E218
:100FD00031E03183208325EC30E03587248724EC11
:100FE00030E03787268720EC30E0318B208B21ECF6
:100FF00030E0338B228B22EC30E0358B248B26ECD7
:1010000030E0378B268B118E128E138E148EEBEA06
:10101000F2E01382128284839583A683B78384E3EC
:1010200091E0918380830895789484B5826084BD33
:1010300084B5816084BD85B5826085BD85B58160DC
:1010400085BD80916E00816080936E00109281005A
:101050008091810082608093810080918100816015
:1010600080938100809180008160809380008091D6
:10107000B10084608093B1008091B0008160809362
:10108000B00080917A00846080937A0080917A0029
:10109000826080937A0080917A00816080937A00E8
:1010A00080917A00806880937A001092C100E0916C
:1010B0001E02F0911F0282E08083E0911A02F091FB
:1010C0001B021082E0911C02F0911D0280E18083DE
:1010D00010922602E0912202F091230286E08083A2
:1010E000E0912002F0912102808180618083E09173
:1010F0002002F0912102808188608083E0912002AB
:10110000F0912102808180688083E0912002F0913B
:10111000210280818F7D808310920A021092090241
:1011200010920802109207021092060281E080934A
:1011300005021092040282E10E94420183E10E94B2
:1011400042018091B9008E7F8093B9008091B900EF
:101150008D7F8093B90088E48093B80085E4809304
:10116000BC0089E891E090930302809302028AE830
:1011700091E090930102809300020E94260480E097
:10118000E82E80E0F82E03E010E0CC24C394D12CAC
:1011900022E0A22EB12CD1E08EE092E00E94E90183
:1011A000892B79F18EE092E00E94C701883609F41C
:1011B0005FC06CF4833609F444C0843609F446C039
:1011C0008F33F9F410930D0200930C021AC081378B
:1011D000C9F3833791F08037A1F4C0910001CD2786
:1011E000C093000180EC91E00E94780284EB91E0D2
:1011F000CC23D9F18BEB91E038C0D0920D02C09294
:101200000C0280910C0290910D028230910509F43C
:101210003FC08330910509F444C0019731F40E9426
:10122000480410930D0200930C02E114F10409F438
:10123000B3CF0E94F501882309F4ADCF0E940000CE
:10124000AACFB0920D02A0920C02DBCFC0910B028C
:10125000CD27C0930B0280EE91E00E9478028AEDC8
:1012600091E0CC2311F08DED91E00E941A04C9CFDA
:10127000C0910101CD27C093010181ED91E00E9451
:10128000780288EC91E0CC2381F38CEC91E0EDCFF7
:101290000E94480468EE73E080E090E00E94D8026B
:1012A000C4CF0E94260410920D0210920C02BDCFF2
:1012B000A1E21A2EAA1BBB1BFD010DC0AA1FBB1F5A
:1012C000EE1FFF1FA217B307E407F50720F0A21BCC
:1012D000B30BE40BF50B661F771F881F991F1A9439
:1012E00069F760957095809590959B01AC01BD0163
:1012F000CF010895052E97FB1EF400940E949109DA
:1013000057FD07D00E94580907FC03D04EF40C94F7
:10131000910950954095309521953F4F4F4F5F4F24
:10132000089590958095709561957F4F8F4F9F4F51
:1013300008950E94AA09A59F900DB49F900DA49FA7
:10134000800D911D11240895EE0FFF1F0590F4915B
:10135000E02D0994A29FB001B39FC001A39F700D1F
:10136000811D1124911DB29F700D811D1124911DAD
:061370000895F894FFCF80
:1013760001013200000064000000C8000000FA000D
:10138600000090010000F4010000200300000000AE
:1013960000002B028B01B8019302E901C701DB01B2
:1013A6000000000092036503C1033B035E034B0389
:0613B6003C030D0A0000DB
:00000001FF
