:100000000C94A4000C94CC000C94CC000C94CC0068
:100010000C94CC000C94CC000C94CC000C94CC0030
:100020000C94CC000C94CC000C94CC000C94CC0020
:100030000C94CC000C94CC000C94CC000C94CC0010
:100040000C9492090C94CC000C9460090C943A091D
:100050000C94CC000C94CC000C94CC000C94CC00F0
:100060000C94DC090C94CC0008000000BE922449DA
:10007000123EABAAAA2ABECDCCCC4C3E00000080DA
:10008000BEABAAAAAA3E00000000BF000000803F4D
:100090000000000000084178D3BB4387D1133D190D
:1000A0000E3CC3BD4282AD2B3E68EC8276BED98F3A
:1000B000E1A93E4C80EFFFBE01C4FF7F3F0000007E
:1000C000000007634236B79BD8A71A39685618AEA6
:1000D000BAAB558C1D3CB7CC5763BD6DEDFD753E7D
:1000E000F6177231BF000000803F000000002400BE
:1000F00027002A0000000000250028002B00000037
:10010000000023002600290004040404040404045D
:1001100002020202020203030303030301020408B2
:100120001020408001020408102001020408102061
:1001300000000008000201000003040700000000A6
:1001400000000000F40B0B1911241FBECFEFD8E004
:10015000DEBFCDBF28E0A2EDB3E001C01D92A93102
:10016000B207E1F713E0A0E0B1E0EAE6FEE302C087
:1001700005900D92A23DB107D9F710E0C3EAD0E097
:1001800004C02197FE010E94301DC23AD107C9F771
:100190000E9488110C94281F0C940000982F209125
:1001A000940481E0213208F043C0809170048111F1
:1001B000FCCF8091930432E03093700490936F04ED
:1001C0009FEF90936E0410926D0420936C04A3E74C
:1001D000B4E0ECE4F4E090E0291331C010924B0459
:1001E00090914B04880F892B80934B0480914A0493
:1001F000813049F510924A0480914B048093BB00F2
:100200008091BC0083FDF8CF85EC8093BC00809189
:1002100070048230E1F380916E048F3FB1F08091E1
:100220006E048032A1F080916E04803391F084E0FE
:1002300010927204109294041092710408953D91EA
:1002400031939F5FC9CF85EEE0CF80E0F1CF82E0B0
:10025000EFCF83E0EDCF8091280490912904891B92
:10026000990B089508950895AF92BF92CF92DF92AF
:10027000EF92FF920F931F93CF93DF936C017B015B
:100280008B01040F151FEB015E01AE18BF08C017EC
:10029000D10759F06991D601ED91FC910190F0815F
:1002A000E02DC6010995892B79F7C501DF91CF9122
:1002B0001F910F91FF90EF90DF90CF90BF90AF9084
:1002C0000895FC01538D448D252F30E0842F90E05C
:1002D000821B930B541710F0CF9608950197089541
:1002E000FC01918D828D981761F0A28DAE0FBF2F0A
:1002F000B11D5D968C91928D9F5F9F73928F90E060
:1003000008958FEF9FEF0895FC01918D828D9817CE
:1003100031F0828DE80FF11D858D90E008958FEF0B
:100320009FEF0895FC01918D228D892F90E0805CD4
:100330009F4F821B91098F739927089585E994E057
:100340000E94920121E0892B09F420E0822F089578
:1003500080E090E0892B29F00E949E0181110C948D
:1003600000000895FC01A48DA80FB92FB11DA35A58
:10037000BF4F2C91848D90E001968F739927848FC5
:10038000A689B7892C93A089B1898C9183708064E8
:100390008C93938D848D981306C00288F389E02D89
:1003A00080818F7D80830895EF92FF920F931F933A
:1003B000CF93DF93EC0181E0888F9B8D8C8D981318
:1003C0001AC0E889F989808185FF15C09FB7F89424
:1003D000EE89FF896083E889F98980818370806470
:1003E00080839FBF81E090E0DF91CF911F910F91BB
:1003F000FF90EF900895F62E0B8D10E00F5F1F4FCA
:100400000F731127E02E8C8D8E110CC00FB607FCD8
:10041000FACFE889F989808185FFF5CFCE010E9466
:10042000B201F1CFEB8DEC0FFD2FF11DE35AFF4F21
:10043000F0829FB7F8940B8FEA89FB8980818062F4
:10044000CFCFCF93DF93EC01888D8823B9F0AA89B1
:10045000BB89E889F9898C9185FD03C0808186FD7F
:100460000DC00FB607FCF7CF8C9185FFF2CF8081CE
:1004700085FFEDCFCE010E94B201E9CFDF91CF9190
:100480000895833081F028F4813099F08230A9F00A
:1004900008958730A9F08830C9F08430B1F4809194
:1004A00080008F7D03C0809180008F7780938000D3
:1004B000089584B58F7784BD089584B58F7DFBCF73
:1004C0008091B0008F778093B00008958091B00044
:1004D0008F7DF9CFCF93DF93282F30E0F901E05DD6
:1004E000FE4F8491F901E45EFE4FD491F901E85F7B
:1004F000FE4FC491CC23A1F081110E944102EC2F48
:10050000F0E0EE0FFF1FE250FF4FA591B491EC9188
:10051000ED2381E090E009F480E0DF91CF91089530
:1005200080E090E0FACF1F93CF93DF93282F30E045
:10053000F901E05DFE4F8491F901E45EFE4FD49134
:10054000F901E85FFE4FC491CC23A9F0162F811169
:100550000E944102EC2FF0E0EE0FFF1FEC50FF4F26
:10056000A591B4918FB7F894EC91111108C0D09572
:10057000DE23DC938FBFDF91CF911F910895DE2B97
:10058000F8CFCF93DF9390E0FC01E45EFE4F24911F
:10059000885F9E4FFC0184918823C9F090E0880F0A
:1005A000991FFC01E651FF4FA591B491FC01EC505D
:1005B000FF4FC591D49161110DC09FB7F8948C91F4
:1005C000209582238C938881282328839FBFDF91E5
:1005D000CF910895623051F49FB7F8943C91822FE7
:1005E000809583238C93E8812E2BEFCF8FB7F894DF
:1005F000EC912E2B2C938FBFEACF3FB7F8948091CC
:100600001A0490911B04A0911C04B0911D0426B5FE
:10061000A89B05C02F3F19F00196A11DB11D3FBF3A
:10062000BA2FA92F982F8827BC01CD01620F711D09
:10063000811D911D42E0660F771F881F991F4A9503
:10064000D1F708958F929F92AF92BF92CF92DF928F
:10065000EF92FF924B015C010E94FD026B017C0155
:100660000E94FD026C197D098E099F09683E734046
:1006700081059105A8F321E0821A9108A108B1082B
:1006800088EEC80E83E0D81EE11CF11C8114910491
:10069000A104B10429F7FF90EF90DF90CF90BF90B5
:1006A000AF909F908F9008952FB7F89460911604A3
:1006B0007091170480911804909119042FBF089528
:1006C00085ED8093BC008091BC0084FDFCCF10922E
:1006D000700408952091F203260F3327331F21322F
:1006E0003105ECF420917004FC0190E080E02430AE
:1006F00069F082E00895A091F2032191AC014E527D
:100700005C4FA40FB52FB11D2C930196861798F35B
:100710008091F203680F6093F20380E0089581E016
:1007200008950895E091290480912804E81730F491
:10073000F0E0E65DFB4F808190E008958FEF9FEF42
:10074000089590912904809128042FEF3FEF981786
:1007500048F4E92FF0E0E65DFB4F208130E09F5F39
:1007600090932904C9010895CF92DF92EF92FF92EE
:100770000F931F93CF93DF937C01CB018A012091CC
:100780007104222389F0EB016B01C40ED51ECC1538
:10079000DD0569F06991D701ED91FC910190F0813F
:1007A000E02DC7010995F3CF642F0E946A03C801A9
:1007B000DF91CF911F910F91FF90EF90DF90CF903D
:1007C0000895CF93DF931F92CDB7DEB76983209151
:1007D00071042223F9F020919404203258F021E092
:1007E00030E0FC013383228390E080E00F90DF91C2
:1007F000CF91089580917204E82FF0E0ED58FB4FFF
:10080000998190838F5F809372048093940481E038
:1008100090E0ECCF61E0CE0101960E946A03F7CF31
:10082000089590E080E00895CF93DF93FC01C585A3
:10083000D68545E050E081E090E0258536852C178F
:100840003D0719F54150510901F19E01280F391F4B
:1008500024303105ACF024503109D901AA0FBB1F57
:10086000AE0FBF1F0D90BC91A02D109731F0569682
:10087000AC91AA2311F036872587860F971FDDCF0D
:1008800037FFEBCF2C5F3F4FE8CFDF91CF9108953B
:10089000CF92DF92EF92FF920F931F93CF93DF934C
:1008A000EB0191E0909371049AE690939304109277
:1008B000720410929404682F82E395E00E94E10391
:1008C00080E00E94CE00809170048111FCCF9C2FAB
:1008D00081E08093700480936F042FEF20936E0467
:1008E00010926D042C2F215020936C0480934B04A4
:1008F00080914B04846D80934B0480914A04813035
:1009000009F047C010924A0480914B048093BB00C9
:100910008091BC0083FDF8CF85EC8093BC00809172
:1009200070048130E1F380916D04891710F4909187
:100930006D04ECE4F4E0AAE2B4E080E089132BC09B
:10094000109229048093280490E08C179D07ECF303
:10095000C12CD12C760110E000E082E395E00E94EA
:10096000A103FE2CED2CDC2CCC24C80ED11CE11CE8
:10097000F11C0F5F1F4FC017D10779F7C701B601F0
:10098000DF91CF911F910F91FF90EF90DF90CF906B
:10099000089585EEC2CF21912D938F5FCFCFCF9356
:1009A000DF93EC0160E08E810E94930261E08E8112
:1009B0000E94930260E08E810E9493028BE891E096
:1009C0000197F1F7DF91CF910895CF92DF92EF92E7
:1009D000FF920F931F93CF93DF936C017C0187E00D
:1009E000E80EF11CD0E0C0E0062F10E0B8010C2E9C
:1009F00002C0759567950A94E2F76170F7018191DD
:100A00007F010E9493022196C430D10579F7C60177
:100A1000DF91CF911F910F91FF90EF90DF90CF90DA
:100A20000C94CF04CF92DF92EF92FF920F931F931B
:100A3000CF93DF93EC01F62E642F8C810E949302FA
:100A40008D818F3F19F060E00E9493020F2D10E01E
:100A50008F8584FF25C06E0187E0C80ED11CF12C64
:100A6000E12CB8010E2C02C0759567950A94E2F747
:100A70006170F60181916F010E949302FFEFEF1AFE
:100A8000FF0A88E0E816F10461F7CE01DF91CF910B
:100A90001F910F91FF90EF90DF90CF900C94CF04B7
:100AA000B80184E0759567958A95E1F7CE010E94BB
:100AB000E5046F2DCE01DF91CF911F910F91FF9033
:100AC000EF90DF90CF900C94E50440E0682F86ED26
:100AD00097E00C941205643008F063E09091E90708
:100AE000691710F06FEF690FE62FF0E0EA52F84F48
:100AF0009489890F80680C94650581E00E946505E2
:100B00008BE39FE10197F1F70895CF93DF93823054
:100B100029F49091E50798609093E5078093E907A1
:100B20001092EA0780E48093EB0780E18093EC0762
:100B300080E58093ED0761E08091DA070E94C102B1
:100B40008091DB078F3F19F061E00E94C10261E0F4
:100B50008091DC070E94C102C6EDD7E09E01265DB0
:100B600037408091E50784FD0BC084E090E021963A
:100B70002817390744F461E08E810E94C102EECF4C
:100B800088E090E0F4CF8BE39DE00197F1F760E01F
:100B90008091DA070E94930260E08091DC070E9456
:100BA00093028091DB078F3F19F060E00E9493026F
:100BB0008091E50784FD34C063E086ED97E00E94F4
:100BC000E504CBE4D6E4CE010197F1F763E086EDCE
:100BD00097E00E94E5042197F1F763E086ED97E046
:100BE0000E94E50483E592E00197F1F762E086ED6B
:100BF00097E00E94E5048091E50780620E94650508
:100C000084E08093E6078CE00E9465050E947D05E4
:100C100082E08093E70786E0DF91CF910C94650531
:100C200080620E9465058BE496E40197F1F780915C
:100C3000E50780620E94650583E592E00197F1F780
:100C40008091E50780620E946505D5CFCF93DF9341
:100C5000C6EDD7E088898E7F888B88600E94650505
:100C600088898D7F888B8860DF91CF910C94650592
:100C7000FC01262F4789508D60899685892F840F26
:100C8000211114C081500E946B058091E6078D7F71
:100C90008093E60788600E9465058091E607982F9B
:100CA00091609093E60789600C94650522893389E9
:100CB0000488F589E02D2E1B3F0B421753070CF0DB
:100CC0008F5F0E946B058091E607982F926090934A
:100CD000E6078A600E9465058091E6078E7F809313
:100CE000E6078860E1CF41E00E94120581E090E0D4
:100CF0000895FB0101900020E9F73197AF01461BF1
:100D0000570BDC01ED91FC910280F381E02D0994F9
:100D10008F929F92AF92BF92EF92FF920F931F9389
:100D2000CF93DF93CDB7DEB7A1970FB6F894DEBFB0
:100D30000FBECDBF7C01FA01CB0119A2223008F40D
:100D40002AE08E010F5D1F4F822E912CB12CA12C19
:100D5000BF01A50194010E940E1DF901CA016A306C
:100D60000CF5605DD8016E938D01232B242B252B70
:100D700079F790E080E0109721F0BD01C7010E9453
:100D80007906A1960FB6F894DEBF0FBECDBFDF91F6
:100D9000CF911F910F91FF90EF90BF90AF909F90D8
:100DA0008F900895695CDECFCF93DF93BC0185E916
:100DB00094E00E947906EC016CE571E085E994E02D
:100DC0000E9479068C0F9D1FDF91CF9108958FE5CA
:100DD00091E00C94D40689E791E00C94D40684E960
:100DE00091E00C94D406CF92DF92EF92FF920F9392
:100DF0001F93CF93DF9369017A0191E0909371047F
:100E000080939304109272041092940482E395E00C
:100E10000E94E103E8012197CE0123E0880F991F8A
:100E20002A95E1F7A701960104C055954795379596
:100E300027958A95D2F7B90182E395E00E94E103F4
:100E4000209749F781E00E94CE00882381F08BEA49
:100E500091E00E94D406CFEFDFEFCE01DF91CF917A
:100E60001F910F91FF90EF90DF90CF90089561E078
:100E700070E080E090E00E942203EFCF0F931F9379
:100E800002E010E020E030E0A90170E060E081E6DF
:100E90000E94F30621E030E040E050E068E470E0BA
:100EA00081E60E94F3061092CD078EEB91E00E943E
:100EB000D40660E081E11F910F910C9493022F9270
:100EC0003F924F925F926F927F928F929F92AF92DA
:100ED000BF92CF92DF92EF92FF921F93CF93DF9357
:100EE000EC016A017B01722EAB019601CB01B601C8
:100EF0000E94241C68EC71E0811126C04601570154
:100F0000E894B7F82FEF3FEF4FE75FE7C501B40173
:100F10000E94241C81110CC02FEF3FEF4FE75FE7C9
:100F2000C501B4010E940F196CEC71E0181664F051
:100F30002FEF3FEF4FE75FE4C701B6010E947F1B31
:100F40001816B4F460ED71E0CE01DF91CF911F91DE
:100F5000FF90EF90DF90CF90BF90AF909F908F90D9
:100F60007F906F905F904F903F902F900C947906F8
:100F70002FEF3FEF4FE75FECC701B6010E940F195B
:100F800087FDE0CF20E030E0A901C701B6010E9453
:100F90000F19312C212C87FF0DC0E881F9810190B8
:100FA000F081E02D6DE2CE0109951C01F7FAF09475
:100FB000F7F8F09410E060E070E080E09FE37116D5
:100FC00041F020E030E040E251E40E94D71A1F5F78
:100FD000F6CFA70196010E946B1A2B013C010E94DB
:100FE000501B4B015C012AE0BC01A401CE010E9410
:100FF00088067C01E20CF31C1123E1F1C501B40168
:101000000E9414199B01AC01C301B2010E946A1A2B
:101010004B015C01E881F9810190F081E02D6EE2E5
:10102000CE010995E80EF91E115020F120E030E0C4
:1010300040E251E4C501B4010E9475192B013C0145
:101040000E94501B4B01B12CA12C2AE0B501A40138
:10105000CE010E948806E80EF91EC501B4010E9467
:1010600014199B01AC01C301B2010E946A1A4B0121
:101070005C01DACFC701DF91CF911F91FF90EF9014
:10108000DF90CF90BF90AF909F908F907F906F90A8
:101090005F904F903F902F900895CF92DF92EF9204
:1010A000FF92CF93DF93EC01CA80DB80EC80FD8060
:1010B00020E030E040E251E4C701B6010E940F1980
:1010C00087FF18C08A899B8901979D8B8C8B6889C3
:1010D0008E850E946B054A815B816C817D812C89A4
:1010E00086ED97E0DF91CF91FF90EF90DF90CF906A
:1010F0000C945F0720E030E048EC52E4C701B601F1
:101100000E940F1987FF04C08A899B890297DDCF4F
:1011100081E090E0DACF6115710511F00C94790649
:1011200090E080E00895EF92FF920F931F93CF938A
:10113000DF93EC010E947D0560E080E00E946B057A
:1011400069857A8586ED97E00E948B0861E080E0F2
:101150000E946B056B857C8586ED97E00E948B086D
:101160008E017E0128E0E20EF11CF801819191913F
:101170008F01009711F00E944D080E151F05A9F769
:101180008D859E858F3F980781F0880F991FFE01FE
:10119000E80FF91F688580819181DF91CF911F91C0
:1011A0000F91FF90EF900C943806DF91CF911F9133
:1011B0000F91FF90EF900C942606EF92FF920F9301
:1011C0001F93CF93DF937C010E947D058701D0E0C0
:1011D000C0E0D801ED91FD918D013097E9F0678570
:1011E00085850E946B05F7018085918564ED71E02E
:1011F0008C179D0711F061E072E086ED97E00E9488
:101200008B08F80132970190F081E02D60817181A7
:1012100086ED97E00E948B082196C430D105C9F66F
:10122000DF91CF911F910F91FF90EF900895DC0116
:101230001A962C91211102C00C94DD08FC01208526
:101240003185220F331F820F931FDC01ED91FC913A
:1012500082819381880F991FE80FF91F85819681FC
:101260000C949308FC0180819181009711F00C94FB
:10127000D21D08951F920F920FB60F9211242F9333
:101280003F934F935F936F937F938F939F93AF930E
:10129000BF93EF93FF9385E994E00E94B201FF9121
:1012A000EF91BF91AF919F918F917F916F915F91DE
:1012B0004F913F912F910F900FBE0F901F90189557
:1012C0001F920F920FB60F9211242F938F939F931B
:1012D000EF93FF93E091A504F091A6048081E09143
:1012E000AB04F091AC0482FD1BC090818091AE04F0
:1012F0008F5F8F732091AF04821741F0E091AE04AD
:10130000F0E0EB56FB4F958F8093AE04FF91EF9189
:101310009F918F912F910F900FBE0F901F90189556
:101320008081F4CF1F920F920FB60F9211242F934A
:101330003F938F939F93AF93BF93809116049091A7
:101340001704A0911804B09119043091150423E0FA
:10135000230F2D3758F50196A11DB11D20931504BB
:101360008093160490931704A0931804B093190463
:1013700080911A0490911B04A0911C04B0911D044B
:101380000196A11DB11D80931A0490931B04A09394
:101390001C04B0931D04BF91AF919F918F913F9119
:1013A0002F910F900FBE0F901F90189526E8230FD6
:1013B0000296A11DB11DD2CF1F920F920FB60F92B0
:1013C00011242F933F934F935F936F937F938F934A
:1013D0009F93AF93BF93EF93FF938091B900887F62
:1013E000803609F44AC0F0F5883209F4A7C018F530
:1013F000803109F49BC0B8F4882309F4F9C088301F
:1014000009F494C0FF91EF91BF91AF919F918F919B
:101410007F916F915F914F913F912F910F900FBEF0
:101420000F901F901895883109F488C0803251F7C9
:1014300080936E0414C0803409F49DC040F480335E
:10144000B9F38833F9F680936E0485ECB0C080352B
:1014500009F485C0883509F496C0883499F60E944D
:101460006003D0CF883909F48CC038F5883729F06B
:1014700050F4883611F0803729F683E080937004A9
:101480001092140457C0883809F47BC0803919F0D1
:10149000803809F0B7CF80911404803208F071C011
:1014A000E091140481E08E0F809314048091BB00BE
:1014B000F0E0EC50FC4F80833DC0803B39F0E0F41D
:1014C000803A09F479C0883A09F09CCF84E080938F
:1014D00070041092F3031092F203E0912004F09153
:1014E000210409958091F20381110FC081E080935E
:1014F000F2031092D20309C0803C09F4A6CF883CC5
:1015000009F4A3CF883B09F07DCFE091F30381E09C
:101510008E0F8093F303F0E0EE52FC4F80818093B6
:10152000BB009091F3038091F20329C080914B049A
:101530008093BB0085EC8093BC0064CF90916D04D8
:1015400080916C04981758F5E0916D0481E08E0F3E
:1015500080936D04F0E0E45BFB4F8081E9CFE09184
:101560006D0481E08E0F80936D048091BB00F0E0EC
:10157000E45BFB4F808390916D0480916C0498171D
:10158000C8F285E8D8CFE0916D0481E08E0F80939A
:101590006D048091BB00F0E0E45BFB4F80838091A1
:1015A0006F0481115CCF81E080934A0484EA8093C8
:1015B000BC001092700426CF85EC8093BC00109282
:1015C000700480911404803230F4E0911404F0E04F
:1015D000EC50FC4F10826091140470E0E0911E0406
:1015E000F0911F0484EF93E00995109214040ACF40
:1015F00010926E0434CF4F925F926F927F928F92CF
:101600009F92AF92BF92CF92DF92EF92FF920F9391
:101610001F93CF93DF93CDB7DEB73C012B01FC01C5
:10162000108E178A7183608357874687318B208B92
:10163000138B028B158A148AC682D782E086F186C4
:1016400082869386A486B58681E0868BA701960163
:10165000FB0160817181828193810E940F1987FF54
:1016600005C0F301C282D382E482F582A501940110
:10167000F20160817181828193810E947F1B181623
:101680002CF4F30182829382A482B582F2018081DC
:101690009181A281B381F30182839383A483B58373
:1016A0008B899C89928F818FDF91CF911F910F91B0
:1016B000FF90EF90DF90CF90BF90AF909F908F9072
:1016C0007F906F905F904F9008950F931F93CF93EB
:1016D000DF93EC0188819981009759F02A813B8141
:1016E0002617370730F081E0DF91CF911F910F91DE
:1016F00008958B016F5F7F4F0E945B1E009759F02A
:10170000998388831B830A832C813D81232B59F77E
:10171000FC011082E8CF80E0E7CFEF92FF920F93B9
:101720001F93CF93DF93EC01FB01E080F180E11484
:10173000F10411F10481158101151105A9F08C81C5
:101740009D81080F191FB801CE010E94650B8823E7
:1017500099F0288139818C819D81B701820F931F77
:101760000E94211F1D830C83CE01DF91CF911F9119
:101770000F91FF90EF90089588819981009711F063
:101780000E94D21D198218821D821C821B821A821D
:10179000EBCFEF92FF920F931F93CF93DF93EC0168
:1017A0007B018A01BA010E94650B28813981811170
:1017B00014C02115310519F0C9010E94D21D1982EA
:1017C00018821D821C821B821A82CE01DF91CF916A
:1017D0001F910F91FF90EF9008951D830C83B70127
:1017E000C9010E94211FF1CF2F923F924F925F9229
:1017F0006F927F928F929F92AF92BF92CF92DF9221
:10180000EF92FF920F931F93CF93DF93CDB7DEB785
:1018100068970FB6F894DEBF0FBECDBF1092980444
:101820001092970488EE93E0A0E0B0E080939904D2
:1018300090939A04A0939B04B0939C0420E331E01E
:10184000309396042093950425EC30E03093A20465
:101850002093A10424EC30E03093A4042093A3044B
:1018600020EC30E03093A6042093A50421EC30E076
:101870003093A8042093A70422EC30E03093AA040C
:101880002093A90426EC30E03093AC042093AB0401
:101890001092AE041092AF041092B0041092B104F2
:1018A00010923505109234058093360590933705D4
:1018B000A0933805B093390582E491E09093330505
:1018C0008093320581E08093EE0782E090E0909370
:1018D00003088093020888EC90E0909305088093B9
:1018E000040810920608109207081092080884E66F
:1018F00090E090930E0880930D0810920F081092BC
:1019000010081092110810921208109213081092E9
:1019100014088CE08093EF078DE08093F0078BE054
:101920008093F1070E9454036093F2077093F307CA
:101930008093F4079093F5076093F6077093F70789
:101940008093F8079093F9076093FA077093FB0769
:101950008093FC079093FD076093090870930A0831
:1019600080930B0890930C088091EE07813009F06A
:10197000C3C462E08091EF070E94C10262E08091DF
:10198000F0070E94C10262E08091F1070E94C1024B
:101990001092D9071092D80784E591E09093D70769
:1019A0008093D60788E08093DA078FEF8093DB0778
:1019B00087E08093DC0786E08093DD0785E08093F5
:1019C000DE0784E08093DF0783E08093E0071092D6
:1019D000E1071092E2071092E3071092E4071092D9
:1019E000E50781E00E9485051092D4071092D50783
:1019F0001092C8071092CA071092C9078EEA97E0A2
:101A00009093B3078093B2078AE090E09093C10768
:101A10008093C0071092C3071092C2078091AE074F
:101A20009091AF07A091B007B091B1078093B40730
:101A30009093B507A093B607B093B70784E0682EDC
:101A4000712C7092C5076092C4071092C70710925C
:101A5000C6071092A9071092AB071092AA078FE849
:101A600097E0909394078093930792E0492E512C2E
:101A70005092A2074092A1071092A4071092A307C8
:101A800080918F0790919007A0919107B091920754
:101A90008093950790939607A0939707B093980724
:101AA0007092A6076092A5071092A8071092A70748
:101AB00010928A0710928C0710928B0780E797E0AC
:101AC0009093750780937407509283074092820722
:101AD00022242394312C3092850720928407809110
:101AE000700790917107A0917207B091730780936E
:101AF000760790937707A0937807B0937907709251
:101B00008707609286071092890710928807E7EE90
:101B1000F6E0FF93EF933FE1832E35E8932E33EB0E
:101B2000A32E30E4B32EC12CD12C760104E010E0BA
:101B300030E020E045E050E062E271E085E597E0CA
:101B40000E94FB0A87EE96E09F938F93812C912C45
:101B50004AEFA42E43E4B42E30E020E045E050E00C
:101B60006EE171E08AE397E00E94FB0A87EE96E05F
:101B70009F938F93812C912C50EAA52E51E4B52E82
:101B80006DECC62E6CECD62E6CE4E62E6EE3F62ED3
:101B900030E020E045E050E06AE171E08FE197E05D
:101BA0000E94FB0A10921A0710921C0710921B0742
:101BB00086E191E090930507809304078EE090E022
:101BC0009093130780931207109215071092140731
:101BD0008091160190911701A0911801B0911901FF
:101BE0008093060790930707A0930807B09309070F
:101BF0005092170740921607109219071092180773
:101C00001092FF06109201071092000782E191E006
:101C10009093EA068093E90685E090E09093F806B9
:101C20008093F7061092FA061092F906809112013D
:101C300090911301A0911401B09115018093EB06CE
:101C40009093EC06A093ED06B093EE0683E090E04F
:101C50009093FC068093FB061092FE061092FD0600
:101C60001092E4061092E6061092E5068AEC96E0E1
:101C70009093CF068093CE065092DD064092DC060C
:101C80003092DF062092DE068091CA069091CB0644
:101C9000A091CC06B091CD068093D0069093D1064A
:101CA000A093D206B093D3067092E1066092E0064C
:101CB0001092E3061092E2061092C5061092C70633
:101CC0001092C6068BEA96E09093B0068093AF061A
:101CD0008AE090E09093BE068093BD063092C006E5
:101CE0002092BF068091AB069091AC06A091AD0604
:101CF000B091AE068093B1069093B206A093B3065E
:101D0000B093B4067092C2066092C1061092C406E7
:101D10001092C3061092A6061092A8061092A7066B
:101D20008CE896E09093910680939006EAE0F0E0CC
:101D3000F0939F06E0939E063092A1062092A006A3
:101D400080918C0690918D06A0918E06B0918F06A1
:101D50008093920690939306A0939406B093950671
:101D60007092A3066092A2061092A5061092A40695
:101D70007BEE472E76E0572E5F924F92812C912C6E
:101D8000E0E2AE2EE1E4BE2EFDECCF2EFCECDF2E29
:101D9000FCE4EF2EFDE3FF2E02E010E021E030E056
:101DA00045E050E06EE071E081E796E00E94FB0ABA
:101DB0005F924F92812C912CA8E4AA2EA2E4BA2E15
:101DC000C12CD12CB0EAEB2EB1E4FB2E21E030E0A7
:101DD0004DE050E06AE071E086E596E00E94FB0A83
:101DE0001FEE412E16E0512E5F924F92C12CD12C46
:101DF000E12C0FE3F02E03E010E030E020E04BE0B8
:101E000050E066E071E08BE396E00E94FB0A5F928F
:101E10004F928FE1882E85E8982E83EBA82E80E4E0
:101E2000B82EC12CD12C760130E020E042E050E009
:101E300062E071E080E296E00E94FB0A10921B06CD
:101E400010921D0610921C0681E096E09093060603
:101E50008093050688E090E0909314068093130623
:101E60003092160620921506809101069091020686
:101E7000A0910306B091040680930706909308068C
:101E8000A0930906B0930A0670921806609217068E
:101E900010921A06109219061092FC051092FE0577
:101EA0001092FD0582EE95E09093E7058093E6059C
:101EB0001092F5051092F4053092F7052092F60580
:101EC0008091E2059091E305A091E405B091E505CC
:101ED0008093E8059093E905A093EA05B093EB059C
:101EE0007092F9056092F8051092FB051092FA05C0
:101EF0001C8A1B8A1E8A1D8A188E1F8A45E050E0A4
:101F00006EE072E0CE0143960E94C90B1E861D86CC
:101F1000188A1F861A8A198A84EF89831A828E0189
:101F20000F5F1F4FF80101900020E9F73197AF01D3
:101F3000401B510BB801CE010D960E94C90B1A82AD
:101F400019821C821B821E821D824AE050E066EDCF
:101F500071E0C8010E94C90B18861F821A86198673
:101F60001C861B8669817A810FB6F894DEBF0FBE8E
:101F7000CDBF6115710531F04D815E81CE010796AF
:101F80000E94C90BBE01635F7F4FCE0107960E947E
:101F90008D0BBE016D5E7F4F0E948D0B1092DD0593
:101FA0001092DC051092DF051092DE051092E1051B
:101FB0001092E005E5E08C3D9E0761F0FC01608138
:101FC00071816115710531F0448155818CED95E089
:101FD0000E94C90BCE0107960E943209C8010E94D7
:101FE0003209CE010D960E943209CE0143960E941D
:101FF00032091092D5058FEF9FEF9093DB05809308
:10200000DA0524E737E03093D4052093D30522EB9B
:1020100037E03093D2052093D10523E937E03093A0
:10202000D0052093CF051092CE051092CD0521EE5C
:1020300031E03093D7052093D60542EF51E050931D
:10204000D9054093D8051092C6059093CC0580938E
:10205000CB054FEA56E05093C5054093C4056EEC9E
:1020600076E07093C3056093C20544E057E0509357
:10207000C1054093C005E5E5F7E0F093BF05E093A7
:10208000BE05E3E0F2E0F093C805E093C705E4E1A4
:10209000F2E0F093CA05E093C9051092B70590935A
:1020A000BD058093BC05E0E9F6E0F093B605E0934A
:1020B000B5057093B4056093B3055093B205409392
:1020C000B105AAE3B7E0B093B005A093AF05A5E2D0
:1020D000B2E0B093B905A093B8053093BB05209347
:1020E000BA05A091DC05B091DD051092A80590938A
:1020F000AE058093AD05F093A705E093A605709318
:10210000A5056093A4055093A3054093A2054FE154
:1021100057E05093A1054093A005B093AA05A09362
:10212000A9053093AC052093AB05109299059093C7
:102130009F0580939E05109298051092970526E5BD
:1021400036E0309396052093950521E736E03093ED
:1021500094052093930529EE36E030939205209361
:10216000910526E332E030939B0520939A0527E4FE
:1021700032E030939D0520939C0510928A05909340
:10218000900580938F0585E096E090938905809374
:10219000880586EE95E090938705809386058BE30E
:1021A00096E0909385058093840580E296E0909375
:1021B00083058093820588E592E090938C05809357
:1021C0008B0589E692E090938E0580938D051092A1
:1021D0007405109273051092750589E792E090934B
:1021E0007205809371058DEC95E09093770580934F
:1021F000760510927F0510927E0581E090E0909325
:1022000081058093800510926305109262051092FB
:10221000640520EB32E030936105209360052EEBDE
:1022200035E030936605209365052FEA35E030935D
:1022300068052093670520EA35E030936A0520930E
:10224000690510926C0510926B0510926E05109244
:102250006D051092700510926F0510925205109244
:102260005105109253052FE732E03093500520932B
:102270004F0522E835E0309355052093540527E0BB
:1022800030E030935D0520935C0510925F0510925D
:102290005E0510924105109240051092420547E8F4
:1022A00052E050933F0540933E0541E955E050937D
:1022B00044054093430530934C0520934B05909380
:1022C0004E0580934D0568960FB6F894DEBF0FBE9D
:1022D000CDBFDF91CF911F910F91FF90EF90DF90D5
:1022E000CF90BF90AF909F908F907F906F905F90B6
:1022F0004F903F902F90089560E08091EF070E94EB
:10230000C10260E08091F0070E94C10260E03CCB16
:10231000789484B5826084BD84B5816084BD85B5C0
:10232000826085BD85B5816085BD80916E008160CC
:1023300080936E0010928100809181008260809372
:102340008100809181008160809381008091800074
:102350008160809380008091B10084608093B1009F
:102360008091B00081608093B00080917A00846099
:1023700080937A0080917A00826080937A008091C5
:102380007A00816080937A0080917A0080688093DF
:102390007A001092C100E091A504F091A60482E0B9
:1023A0008083E091A104F091A2041082E091A30443
:1023B000F091A40480E180831092AD04E091A9041F
:1023C000F091AA0486E08083E091A704F091A8042C
:1023D000808180618083E091A704F091A8048081CE
:1023E00088608083E091A704F091A80480818068D0
:1023F0008083E091A704F091A80480818F7D808381
:1024000010922904109228041092720410929404DD
:102410001092700481E080936F0410924A0461E08E
:1024200082E10E94930261E083E10E949302809125
:10243000B9008E7F8093B9008091B9008D7F809321
:10244000B90088E48093B80085E48093BC0082E3FF
:1024500091E0909321048093200483E391E0909392
:102460001F0480931E0401E010E026E030E040E00D
:1024700050E070E060E08AE60E94F306892B21F0CC
:1024800080E992E00E94D40661E080E10E94C102EE
:1024900061E081E10E94C10261E082E00E94C1022C
:1024A00060E082E00E94930260E080E10E9493027B
:1024B00060E081E10E9493021092CD071092CE0756
:1024C0001092CF071092D0071092D1071092D30725
:1024D0001092D20702E010E021E030E040E050E04E
:1024E00060E470E081E60E94F30620E031E040E025
:1024F00050E060E570E081E60E94F30621E030E004
:1025000040E050E068E470E081E60E94F30660E09D
:102510008CE00E94C10260E08DE00E94C10260E098
:102520008BE00E94C10260E08EE00E94C10260E088
:102530008FE00E94C10261E089E00E94C10261E077
:102540008AE00E94C10260E089E00E94930260E09C
:102550008AE00E94930282E00E94850565EA72E0AB
:1025600086ED97E00E948B0861E080E00E946B0599
:1025700065EB72E086ED97E00E948B0863EC72E0F9
:1025800086ED97E00E948B0887EC92E00E94D406CB
:1025900064EF71E080E090E00E9422038BE090E025
:1025A0000E94361DFC0111861086128680E695E099
:1025B000918380838FE495E09383828381E795E024
:1025C000958384838EE395E097838683F093270435
:1025D000E0932604CF010E9417090E9454036093E0
:1025E0002204709323048093240490932504C1E073
:1025F000B3E0CB2ED12CD1E022242A941FE0312E3F
:102600008FE00E946A02209100012817190681F0CC
:102610002C272093000121110BC08091CD07882326
:1026200009F4E7C00E943E0781EE92E00E94D406C2
:102630008EE00E946A022091010128171906B1F16B
:102640002C2720930101211131C000912604109103
:102650002704D8011A968C911A97882309F459C136
:102660001896ED91FC91EE0FFF1FE00FF11FA08176
:10267000B18114968C911497882309F44AC112965B
:10268000ED91FC911397EE0FFF1FEA0FFB1F0580E2
:10269000F681E02D80858111ACC514961C928FEFD8
:1026A0009FEF96878587C8010E9417090E945403EF
:1026B000AB01BC014093F2075093F3076093F4071A
:1026C0007093F50720910208309103088091F60776
:1026D0009091F707A091F807B091F907820F931F27
:1026E000A11DB11D481759076A077B0708F4C1C12E
:1026F0008091EF070E946A023091EE0721E03817BF
:10270000190609F020E0209310088091F0070E943C
:102710006A022091EE0730E041E08217930709F04A
:1027200040E040931108E09110084091F207509169
:10273000F3076091F4077091F507E111F6C0F0918D
:102740001308FF2309F4F1C08217930709F0E8C0CA
:1027500081E020910D0830910E088090090890903A
:102760000A08A0900B08B0900C08820E931EA11CC2
:10277000B11C481559056A057B0508F0D3C0809146
:102780000F084093090850930A0860930B08709350
:102790000C08E09313084093F6075093F7076093F3
:1027A000F8077093F907813009F03DC1E0912604E4
:1027B000F09127048085918522852111B8C001966A
:1027C000843091059CF49187808780859185DC0118
:1027D000AA0FBB1FAE0FBF1F2D913C91232B09F0F9
:1027E00045C101969187808704977CF311861086F6
:1027F000ECCF8090220190902301A0902401B09012
:102800002501D093CD071092D4078092CE079092E5
:10281000CF07A092D007B092D10720E030E846E37E
:1028200054E4C501B4010E9475190E94491B9B0123
:102830007093D3076093D207211580E138070CF419
:102840005DC081EF92E00E94D4063092D3072092BF
:10285000D2072091D2073091D307032E000C440BEE
:10286000550B02E010E070E060E081E60E94F306A4
:1028700020E030E0A90168E470E081E60E94F30600
:102880006BE173E085E994E00E948B0822E0B501DA
:10289000A40185E994E00E945F0767E273E085E99F
:1028A00094E00E948B088090D2079090D307092C67
:1028B000000CAA08BB082AE0B501A401B7FE0DC0B0
:1028C0006DE285E994E00E94D40144275527BA01BE
:1028D000481959096A097B092AE085E994E00E94B0
:1028E00088066CE571E085E994E00E94790661E074
:1028F00081E10E94930284E393E098CE37FFA9CF51
:1029000085E093E00E94D4061092D3071092D2077C
:10291000A0CFD8011A961C92C8010E94DD08C6CE2D
:1029200082E017CF80930F082CCF80E032CF880F42
:10293000991FE80FF91F0190F081E02D82819381AA
:10294000248121111DC0019684309105B4F4938334
:10295000828322813381D901AA0FBB1FAE0FBF1F13
:1029600015968D919C91009709F0C1C32F5F3F4F41
:10297000338322832430310564F313821282E9CF3A
:10298000880F991FE80FF91FE580F680F701808511
:1029900061E070E0882309F4A6C30584F685E02D84
:1029A000EE0FFF1FEE0DFF1D00811181F801A080C9
:1029B000B1806289738984899589681B790B61501C
:1029C00071098789908D681B790B072E000C880B85
:1029D000990B0E9416199B01AC0160E070E080E247
:1029E00091E40E94D41BD5012D913D914D915C91B4
:1029F0000E946B1AF5016083718382839383D801EF
:102A00001A964D905D906D907C901D97A301920158
:102A10000E947F1B18160CF0AEC3F5014082518254
:102A200062827382A8C3823021F5E0912604F0917E
:102A30002704808591852285211121C3019797FD67
:102A400012C09187808780859185DC01AA0FBB1F0A
:102A5000AE0FBF1F2D913C91232B41F4019791871D
:102A6000808797FFF0CFD186C086EDCFCF010E943F
:102A700017090E9454036093F2077093F307809341
:102A8000F4079093F5078091F1070E946A02209164
:102A9000EE0730E061E08217930709F060E0609391
:102AA00012088090F2079090F307A090F407B0907E
:102AB000F50740910408509105084090FA0750909E
:102AC000FB076090FC077090FD07440E551E611CCB
:102AD000711C84149504A604B70408F44EC0821730
:102AE000930709F457C380911408882309F452C34B
:102AF000109206088092FE079092FF07A0920008AD
:102B0000B092010881E0609314088092FA079092D5
:102B1000FB07A092FC07B092FD07882371F1A091FA
:102B20002604B09127041896ED91FC911997EE0FA9
:102B3000FF1FEA0FFB1F0190F081E02D1A968C9188
:102B40001A97882309F443C3C48382819381880F31
:102B5000991FE80FF91F05811681D8011D968D91E7
:102B60009C918F3F980709F017C361E070E0C8019E
:102B70000E941404C8010E9493086091220470917D
:102B8000230480912404909125040E9416194B017E
:102B90005C0120E030E04AE754E460910E0170915E
:102BA0000F0180911001909111010E9475199B01F4
:102BB000AC01C501B4010E946B1A4B015C010E947B
:102BC00054030E9414199B01AC01C501B4010E9479
:102BD0000F1987FFE0C161E08AE00E94930261E083
:102BE00070E082E390E00E944804672B09F4F9C288
:102BF00063E070E085E090E00E9448040E941619AE
:102C000025E831EB45E058E30E94751960937007A1
:102C100070937107809372079093730762E070E07E
:102C200084E190E00E9448042B013C01B4E07594DB
:102C3000679457944794BA95D1F7C301B2010E94A3
:102C400016192FEA35E04AE45AE30E947519609399
:102C5000AE077093AF078093B0079093B10762E01F
:102C600070E08EE190E00E9448044B015C0114E0AA
:102C7000B594A794979487941A95D1F7C501B40198
:102C80000E94161920E635EE40ED5CE30E947519AE
:102C900060938F07709390078093910790939207AA
:102CA0008FEF48168FE05806610471043CF49FEFE3
:102CB00089169FE09906A104B10424F083E493E00F
:102CC0000E94D40663E070E087E390E00E9448042D
:102CD0000E94161925E831EB45E058E30E9475196A
:102CE0006093AB067093AC068093AD069093AE06EE
:102CF00062E070E086E490E00E9448042B013C0111
:102D0000F4E07594679457944794FA95D1F7C3010A
:102D1000B2010E94161920E030E040EA5FE30E9411
:102D2000751960938C0670938D0680938E06909330
:102D30008F0662E070E080E590E00E9448044B015D
:102D40005C01A4E0B594A79497948794AA95D1F7D1
:102D5000C501B4010E94161920E635EE40ED5CE392
:102D60000E9475196093CA067093CB068093CC06B7
:102D70009093CD06AFEF4A16AFE05A066104710496
:102D80003CF4BFEF8B16BFE09B06A104B10424F016
:102D90008FE593E00E94D40662E070E08AE590E05F
:102DA0000E944804E4E09595879577956795EA95A4
:102DB000D1F70E94161926E933E44BE85BE30E9441
:102DC000751960931201709313018093140190930D
:102DD000150120E030E040EE50E40E940F1987FF1B
:102DE00017C06CE773E085E994E00E948B0840917E
:102DF000120150911301609114017091150122E0AC
:102E000085E994E00E945F078BEA93E00E94D40674
:102E100062E070E088E290E00E94480454E09595FA
:102E20008795779567955A95D1F70E9416192FE6E1
:102E300032E143E050E40E94751920E030E040E8C0
:102E400059E30E9475194B015C0120E030E044E039
:102E500052E40E9475192B013C01A501940160E028
:102E600070E080EA90E40E946A1A9B01AC01C30101
:102E7000B2010E94D71A20E030E040E251E40E9403
:102E8000D71A0E948C1B21EF3BEB46E859E30E94C6
:102E900075192DE03FEC4BE55BE30E946B1A9B013B
:102EA000AC0160E070E080E89FE30E94D71A23E362
:102EB00033E948E853E40E946A1A6093160170935C
:102EC00017018093180190931901E0912604F09165
:102ED00027048285882309F450C080859185880F56
:102EE000991FE80FF91F0190F081E02D82819381F5
:102EF000880F991FE80FF91F0581168158014801B5
:102F0000E8E08E0E911CD501ED90FD905D01E1147D
:102F1000F104E1F0D701ED91FC91119740805180CF
:102F20006280738012962D913D914D915C91159721
:102F3000C301B2010E940F19882329F0F7014282D0
:102F4000538264827582C7010E944D088A149B04D3
:102F5000D1F6D8011D968D919C918F3F980709F469
:102F600045C1880F991FF801E80FF91FD80118967D
:102F70006C91808191810E94380660E08AE00E9415
:102F800093020E945403609322047093230480935D
:102F90002404909325048090160190901701A0902E
:102FA0001801B090190120E030E040E252E4C50180
:102FB000B4010E947F1B87FD0AC08091CD07882342
:102FC00031F08AE993E00E94D406D093D40780912F
:102FD000CD078823C1F08091D507811114C02091BD
:102FE0000A0130910B0140910C0150910D01C50176
:102FF000B4010E947F1B87FD06C061E082E00E9451
:103000009302D093D5078091D5078823E1F020E083
:1030100030E040E85FE360910A0170910B0180911C
:103020000C0190910D010E946A1A9B01AC01C5012F
:10303000B4010E940F1987FF06C060E082E00E9481
:1030400093021092D5078091D407882331F08EEA3D
:1030500093E00E94D4060E943E076091D40780E16D
:103060000E949302E0E0F0E0EF2B09F4C9CA0E944D
:103070009E01882309F4C4CA0E940000C1CA880FB7
:10308000991FE80FF91F0190F081E02D8281938153
:10309000248121111AC0019797FD14C09383828364
:1030A00022813381D901AA0FBB1FAE0FBF1F159616
:1030B0008D919C910097D9F421503109338322835B
:1030C00037FFEECFD382C282EBCF880F991FE80F74
:1030D000F91FE580F680D70118968C911897811119
:1030E00009C06FEF7FEFC7010E941404C7010E945F
:1030F0009308BFCC1D96ED91FC91EE0FFF1FEE0DD6
:10310000FF1D00811181F801A080B180628973895F
:1031100084899589681B790B615071098789908D25
:10312000681B790B072E000C880B990B0E9416194F
:103130009B01AC0160E070E080E291E40E94D41B4E
:103140009B01AC01D5016D917D918D919C910E9467
:103150006A1AF5016083718382839383D80116967E
:103160004D905D906D907C901997A30192010E9403
:103170000F1987FD52CCF50180819181A281B38125
:10318000F80182839383A483B583018CF28DE02DB3
:103190000995ACCF80E0B7CCF8012085211102C0A1
:1031A000C087E8CC880F991FE80FF91F0190F081C4
:1031B000E02D8789908D0196908F878B22893389A6
:1031C000821793070CF4D6CC108E178AD3CC359681
:1031D00009F4D3CC1A96CC931A97CD010E94170903
:1031E000CCCC8BE893E00E94D4066FCE0E942606DA
:1031F000C4CE1086A585B685AA0FBB1FAE0FBF1F14
:103200000D90BC91A02D58961C921E925797CF01FD
:103210000E94930848CA8CED95E00C9432090E94F4
:10322000511908F481E00895E89409C097FB3EF431
:1032300090958095709561957F4F8F4F9F4F992303
:10324000A9F0F92F96E9BB279395F6958795779581
:103250006795B795F111F8CFFAF4BB0F11F460FF41
:103260001BC06F5F7F4F8F4F9F4F16C0882311F099
:1032700096E911C0772321F09EE8872F762F05C0AD
:10328000662371F096E8862F70E060E02AF09A9548
:10329000660F771F881FDAF7880F9695879597F93D
:1032A0000895990F0008550FAA0BE0E8FEEF1616D7
:1032B0001706E807F907C0F012161306E407F5072A
:1032C00098F0621B730B840B950B39F40A2661F09E
:1032D000232B242B252B21F408950A2609F4A14041
:1032E000A6958FEF811D811D08950E9488190C9469
:1032F000F9190E94EB1938F00E94F21920F0952379
:1033000011F00C94E2190C94E81911240C942D1A64
:103310000E940A1A70F3959FC1F3950F50E0551F54
:10332000629FF001729FBB27F00DB11D639FAA271A
:10333000F00DB11DAA1F649F6627B00DA11D661F69
:10334000829F2227B00DA11D621F739FB00DA11D8A
:10335000621F839FA00D611D221F749F3327A00D44
:10336000611D231F849F600D211D822F762F6A2FE0
:1033700011249F5750409AF0F1F088234AF0EE0F45
:10338000FF1FBB1F661F771F881F91505040A9F772
:103390009E3F510580F00C94E2190C942D1A5F3F6A
:1033A000E4F3983ED4F3869577956795B795F795AE
:1033B000E7959F5FC1F7FE2B880F911D9695879526
:1033C00097F9089597F99F6780E870E060E00895A5
:1033D0009FEF80EC089500240A941616170618062D
:1033E0000906089500240A94121613061406050609
:1033F0000895092E0394000C11F4882352F0BB0F9A
:1034000040F4BF2B11F460FF04C06F5F7F4F8F4FFC
:103410009F4F089557FD9058440F551F59F05F3F37
:1034200071F04795880F97FB991F61F09F3F79F0E6
:1034300087950895121613061406551FF2CF469568
:10344000F1DF08C0161617061806991FF1CF8695EA
:103450007105610508940895E894BB2766277727CE
:10346000CB0197F908952F923F924F925F926F92FE
:103470007F928F929F92AF92BF92CF92DF92EF9204
:10348000FF920F931F93CF93DF93CDB7DEB7CA1B85
:10349000DB0B0FB6F894DEBF0FBECDBF09942A88B0
:1034A000398848885F846E847D848C849B84AA8458
:1034B000B984C884DF80EE80FD800C811B81AA81E5
:1034C000B981CE0FD11D0FB6F894DEBF0FBECDBFB0
:1034D000ED0108955058BB27AA270E94821A0C9428
:1034E000F9190E94EB1938F00E94F21920F039F412
:1034F0009F3F19F426F40C94E8190EF4E095E7FBCD
:103500000C94E219E92F0E940A1A58F3BA176207BD
:1035100073078407950720F079F4A6F50C942C1A0C
:103520000EF4E0950B2EBA2FA02D0B01B9019001DE
:103530000C01CA01A0011124FF27591B99F0593F22
:1035400050F4503E68F11A16F040A22F232F342F6A
:103550004427585FF3CF469537952795A795F040B8
:103560005395C9F77EF41F16BA0B620B730B840BCD
:10357000BAF09150A1F0FF0FBB1F661F771F881F85
:10358000C2F70EC0BA0F621F731F841F48F48795DD
:1035900077956795B795F7959E3F08F0B0CF9395CF
:1035A000880F08F09927EE0F9795879508950E9448
:1035B000EB1A0C94F9190E94F21958F00E94EB19B9
:1035C00040F029F45F3F29F00C94E21951110C945A
:1035D0002D1A0C94E8190E940A1A68F39923B1F382
:1035E000552391F3951B550BBB27AA276217730729
:1035F000840738F09F5F5F4F220F331F441FAA1FBD
:10360000A9F335D00E2E3AF0E0E832D09150504078
:10361000E695001CCAF72BD0FE2F29D0660F771F26
:10362000881FBB1F261737074807AB07B0E809F00C
:10363000BB0B802DBF01FF2793585F4F3AF09E3F91
:10364000510578F00C94E2190C942D1A5F3FE4F3C5
:10365000983ED4F3869577956795B795F7959F5FD4
:10366000C9F7880F911D9695879597F90895E1E020
:10367000660F771F881FBB1F621773078407BA077F
:1036800020F0621B730B840BBA0BEE1F88F7E095DA
:1036900008950E94501B6894B1110C942D1A08953E
:1036A0000E94121A88F09F5798F0B92F9927B751A6
:1036B000B0F0E1F0660F771F881F991F1AF0BA95D6
:1036C000C9F714C0B13091F00E942C1AB1E00895EE
:1036D0000C942C1A672F782F8827B85F39F0B93FE0
:1036E000CCF3869577956795B395D9F73EF4909589
:1036F0008095709561957F4F8F4F9F4F08950E94E1
:10370000511908F48FEF089516F00C94631C0C9473
:10371000E81968940C94E2190E94121AA8F39923EC
:10372000C1F3AEF3DF93CF931F930F93FF92C92F93
:10373000DD2788232AF02197660F771F881FDAF785
:1037400020E030E040E85FEB9FE3883920F0803EE6
:1037500038F021968F770E946B1AE8E6F0E004C0FB
:103760000E946B1AE5E9F0E00E94711C8B01BE011A
:10377000EC01FB2E6F5771097595771F880B990B1C
:103780000E94161928E132E741E35FE30E9488199D
:10379000AF2D9801AE01FF900F911F91CF91DF9156
:1037A0000E94821A0C94F919FA01EE0FFF1F30964D
:1037B00021053105A1F16115710561F48038BFE380
:1037C0009B0749F168949038810561F08038BFEF1C
:1037D0009B0741F099234AF5FF3FE105310521059B
:1037E00019F1E8940894E795D901AA2329F4AB2F9D
:1037F000BE2FF85FD0F310C0FF5F70F4A695E0F71E
:10380000F73950F019F0FF3A38F49F779F930DD0B5
:103810000F9007FC9058089546F00C94E81960E06A
:1038200070E080E89FE308954FE79F775F934F93A1
:103830003F932F930E948C1B2F913F914F915F914B
:103840000E9475190C94311C0E945119880B990B18
:10385000089529F416F00C94E2190C942C1A0C9487
:10386000E8190E94121AA8F39638A0F707F80F92E9
:10387000E8942BE33AEA48EB5FE70E948B190F923A
:103880000F920F924DB75EB70F920E94DA1CE2ECD6
:10389000F0E00E94711C4F915F91EF91FF91E595CF
:1038A000EE1FFF1F49F0FE57E0684427EE0F441F4C
:1038B000FA95E1F74195550B0E94A41C0F9007FE65
:1038C0000C94981C08959F3F31F0915020F48795F7
:1038D00077956795B795880F911D9695879597F978
:1038E0000895DF93CF931F930F93FF92EF92DF9290
:1038F0007B018C01689406C0DA2EEF010E948819C2
:10390000FE01E894A5912591359145915591A6F335
:10391000EF010E94821AFE019701A801DA9469F76B
:10392000DF90EF90FF900F911F91CF91DF9108955D
:103930009B01AC0160E070E080E89FE30C94D71A33
:103940000C94E2190C94631C0E94121AD8F3992368
:10395000C9F3940F511DA3F39150504094F059F0C6
:10396000882332F0660F771F881F91505040C1F7AF
:103970009E3F51052CF7880F911D9695879597F9D5
:1039800008955F3FACF0983E9CF0BB2786957795F5
:103990006795B79508F4B1609395C1F7BB0F58F7D9
:1039A00011F460FFE8CF6F5F7F4F8F4F9F4FE3CFE2
:1039B0000C942D1AFA01DC01AA0FBB1F9B01AC016C
:1039C000BF5728F4222733274427507820C0B75107
:1039D00090F4AB2F0024469537952795011CA395AD
:1039E000D2F3002071F0220F331F441FB395DAF396
:1039F0000ED00C946A1A61307105A0E88A07B946A6
:103A000030F49B01AC0166277727882790783096A1
:103A100021F020833183428353830895A1E21A2E3B
:103A2000AA1BBB1BFD010DC0AA1FBB1FEE1FFF1F62
:103A3000A217B307E407F50720F0A21BB30BE40BB2
:103A4000F50B661F771F881F991F1A9469F76095F9
:103A50007095809590959B01AC01BD01CF010895B3
:103A6000EE0FFF1F0590F491E02D09940F931F9323
:103A7000CF93DF938230910510F482E090E0E091E3
:103A80001708F091180830E020E0B0E0A0E030978F
:103A900099F42115310509F44AC0281B390B24304B
:103AA0003105D8F58A819B816115710589F1FB018A
:103AB00093838283FE0111C0408151810281138171
:103AC00048175907E0F04817590799F4109761F023
:103AD00012960C93129713961C933296CF01DF9196
:103AE000CF911F910F910895009317081093180814
:103AF000F4CF2115310551F04217530738F0A901D1
:103B0000DB019A01BD01DF01F801C1CFEF01F9CF5F
:103B10009093180880931708CDCFFE01E20FF31F92
:103B2000819391932250310939832883D7CF2091F3
:103B3000150830911608232B41F42091280130916B
:103B40002901309316082093150820912601309101
:103B500027012115310541F42DB73EB740912A01C7
:103B600050912B01241B350BE0911508F09116089C
:103B7000E217F307A0F42E1B3F0B2817390778F044
:103B8000AC014E5F5F4F2417350748F04E0F5F1FA3
:103B90005093160840931508819391939FCFF0E0BE
:103BA000E0E09CCFCF93DF930097E9F0FC013297E0
:103BB00013821282A0911708B0911808ED0130E02D
:103BC00020E01097A1F420813181820F931F209172
:103BD0001508309116082817390709F061C0F093CD
:103BE0001608E0931508DF91CF910895EA01CE17EA
:103BF000DF07E8F54A815B819E0141155105B1F768
:103C0000E901FB83EA8349915991C40FD51FEC1751
:103C1000FD0761F4808191810296840F951FE9016F
:103C200099838883828193819B838A83F0E0E0E09B
:103C300012968D919C9113970097B9F52D913C9117
:103C40001197CD010296820F931F20911508309194
:103C500016082817390739F6309751F510921808C9
:103C600010921708B0931608A0931508BCCFD38301
:103C7000C28340815181840F951FC817D90761F411
:103C80004E5F5F4F88819981480F591F5183408350
:103C90008A819B81938382832115310509F0B0CFFE
:103CA000F0931808E09317089ECFFD01DC01C0CF08
:103CB00013821282D7CFB0E0A0E0E1E6FEE10C94DF
:103CC000351A8C01009751F4CB010E94361D8C01EE
:103CD000C801CDB7DEB7E0E10C94511AFC01E60F44
:103CE000F71F9C0122503109E217F30708F49DC029
:103CF000D901CD91DC911197C617D70798F0C5303F
:103D0000D10530F3CE0104978617970708F3C61B39
:103D1000D70B2297C193D1936D937C93CF010E94CF
:103D2000D21DD6CF5B01AC1ABD0A4C018C0E9D1E74
:103D3000A0911708B0911808512C412CF12CE12CBE
:103D4000109731F5809115089091160888159905FE
:103D500009F05CC04616570608F058C0809126014D
:103D600090912701009741F48DB79EB740912A01A9
:103D700050912B01841B950BE817F90708F055C0EB
:103D8000F0931608E0931508F90171836083A0CFC2
:103D90008D919C91119712966C90129713967C902E
:103DA0001397A815B90559F56C0142E0C40ED11C52
:103DB000CA14DB0420F1AC014A195B09DA0112963E
:103DC000159780F06282738251834083D9016D938D
:103DD0007C93E114F10471F0D7011396FC93EE93F8
:103DE000129776CF22968C0F9D1FF90191838083C5
:103DF000F301EFCFF0931808E093170869CF481646
:103E0000590608F42C017D01D3019ACFCB010E9401
:103E1000361D7C01009749F0AE01B8010E94181FC1
:103E2000C8010E94D21D870153CF10E000E050CF9F
:103E3000FB01DC0102C001900D9241505040D8F7C7
:103E40000895FB01DC0101900D920020E1F7089537
:103E500010E0C3EAD0E004C0FE010E94301D2196AC
:0A3E6000C43AD107C9F7F894FFCF68
:103E6A0001010000003F000040400000C84100007E
:103E7A00003F000040410000A0410000C84200008D
:103E8A00803F0000003F0000190880000000000089
:103E9A00D401340161012102920170018401000000
:103EAA000000E103B403110491032B01A10392035F
:103EBA000000000073063401110410040D0A006C9E
:103ECA006F61647365742063616C6C6261636B20FB
:103EDA0063616C6C656420210073657474696E6734
:103EEA00732063616C6C6261636B2063616C6C65E7
:103EFA0064202100626174742063616C6C62616386
:103F0A006B2063616C6C65642021004572726F726C
:103F1A0020647572696E67207772697465004461FE
:103F2A0063206F66662021006E616E00696E66000E
:103F3A006F7666003E004352205220202020202027
:103F4A000056202020202020204920202020202028
:103F5A0041005020202020202057202020202020EF
:103F6A0020200043432049202020202020412054A3
:103F7A0020202000562020202020202050202020F1
:103F8A002020205700435020502020202020205756
:103F9A0020542020200042617474202020202056C2
:103FAA0020202020202000546163712020202073CB
:103FBA002046616E20202000492020202020412018
:103FCA0056632020202020560020202020205768D9
:103FDA002020202020204168004D6574657200422F
:103FEA006174746572790053657474696E677300DD
:103FFA004572726F7220647572696E6720504D2027
:10400A00696E697400456C656374726F6E696320CA
:10401A004C6F616400302D3130305620302D3541DF
:10402A00207600302E3100456C656374726F6E69BC
:10403A0063204C6F6164205374617274656420213B
:10404A00004C6F6164207475726E6564206F6666D9
:10405A00004461632073617475726174696E6720CC
:10406A0075702021004461632073617475726174F4
:10407A00696E6720646F776E202100444143207384
:10408A00657420746F200041207769746820636F1B
:10409A00646520004C6F6164207475726E656420DB
:1040AA006F6E00496E707574206D65617375726507
:1040BA006D656E7420736174757261746564004F06
:1040CA007574707574206D6561737572656D656E52
:1040DA0074207361747572617465640042617474EA
:1040EA00657279204C6F77203A2000504D206E6F10
:1040FA007420726561647920210054656D702068AE
:10410A006F74206578636565646564202100466183
:10411A00756C742064657465637465642C206C6FB7
:10412A006164207368757474696E6720646F776E52
:02413A00000083
:00000001FF
