:1000000012C021C020C01FC01EC01DC01CC01BC00C
:100010001AC03DC018C017C016C015C014C013C008
:1000200012C011C010C011241FBECFE5D4E0DEBF46
:10003000CDBF10E0A0E6B0E001C01D92A136B1072F
:10004000E1F713D052C0DCCF10BC8DE489B98AB17E
:1000500088618AB980B5866880BD08955D9BFECFB2
:100060008CB908958BB18CB10895B89AC09AECDF21
:1000700089B7816089BF789483B7856083BF8BB16E
:100080008CB18823E1F35D9BFECF8CB9F8CF1F9232
:100090000F920FB60F9211248F939F93809160005F
:1000A0008E32B8F05D9BFECF81E48CB95D9BFECFB4
:1000B0008AE08CB95D9BFECF82E48CB95D9BFECF5C
:1000C0008AE08CB988B391E0892788BB10926000E0
:1000D00005C0809160008F5F809360009F918F9139
:0E00E0000F900FBE0F901F901895F894FFCF51
:00000001FF
